:100000002AC04EC04DC04CC04BC04AC049C048C0B9
:1000100047C083C145C033C243C042C041C040C095
:100020003FC03EC03DC0084AD73B3BCE016E84BCBA
:10003000BFFDC12F3D6C74319ABD56833DDA3D0042
:10004000C77F11BED9E4BB4C3E916BAAAABE00008B
:1000500000803F007A0311241FBECFE5D4E0DEBF4D
:10006000CDBF10E0A0E6B0E0EEEEFFE002C00590EC
:100070000D92A038B107D9F710E0A0E8B0E001C0B8
:100080001D92AC3BB107E1F710E0C6E5D0E003C03C
:100090002297FE01A6D7C435D107D1F73AD1A5C71B
:1000A000AFCF2F923F924F925F926F927F928F923B
:1000B0009F92AF92BF92CF92DF92EF92FF920F93F7
:1000C0001F93CF93DF9383E0C5D17C0182E0C2D13F
:1000D000EC0181E0BFD14C0100D000D00027F7FC3B
:1000E0000095102F84EB90E0A0E0B0E0EDB7FEB7F4
:1000F00081839283A383B483C801B7012CE231E0EA
:1001000040E050E0A7ECEA2EA1E0FA2E012D112DDF
:10011000AA24BB2465014AD41B010F900F900F90B5
:100120000F9077FF02C02224332400D000D0BE01FC
:10013000882777FD8095982F24EB30E040E050E051
:10014000EDB7FEB721833283438354832CE231E041
:1001500040E050E0F7ECEF2EF1E0FF2E012D112DE5
:10016000AA24BB24650122D42B010F900F900F907D
:100170000F9077FF02C04424552400D000D0B40172
:10018000882777FD8095982F24EB30E040E050E001
:10019000EDB7FEB721833283438354832CE231E0F1
:1001A00040E050E0E7ECEE2EE1E0FE2E012D112DB7
:1001B000AA24BB246501FAD3EB010F900F900F9096
:1001C0000F9077FF02C0C0E0D0E066277727641960
:1001D0007509882777FD8095982F60D53B014C01E4
:1001E000662777276C1B7D0B882777FD8095982FD6
:1001F00055D55B016C01C401B301A601950191D4F1
:100200002BED3FE049E450E419D421EE3EE245E60F
:1002100052E4FCD56093800070938100809382004B
:10022000909383006627772762197309882777FDE3
:100230008095982F33D57B018C01A601950171D44F
:100240002BED3FE049E450E4F9D321EE3EE245E6F0
:1002500052E4DCD56093840070938500809386001F
:1002600090938700C401B301A80197015AD42BEDE4
:100270003FE049E450E4E2D321EE3EE245E652E4B9
:10028000C5D5609388007093890080938A0090930D
:100290008B0089EA90E060E670E09DD289EA90E008
:1002A000B1017DD389EA90E066E670E094D289EAF4
:1002B00090E0B20174D389EA90E06CE670E08BD2F2
:1002C00089EA90E0BE016BD389EA90E062E770E0D2
:1002D000A1D264EF71E080E090E073D0DF91CF9124
:1002E0001F910F91FF90EF90DF90CF90BF90AF9054
:1002F0009F908F907F906F905F904F903F902F9046
:10030000089589EA90E040E855E260E070E0F2D0BC
:10031000089581D0F6DFC5DEFECF1F920F920FB693
:100320000F9211242F933F934F935F936F937F937B
:100330008F939F93AF93BF93209190003091910042
:10034000409192005091930070919400DA01C9019C
:100350000296A11DB11D672F6A5F6D3730F06D5792
:10036000DA01C9010396A11DB11D60939400809329
:10037000900090939100A0939200B093930080918D
:100380008C0090918D00A0918E00B0918F0001960D
:10039000A11DB11D80938C0090938D00A0938E00C1
:1003A000B0938F00BF91AF919F918F917F916F918B
:1003B0005F914F913F912F910F900FBE0F901F9023
:1003C0001895EF92FF920F931F937B018C018FB7CB
:1003D000F89440919000509191006091920070913A
:1003E00093008FBF2FB7F894809190009091910067
:1003F000A0919200B09193002FBF841B950BA60B88
:10040000B70BE816F9060A071B0760F71F910F9153
:10041000FF90EF900895789483B7826083BF83B78D
:10042000816083BF89B7816089BF8EB582608EBDD0
:100430008EB581608EBD8FB581608FBD85B58460BE
:1004400085BD85B5806485BD329A319A309A379AD8
:100450001AB808958F70909174009295990F990F22
:10046000907C982B97B9369A3699FECF24B145B136
:10047000942F80E030E0282B392BC90108951F927A
:100480000F920FB60F9211242F933F934F935F93C8
:100490006F937F938F939F93AF93BF93EF93FF934C
:1004A0004CB1E091A500F091A600CF01019660E16A
:1004B00070E031D59C018091A7009091A800281789
:1004C000390739F0EB56FF4F40833093A600209355
:1004D000A500FF91EF91BF91AF919F918F917F9177
:1004E0006F915F914F913F912F910F900FBE0F90A1
:1004F0001F9018955F926F927F928F929F92AF920A
:10050000BF92CF92DF92EF92FF920F931F93CF9300
:10051000DF93EC013A014B01413281EA580787E051
:10052000680780E078070CF075C060E472E48FE043
:1005300090E0A401930124D5215030404040504028
:10054000CA01B90122E030E040E050E019D559017C
:100550006A01A6019501209530954095509594E04B
:10056000220F331F441F551F9A95D1F760E072E1A7
:100570008AE790E005D5CA01B9012FEF30E040E0ED
:1005800050E0AAD4A4019301FBD4C90181509F4F2C
:10059000181619061CF4522E5A9403C0552453946D
:1005A000521A60E874E88EE190E0A4019301E8D467
:1005B0002150304040405040CA01B90122E030E0B3
:1005C00040E050E0DDD4209530954095509583E093
:1005D000220F331F441F551F8A95D1F760E072E147
:1005E0008AE790E0CDD4CA01B9012FEF30E040E0B6
:1005F00050E072D4A4019301C3D4C90181509F4F2C
:10060000181619061CF4822F815002C081E0821B4B
:100610008515F0F4E885F98581E090E00A8802C04C
:10062000880F991F0A94E2F7808360E874E88EE1EE
:1006300090E0A4019301A4D42150304040405040A8
:10064000CA01B90122E030E040E050E099D404C092
:10065000E885F98510829501EC81FD813083EE817A
:10066000FF812083EA85FB85208141E050E0CA01BB
:100670000E8402C0880F991F0A94E2F7282B20836A
:10068000EA85FB852081CA010F8402C0880F991F6B
:100690000A94E2F7282B2083EA85FB85808108886D
:1006A00002C0440F551F0A94E2F7842B8083DF9128
:1006B000CF911F910F91FF90EF90DF90CF90BF905F
:1006C000AF909F908F907F906F905F900895FC0106
:1006D000A085B18521898C9190E0022E02C095956C
:1006E00087950A94E2F780FFF6CF0484F585E02D24
:1006F0006083089589E790E09093AA008093A90011
:1007000085E990E09093AC008093AB0080E490E0AA
:100710009093AE008093AD0089E290E09093B0009A
:100720008093AF008BE290E09093B2008093B10091
:100730008AE290E09093B4008093B3008CE290E062
:100740009093B6008093B50084E08093B70083E077
:100750008093B80087E08093B90085E08093BA0069
:1007600081E08093BB0008950F931F93CF93DF9395
:100770008C01EB0109C02196D801ED91FC9101900B
:10078000F081E02DC801099568816623A1F7DF910A
:10079000CF911F910F910895EF92FF920F931F93A6
:1007A000CF93DF938C017B01EA010CC0D7016D91DF
:1007B0007D01D801ED91FC910190F081E02DC801FF
:1007C00009952197209791F7DF91CF911F910F9174
:1007D000FF90EF900895DC01ED91FC910280F38190
:1007E000E02D099508950F931F938C01DC01ED9185
:1007F000FC910190F081E02D6DE00995D801ED911B
:10080000FC910190F081E02DC8016AE009951F91EB
:100810000F9108950F931F938C01DDDFC801E3DF73
:100820001F910F9108952F923F924F925F926F9276
:100830007F928F929F92AF92BF92CF92DF92EF9270
:10084000FF920F931F93DF93CF93CDB7DEB7A0979F
:100850000FB6F894DEBF0FBECDBF1C016A017B014D
:10086000411551056105710549F4DC01ED91FC91DB
:100870000190F081E02D60E3099552C0882499240D
:100880005401422E55246624772401E010E00C0F19
:100890001D1F080D191DC701B601A30192014ED3FA
:1008A000F80160830894811C911CA11CB11CC70134
:1008B000B601A301920142D3C901DA016C017D01A5
:1008C000C114D104E104F10401F781E0E82EF12C18
:1008D000EC0EFD1EE80CF91C3E010894611C711C15
:1008E000D501C4010197A109B1096C01C818D90843
:1008F00014C0F601EE0DFF1D60816A3010F4605DDA
:1009000001C0695CD101ED91FC910190F081E02D75
:10091000C10109950894E108F1086E147F0449F7B4
:10092000A0960FB6F894DEBF0FBECDBFCF91DF917A
:100930001F910F91FF90EF90DF90CF90BF90AF90FD
:100940009F908F907F906F905F904F903F902F90EF
:100950000895EF92FF920F931F93CF93DF93EC01D3
:100960007A018B0177FF0FC0E881F9810190F08156
:10097000E02D6DE2099510950095F094E094E11C4E
:10098000F11C011D111DCE01B801A7012AE04BDFAA
:10099000DF91CF911F910F91FF90EF900895AB01E0
:1009A000662757FD6095762FD4DF08952F923F92EA
:1009B0004F925F926F927F928F929F92AF92BF926F
:1009C000CF92DF92EF92FF920F931F93DF93CF931B
:1009D000CDB7DEB73B014C0119012A016D897E8933
:1009E0008F89988D6A197B098C099D09621A730A8F
:1009F000840A950AA40193016FD2E218F30804094E
:100A00001509A8019701BCD22A0D3B1D4C1D5D1D87
:100A1000B901CA01CF91DF911F910F91FF90EF9023
:100A2000DF90CF90BF90AF909F908F907F906F900E
:100A30005F904F903F902F9008955058BB27AA2762
:100A40000ED0A3C194D130F099D120F031F49F3F62
:100A500011F41EF464C10EF4E095E7FB5AC1E92FCE
:100A6000A5D180F3BA17620773078407950718F0BA
:100A700071F49EF5BDC10EF4E0950B2EBA2FA02D9A
:100A80000B01B90190010C01CA01A0011124FF273B
:100A9000591B99F0593F50F4503E68F11A16F04036
:100AA000A22F232F342F4427585FF3CF4695379535
:100AB0002795A795F0405395C9F77EF41F16BA0BFA
:100AC000620B730B840BBAF09150A1F0FF0FBB1FA8
:100AD000661F771F881FC2F70EC0BA0F621F731FF1
:100AE000841F48F4879577956795B795F7959E3F4E
:100AF00008F0B3CF9395880F08F09927EE0F9795DC
:100B00008795089534D158F080E891E009F49EEF7C
:100B100035D128F040E851E059F45EEF09C0FFC03C
:100B200067C1E92FE07842D168F3092E052AC1F3A5
:100B3000261737074807590738F00E2E07F8E02523
:100B400069F0E025E0640AC0EF6307F8009407FA53
:100B5000DB01B9019D01DC01CA01AD01EF9343D076
:100B600014D10AD05F91552331F02BED3FE049E4D9
:100B700050FD49EC63CF0895DF93DD27B92FBF7790
:100B800040E85FE31616170648075B0710F4D92FF5
:100B900036D19F938F937F936F939BD1E6E2F0E0E2
:100BA000C1D0F3D02F913F914F915F913BD1DD2385
:100BB00049F09058A2EA2AED3FE049EC5FE3D07893
:100BC0005D274DDFDF91E1C00CD0DFC0D7D040F012
:100BD000CED030F021F45F3F19F09BC0511109C114
:100BE0009EC0E4D098F39923C9F35523B1F3951B24
:100BF000550BBB27AA2762177307840738F09F5F3E
:100C00005F4F220F331F441FAA1FA9F333D00E2EAC
:100C10003AF0E0E830D091505040E695001CCAF719
:100C200029D0FE2F27D0660F771F881FBB1F2617DE
:100C300037074807AB07B0E809F0BB0B802DBF01B1
:100C4000FF2793585F4F2AF09E3F510568F061C01F
:100C5000D0C05F3FECF3983EDCF3869577956795BF
:100C6000B795F7959F5FC9F7880F911D9695879562
:100C700097F90895E1E0660F771F881FBB1F621781
:100C800073078407BA0720F0621B730B840BBA0B3F
:100C9000EE1F88F7E0950895E89409C097FB3EF4AD
:100CA00090958095709561957F4F8F4F9F4F9923B9
:100CB000A9F0F92F96E9BB279395F6958795779537
:100CC0006795B795F111F8CFFAF4BB0F11F460FFF7
:100CD0001BC06F5F7F4F8F4F9F4F16C0882311F04F
:100CE00096E911C0772321F09EE8872F762F05C063
:100CF000662371F096E8862F70E060E02AF09A95FE
:100D0000660F771F881FDAF7880F9695879597F9F2
:100D1000089597F99F6780E870E060E008959FEF7D
:100D200080EC0895DF93CF931F930F93FF92EF9280
:100D3000DF927B018C01689405C0DA2EEF0172D03E
:100D4000FE01E894A5912591359145915591AEF319
:100D5000EF0185DEFE019701A801DA9479F7DF90B3
:100D6000EF90FF900F911F91CF91DF910895002494
:100D70000A941616170618060906089500240A9400
:100D800012161306140605060895092E0394000C86
:100D900011F4882352F0BB0F40F4BF2B11F460FF15
:100DA00004C06F5F7F4F8F4F9F4F089557FD90583E
:100DB000440F551F59F05F3F71F04795880F97FB1F
:100DC000991F61F09F3F79F08795089512161306D9
:100DD0001406551FF2CF4695F1DF08C01616170608
:100DE0001806991FF1CF869571056105089408953D
:100DF000E894BB2766277727CB0197F908959B01D5
:100E0000AC0160E070E080E89FE3DECE0BD0BDCFA8
:100E1000AEDF28F0B3DF18F0952309F07ACF7FCF4B
:100E20001124E7CFC3DFA0F3959FD1F3950F50E0D6
:100E3000551F629FF001729FBB27F00DB11D639F8C
:100E4000AA27F00DB11DAA1F649F6627B00DA11D32
:100E5000661F829F2227B00DA11D621F739FB00DD8
:100E6000A11D621F839FA00D611D221F749F332748
:100E7000A00D611D231F849F600D211D822F762FE1
:100E80006A2F11249F5750408AF0E1F088234AF0DE
:100E9000EE0FFF1FBB1F661F771F881F915050402A
:100EA000A9F79E3F510570F034CFA3CF5F3FECF31D
:100EB000983EDCF3869577956795B795F795E79516
:100EC0009F5FC1F7FE2B880F911D9695879597F927
:100ED00008959B01AC019ACF629FD001739FF001EE
:100EE000829FE00DF11D649FE00DF11D929FF00DBA
:100EF000839FF00D749FF00D659FF00D9927729FF1
:100F0000B00DE11DF91F639FB00DE11DF91FBD017B
:100F1000CF011124089597FB092E07260AD077FDEB
:100F200004D049D006D000201AF4709561957F4F07
:100F30000895F6F7909581959F4F0895A1E21A2E96
:100F4000AA1BBB1BFD010DC0AA1FBB1FEE1FFF1F6D
:100F5000A217B307E407F50720F0A21BB30BE40BBD
:100F6000F50B661F771F881F991F1A9469F7609504
:100F70007095809590959B01AC01BD01CF010895BE
:100F800097FB092E05260ED057FD04D0D7DF0AD0D7
:100F9000001C38F450954095309521953F4F4F4FA8
:100FA0005F4F0895F6F790958095709561957F4F06
:100FB0008F4F9F4F0895AA1BBB1B51E107C0AA1F6B
:100FC000BB1FA617B70710F0A61BB70B881F991FEA
:100FD0005A95A9F780959095BC01CD010895EE0F23
:0E0FE000FF1F0590F491E02D0994F894FFCFC7
:100FEE007B2278223A002C2279223A002C227A2275
:100FFE003A007D0001000000006703B403CC03003B
:00000001FF
