:100000000C9435000C945D000C945D000C945D0024
:100010000C945D000C945D000C945D000C945D00EC
:100020000C945D000C945D000C945D000C945D00DC
:100030000C945D000C945D000C945D000C945D00CC
:100040000C94B0000C945D000C945C010C945D0069
:100050000C945D000C945D000C945D000C945D00AC
:100060000C945D000C945D00A50211241FBECFEF1F
:10007000D8E0DEBFCDBF11E0A0E0B1E0E4E3F9E0FD
:1000800002C005900D92A435B107D9F711E0A4E59F
:10009000B1E001C01D92A438B107E1F710E0CAE653
:1000A000D0E004C02297FE010E949404C836D10714
:1000B000C9F70E94A9000C9498040C94000082E0F7
:1000C0000E943E01BC0181E791E00E94FF0383E0B2
:1000D0000E943E01BC0181E791E00E94FF0383E0A2
:1000E0000E943E01825C914034F481E791E060E03F
:1000F00071E00E94350383E00E943E0187529240E6
:1001000034F081E791E067E171E00E94350382E01D
:100110000E943E01825C914034F481E791E06DE2FF
:1001200071E00E94350382E00E943E0187529240B6
:1001300034F081E791E06BE371E00E9435030895AC
:1001400081E791E040E056E960E070E00E949901AB
:1001500008950E9404010E94A0000E945F00FDCF4C
:100160001F920F920FB60F9211242F933F934F932C
:100170005F936F937F938F939F93AF93BF932091E0
:1001800058013091590140915A0150915B01709191
:100190005C01DA01C9010296A11DB11D672F6A5FDA
:1001A0006D3730F06D57DA01C9010396A11DB11DFD
:1001B00060935C018093580190935901A0935A0178
:1001C000B0935B018091540190915501A09156012B
:1001D000B09157010196A11DB11D809354019093D8
:1001E0005501A0935601B0935701BF91AF919F91D4
:1001F0008F917F916F915F914F913F912F910F90D0
:100200000FBE0F901F901895789484B5826084BDBE
:1002100084B5816084BD85B5826085BD85B581600A
:1002200085BDEEE6F0E0808181608083E1E8F0E06A
:10023000808182608083808181608083E0E8F0E05B
:10024000808181608083E1EBF0E080818460808345
:10025000E0EBF0E0808181608083EAE7F0E080817C
:1002600084608083808182608083808181608083DC
:100270008081806880831092C10008958F70909172
:1002800049019295990F990F907C982B90937C003F
:1002900080917A00806480937A0080917A0086FD54
:1002A000FCCF2091780040917900942F80E030E0DD
:1002B000282B392BC90108951F920F920FB60F9268
:1002C00011242F933F934F935F936F937F938F935B
:1002D0009F93AF93BF93EF93FF934091C600E0913C
:1002E0006D01F0916E01CF01019660E170E00E9416
:1002F0002E049C0180916F0190917001281739079D
:1003000039F0E35AFE4F408330936E0120936D0124
:10031000FF91EF91BF91AF919F918F917F916F91DD
:100320005F914F913F912F910F900FBE0F901F90B3
:1003300018955F926F927F928F929F92AF92BF9229
:10034000CF92DF92EF92FF920F931F93CF93DF93A1
:10035000EC013A014B01413281EA580787E0680716
:1003600080E078070CF07FC060E472E48FE090E0FA
:10037000A40193010E94630421503040404050404A
:10038000CA01B90122E030E040E050E00E9463047D
:1003900059016A01A6019501209530954095509527
:1003A00094E0220F331F441F551F9A95D1F760E048
:1003B00072E18AE790E00E946304CA01B9012FEF5D
:1003C00030E040E050E00E940F04A40193010E943D
:1003D0006304C90181509F4F181619061CF4522E50
:1003E0005A9403C055245394521A60E874E88EE17D
:1003F00090E0A40193010E946304215030404040EA
:100400005040CA01B90122E030E040E050E00E94D3
:100410006304209530954095509583E0220F331F5B
:10042000441F551F8A95D1F760E072E18AE790E09A
:100430000E946304CA01B9012FEF30E040E050E0B0
:100440000E940F04A40193010E946304C90181501A
:100450009F4F181619061CF4822F815002C081E0AC
:10046000821B851500F5E885F98581E090E00A8812
:1004700002C0880F991F0A94E2F7808360E874E84D
:100480008EE190E0A40193010E946304215030406A
:1004900040405040CA01B90122E030E040E050E065
:1004A0000E94630404C0E885F98510829501EC81FF
:1004B000FD813083EE81FF812083EA85FB852081E9
:1004C00041E050E0CA010E8402C0880F991F0A94CF
:1004D000E2F7282B2083EA85FB852081CA010F845F
:1004E00002C0880F991F0A94E2F7282B2083EA851F
:1004F000FB858081088802C0440F551F0A94E2F7EB
:10050000842B8083DF91CF911F910F91FF90EF900B
:10051000DF90CF90BF90AF909F908F907F906F9023
:100520005F900895FC01A085B18521898C9190E0B0
:10053000022E02C0959587950A94E2F780FFF6CFC8
:100540000484F585E02D608308958EE491E0909316
:100550007201809371018DE591E090937401809315
:10056000730185EC90E0909376018093750184ECA3
:1005700090E0909378018093770180EC90E09093E5
:100580007A018093790181EC90E090937C018093D3
:100590007B0186EC90E090937E0180937D0184E066
:1005A00080937F0183E08093800187E080938101C5
:1005B00085E08093820181E08093830108950F9309
:1005C0001F93CF93DF938C01EB0109C02196D801D3
:1005D000ED91FC910190F081E02DC80109956881B1
:1005E0006623A1F7DF91CF911F910F910895EF92AC
:1005F000FF920F931F93CF93DF938C017B01EA014E
:100600000CC0D7016D917D01D801ED91FC91019055
:10061000F081E02DC80109952197209791F7DF918E
:10062000CF911F910F91FF90EF900895DC01ED9114
:10063000FC910280F381E02D099508950F931F939B
:100640008C01DC01ED91FC910190F081E02D6DE0D9
:100650000995D801ED91FC910190F081E02DC80140
:100660006AE009951F910F9108950F931F938C01D4
:100670000E941603C8010E941E031F910F91089546
:100680002F923F924F925F926F927F928F929F92A2
:10069000AF92BF92CF92DF92EF92FF920F931F9390
:1006A000DF93CF93CDB7DEB7A0970FB6F894DEBF38
:1006B0000FBECDBF1C016A017B01411551056105CB
:1006C000710549F4DC01ED91FC910190F081E02D80
:1006D00060E3099554C0882499245401422E55247E
:1006E0006624772401E010E00C0F1D1F080D191D72
:1006F000C701B601A30192010E944104F801608381
:100700000894811C911CA11CB11CC701B601A30156
:1007100092010E944104C901DA016C017D01C114FA
:10072000D104E104F104F1F681E0E82EF12CEC0EA5
:10073000FD1EE80CF91C3E010894611C711CD501DA
:10074000C4010197A109B1096C01C818D90814C0E6
:10075000F601EE0DFF1D60816A3010F4605D01C08E
:10076000695CD101ED91FC910190F081E02DC10116
:1007700009950894E108F1086E147F0449F7A096E2
:100780000FB6F894DEBF0FBECDBFCF91DF911F91A2
:100790000F91FF90EF90DF90CF90BF90AF909F9020
:1007A0008F907F906F905F904F903F902F90089523
:1007B000EF92FF920F931F93CF93DF93EC017A0197
:1007C0008B0177FF0FC0E881F9810190F081E02D66
:1007D0006DE2099510950095F094E094E11CF11CF0
:1007E000011D111DCE01B801A7012AE00E9440039E
:1007F000DF91CF911F910F91FF90EF9008950F938C
:100800001F938C01AB01662757FD6095762F0E94E0
:10081000D803C8010E941E031F910F910895629F83
:10082000D001739FF001829FE00DF11D649FE00DE8
:10083000F11D929FF00D839FF00D749FF00D659F49
:10084000F00D9927729FB00DE11DF91F639FB00D48
:10085000E11DF91FBD01CF011124089597FB092E59
:1008600007260AD077FD04D049D006D000201AF41C
:10087000709561957F4F0895F6F7909581959F4FFC
:100880000895A1E21A2EAA1BBB1BFD010DC0AA1FD1
:10089000BB1FEE1FFF1FA217B307E407F50720F0E9
:1008A000A21BB30BE40BF50B661F771F881F991F64
:1008B0001A9469F760957095809590959B01AC01AD
:1008C000BD01CF01089597FB092E05260ED057FDD7
:1008D00004D0D7DF0AD0001C38F4509540953095ED
:1008E00021953F4F4F4F5F4F0895F6F790958095B4
:1008F000709561957F4F8F4F9F4F0895AA1BBB1B2B
:1009000051E107C0AA1FBB1FA617B70710F0A61B0F
:10091000B70B881F991F5A95A9F780959095BC0130
:10092000CD010895EE0FFF1F0590F491E02D09947D
:04093000F894FFCF69
:100934004C696774206F7020726563687465727A9D
:10094400696A6B616E74004C696774206F70206C07
:10095400696E6B65727A696A6B616E740053746157
:10096400617274204F6D686F6F67005374616172B8
:1009740074204F6D6C6161670001000000009202F9
:04098400DF02F70295
:00000001FF
