:100000000C94A9000C94C6000C94C6000C944D02EC
:100010000C9477020C94A1020C94C6000C94C600B8
:100020000C94C6000C94C6000C94C6000C94C60038
:100030000C94C6000C94C6000C94C6000C94C60028
:100040000C9485050C94C6000C94C6000C94C60054
:100050000C94C6000C94C6000C94C6000C94C60008
:100060000C94C6000C94C60000C2010001000500FB
:100070000500030000E1000001000F000F000D006B
:1000800000960000020019001A001700127A000002
:100090000700200021001D00807000000B002300DD
:1000A00023002000004B000014003700370034000C
:1000B000403800001E004B004B0048008025000027
:1000C0003200720072007000C01200006E00E90081
:1000D000E900E60060090000E500D801D801D5017B
:1000E000B0040000D301B403B403B1032C01000039
:1000F0006707DD0EDD0EDA0E000000002400270089
:100100002A0000000000250028002B00000000004D
:100110002300260029000404040404040404020249
:100120000202020203030303030301020408102076
:100130004080010204081020010204081020000081
:100140000007000201000003040600000000000098
:10015000000011241FBECFEFD8E0DEBFCDBF11E0FD
:10016000A0E0B1E0E2E4F0E102C005900D92AA3D0A
:10017000B107D9F712E0AAEDB1E001C01D92A13399
:10018000B107E1F70E9480050C941F080C94000051
:100190000F931F93182F092F64E271E00E941E072E
:1001A00064EF71E080E090E00E94D905812F902FEC
:1001B0006CE271E00E941E0764EF71E080E090E065
:1001C0000E94D905812F902F63E371E00E941E07E2
:1001D00064EF71E080E090E00E94D905812F902FBC
:1001E0006CE371E00E941E0764EF71E080E090E034
:1001F0000E94D9051F910F910895AF92BF92CF929F
:10020000DF92EF92FF920F931F93182F092F6B012C
:100210005A016FE771E00E941E0764EF71E080E011
:1002200090E00E94D905812F902F69E871E00E942B
:10023000FF0682E9E82E81E0F82E812F902FB7018A
:100240000E94FF06812F902F64E971E00E94FF0653
:10025000812F902FB7010E94FF06812F902F0E94BF
:10026000070764EF71E080E090E00E94D905812FDC
:10027000902FB6010E94FF06812F902F60EA71E057
:100280000E94FF06812F902FB5010E94FF06812F4B
:10029000902F4AE150E060E070E020E030E00E9402
:1002A000E80764EF71E080E090E00E94D9051F91BB
:1002B0000F91FF90EF90DF90CF90BF90AF90089597
:1002C000AF92BF92CF92DF92EF92FF920F931F9364
:1002D000182F092F6B015A016FE771E00E941E076A
:1002E00064EF71E080E090E00E94D905812F902FAB
:1002F00069E871E00E94FF0692E9E92E91E0F92E8B
:10030000812F902FB7010E94FF06812F902FB601F9
:100310000E94FF06812F902FB7010E94FF06812FB8
:10032000902F0E94070764EF71E080E090E00E9448
:10033000D905812F902FB5010E941E0764EF71E04F
:1003400080E090E00E94D905812F902F4AE150E093
:1003500060E070E020E030E00E94E80764EF71E0C8
:1003600080E090E00E94D9051F910F91FF90EF90DF
:10037000DF90CF90BF90AF900895EF92FF920F93D0
:100380001F93F82EE92E162F042F20E00E94A104BF
:10039000812F60E00E945B06802F61E00E945B0677
:1003A0008F2D9E2D40E056E960E070E00E94CB0268
:1003B00064EF71E080E090E00E94D9051F910F91F9
:1003C000FF90EF9008950F931F93CF93DF93FC015D
:1003D000718976957170A481B5819381772329F015
:1003E0008C91892309F454C004C08C91892309F0AD
:1003F0004FC08185928520E001972FEF8F3F9207B4
:10040000D9F7C385D485A481B581138160E031E03B
:1004100040E050E000E0CE01202F01972FEF8F3F0A
:100420009207D9F78C91812311F0632B03C0832F9E
:1004300080956823330F4F5F5F4F4830510559F760
:100440008585968520E001972FEF8F3F9207D9F79A
:100450007111609580911C0220911D0290E001961F
:100460008F73907030E08217930779F0E0911C024F
:10047000F0E0E452FE4F608380911C0290E0019610
:100480008F73907080931C0203C081898160818B7F
:10049000DF91CF911F910F9108951F920F920FB688
:1004A0000F9211242F933F934F935F936F937F93FA
:1004B0008F939F93AF93BF93EF93FF938091DA0154
:1004C0009091DB01009711F00E94E301FF91EF9101
:1004D000BF91AF919F918F917F916F915F914F915C
:1004E0003F912F910F900FBE0F901F9018951F9264
:1004F0000F920FB60F9211242F933F934F935F9358
:100500006F937F938F939F93AF93BF93EF93FF93DB
:100510008091DA019091DB01009711F00E94E301D4
:10052000FF91EF91BF91AF919F918F917F916F91CB
:100530005F914F913F912F910F900FBE0F901F90A1
:1005400018951F920F920FB60F9211242F933F937D
:100550004F935F936F937F938F939F93AF93BF93CB
:10056000EF93FF938091DA019091DB01009711F0F6
:100570000E94E301FF91EF91BF91AF919F918F9105
:100580007F916F915F914F913F912F910F900FBE8F
:100590000F901F901895CF92DF92EF92FF920F93DA
:1005A0001F93CF93DF93EC017A018B01188A1F868A
:1005B0001E861D861C861B861A86198620E030E062
:1005C0006901CC0CDD1CC20ED31EB601660F771F6D
:1005D000660F771FAB0148595F4FFA0185919591DE
:1005E000A591B4918E159F05A007B107E9F4FB0111
:1005F000E459FF4F859194919A878987FB01E259CD
:10060000FF4F859194919C878B87FB01E059FF4FA9
:10061000859194919E878D87FB01EE58FF4F8591C0
:100620009491988B8F8706C02F5F3F4F2C303105F8
:1006300009F0C6CF8D859E85892B09F449C04A8172
:10064000463108F03DC090916800483010F484E0D5
:1006500005C04E3010F082E001C081E0892B80930C
:100660006800483028F4EDE6F0E0ADE6B0E00BC0FD
:100670004E3028F0ECE6F0E0ACE6B0E004C0EBE68B
:10068000F0E0ABE6B0E05081483040F481E090E02B
:1006900002C0880F991F4A95E2F710C0242F30E05E
:1006A0004E3018F42850304002C02E50304081E0C7
:1006B00090E002C0880F991F2A95E2F7852B8C9352
:1006C0008F85988920E001972FEF8F3F9207D9F708
:1006D0008091DA019091DB018C179D0781F0898967
:1006E0008E7F898B9FB7F89410921C0280911C0218
:1006F00080931D02D093DB01C093DA019FBFDF918D
:10070000CF911F910F91FF90EF90DF90CF900895C0
:100710000F931F93DC011F968D919C915097892B0D
:1007200009F4B6C08091DA019091DB018A179B072A
:10073000A1F051968C9151978E7F51968C93519741
:100740009FB7F89410921C0280911C0280931D02A6
:10075000B093DB01A093DA019FBF0FB7F8945196D5
:100760008C9151971796ED91FC91189716962C91B4
:10077000169781FF88C08081822B80831F968D9180
:100780009C915097049620E001972FEF8F3F92079E
:10079000D9F751968C91519781FF35C031E040E0F7
:1007A00050E070E010E0832F90E0862397231796A7
:1007B000ED91FC91189716962C911697892B29F09C
:1007C000808120952823208303C08081822B808311
:1007D0001F968D919C915097212F01972FEF8F3F5E
:1007E0009207D9F7330F4F5F5F4F48305105D9F665
:1007F0001796ED91FC911897908116968C9116970B
:100800008095892333C031E040E050E070E010E093
:10081000832F90E0862397231796ED91FC911897EC
:1008200016962C911697892B21F08081822B80833C
:1008300004C080812095282320831F968D919C9150
:100840005097212F01972FEF8F3F9207D9F7330F42
:100850004F5F5F4F48305105D9F61796ED91FC91E7
:100860001897808116969C911697892B80830FBFCD
:100870001F968D919C91509720E001972FEF8F3F0D
:100880009207D9F705C0808120952823208376CF51
:100890001F910F9108951F93CF93DF93EC01162FB3
:1008A000862F60E00E945B06898981FD04C0812F4C
:1008B00061E00E947B061A83212F30E0C901865D2A
:1008C0009E4FFC0184918B832A5E3E4FF901649117
:1008D000E62FF0E0EE0FFF1FE45FFE4F859194914D
:1008E0009D838C83DF91CF911F910895FF920F9389
:1008F0001F938C01F62E862F61E00E945B068F2DE0
:1009000061E00E947B068F2D90E0FC01E65DFE4FCA
:10091000E491D8011696EC9316978A5E9E4FFC01DF
:100920006491E62FF0E0EE0FFF1FEE5FFE4F859122
:10093000949118969C938E9317971F910F91FF9007
:100940000895FF920F931F938C01F62E84ED91E092
:10095000F801918380831286118614861386168689
:100960001586108A178681892170220F8C7F822B31
:10097000818BC801642F0E947604C8016F2D0E94EC
:100980004B041F910F91FF900895DF92EF92FF9219
:100990000F931F93DF93CF93CDB7DEB762970FB658
:1009A000F894DEBF0FBECDBF8091CD0161E00E9403
:1009B0005B0682E060E00E945B068E010F5F1F4FC6
:1009C000C80160E070E041E050E00E94BD01C80154
:1009D0000E94C80081E0E82EF12CD02E012F83E088
:1009E0000E943D06825C91402CF4F0922502E09238
:1009F000240204C0109225021092240283E00E9477
:100A00003D06875292402CF0F0922302E09222029F
:100A100004C0109223021092220282E00E943D063E
:100A2000825C91402CF4F0921F02E0921E0204C0FE
:100A300010921F0210921E0282E00E943D06875211
:100A400092402CF0F0922102E092200204C0109219
:100A500021021092200280911E0290911F020197A4
:100A600009F03DC08091260290912702892BB9F5AB
:100A70006091CB017091CC01882777FD8095982FEC
:100A80000E94D9058091240290912502019731F0AE
:100A90008091220290912302019741F48D2D902F95
:100AA00062EA71E04DEA51E00E9460018D2D902FC5
:100AB00062EA71E04FEA51E00E9460018D2D902FB3
:100AC00061EB71E047EC51E00E94FD008091CD01A7
:100AD00061E00E947B06F0922702E092260280915C
:100AE000200290912102892B09F479CF10922702DC
:100AF000109226028091CD0160E00E947B066FCFAC
:100B00000E9403060E94C504FFCF1F920F920FB6EA
:100B10000F9211242F933F934F935F936F937F9383
:100B20008F939F93AF93BF9320912C0230912D020E
:100B300040912E0250912F0270913002DA01C901CA
:100B40000296A11DB11D672F6A5F6D3730F06D579A
:100B5000DA01C9010396A11DB11D60933002809393
:100B60002C0290932D02A0932E02B0932F0280911D
:100B7000280290912902A0912A02B0912B0201969D
:100B8000A11DB11D8093280290932902A0932A02EF
:100B9000B0932B02BF91AF919F918F917F916F91F5
:100BA0005F914F913F912F910F900FBE0F901F902B
:100BB0001895EF92FF920F931F937B018C018FB7D3
:100BC000F89440912C0250912D0260912E02709168
:100BD0002F028FBF2FB7F89480912C0290912D0295
:100BE000A0912E02B0912F022FBF841B950BA60B54
:100BF000B70BE816F9060A071B0760F71F910F915C
:100C0000FF90EF900895789484B5826084BD84B598
:100C1000816084BD85B5826085BD85B5816085BDF7
:100C2000EEE6F0E0808181608083E1E8F0E08081A1
:100C300082608083808181608083E0E8F0E0808151
:100C400081608083E1EBF0E0808184608083E0EB71
:100C5000F0E0808181608083EAE7F0E08081846059
:100C600080838081826080838081816080838081B5
:100C7000806880831092C10008958F709091CF0199
:100C80009295990F990F907C982B90937C0080916E
:100C90007A00806480937A0080917A0086FDFCCF90
:100CA0002091780040917900942F80E030E0282B4B
:100CB000392BC9010895282F30E0C901865D9E4F68
:100CC000FC0194912A5E3E4FF9018491882391F0B2
:100CD000E82FF0E0EE0FFF1FE850FF4FA591B49111
:100CE000662329F48C91909589238C9308958C9197
:100CF000892B8C930895482F50E0CA01825C9E4F47
:100D0000FC012491CA01865D9E4FFC0194914A5ECC
:100D10005E4FFA0134913323D1F1222331F1233094
:100D200021F4809180008F7705C0243031F48091C8
:100D300080008F7D8093800018C0213019F484B525
:100D40008F7704C0223021F484B58F7D84BD0DC01F
:100D5000263021F48091B0008F7705C0273029F428
:100D60008091B0008F7D8093B000E32FF0E0EE0F14
:100D7000FF1FEE5FFE4FA591B491662329F48C917D
:100D8000909589238C9308958C91892B8C93089549
:100D90000F931F93CF93DF938C01EB0109C0219632
:100DA000D801ED91FC910190F081E02DC8010995E9
:100DB00068816623A1F7DF91CF911F910F9108956C
:100DC000EF92FF920F931F93CF93DF938C017B01E0
:100DD000EA010CC0D7016D917D01D801ED91FC9124
:100DE0000190F081E02DC80109952197209791F796
:100DF000DF91CF911F910F91FF90EF900895DC014B
:100E0000ED91FC910280F381E02D099508950F93F7
:100E10001F938C01DC01ED91FC910190F081E02D9C
:100E20006DE00995D801ED91FC910190F081E02DE4
:100E3000C8016AE009951F910F9108950F931F93C0
:100E40008C010E94FF06C8010E9407071F910F91A5
:100E500008952F923F924F925F926F927F928F925E
:100E60009F92AF92BF92CF92DF92EF92FF920F9339
:100E70001F93DF93CF93CDB7DEB7A0970FB6F8944B
:100E8000DEBF0FBECDBF1C016A017B0141155105BC
:100E90006105710549F4DC01ED91FC910190F0814F
:100EA000E02D60E3099554C0882499245401422E12
:100EB00055246624772401E010E00C0F1D1F080D57
:100EC000191DC701B601A30192010E94FD07F80197
:100ED00060830894811C911CA11CB11CC701B60140
:100EE000A30192010E94FD07C901DA016C017D0195
:100EF000C114D104E104F104F1F681E0E82EF12CF3
:100F0000EC0EFD1EE80CF91C3E010894611C711CDE
:100F1000D501C4010197A109B1096C01C818D9080C
:100F200014C0F601EE0DFF1D60816A3010F4605DA3
:100F300001C0695CD101ED91FC910190F081E02D3F
:100F4000C10109950894E108F1086E147F0449F77E
:100F5000A0960FB6F894DEBF0FBECDBFCF91DF9144
:100F60001F910F91FF90EF90DF90CF90BF90AF90C7
:100F70009F908F907F906F905F904F903F902F90B9
:100F80000895EF92FF920F931F93CF93DF93EC019D
:100F90007A018B0177FF0FC0E881F9810190F08120
:100FA000E02D6DE2099510950095F094E094E11C18
:100FB000F11C011D111DCE01B801A7012AE00E94FC
:100FC0002907DF91CF911F910F91FF90EF90089526
:100FD000DC012115310541F4ED91FC910190F08186
:100FE000E02D642F099508952A30310519F40E94E7
:100FF000C10708950E9429070895A1E21A2EAA1B8D
:10100000BB1BFD010DC0AA1FBB1FEE1FFF1FA217B8
:10101000B307E407F50720F0A21BB30BE40BF50BB5
:10102000661F771F881F991F1A9469F7609570953E
:10103000809590959B01AC01BD01CF010895F89476
:02104000FFCFE0
:1010420041542A535752455345540041542B434669
:10105200554E3D30004154445430363439393832DB
:101062003137360041542B494E49540041542B49E3
:101072004E510041542B4D5241443F0041542B4CA0
:10108200494E4B3D32332C2044372C2037433035E8
:1010920037330041542B52455345540041542B439E
:1010A2005351002B4353513A202C004F4B004154D3
:1010B2000041542B434243002B4342433A20004118
:1010C200542B434D47463D310041542B434D47532A
:1010D2003D0022004154442A39392A2A312A230068
:1010E200200030363439393832313736004C004836
:1010F200006A61636B2E636F70406B706E706C611F
:101102006E65742E6E6C006B6F6500D0070D00016A
:0A111200000000008803C806E00694
:00000001FF
