:100000000C9435000C94CE030C94FB030C945D000F
:100010000C945D000C945D000C945D000C945D00EC
:100020000C945D000C945D000C945D000C945D00DC
:100030000C945D000C945D000C945D000C945D00CC
:100040000C9428040C945D000C94E3040C945D0063
:100050000C945D000C945D000C945D000C945D00AC
:100060000C945D000C945D002C0611241FBECFEF94
:10007000D8E0DEBFCDBF11E0A0E0B1E0E4E9F5E1FA
:1000800002C005900D92AE34B107D9F711E0AEE48D
:10009000B1E001C01D92A33CB107E1F710E0CAE650
:1000A000D0E004C02297FE010E94C40AC836D107DE
:1000B000C9F70E94A4030C94C80A0C9400008F9204
:1000C0009F92AF92BF92CF92DF92EF92FF920F93E7
:1000D0001F93CF93DF937B018C01EA012CE330E087
:1000E00040E050E00E94710A6883C801B7012CE328
:1000F00030E040E050E00E94710A122F032FF42EEE
:10010000E52E622F732F842F952F2CE330E040E0F3
:1001100050E00E94710A6983612F702F8F2D9E2DF0
:100120002CE330E040E050E00E94710A122F032FD0
:10013000F42EE52E622F732F842F952F28E130E0C7
:1001400040E050E00E94710A6A83612F702F8F2D6A
:100150009E2D28E130E040E050E00E94710A7901D4
:100160008A01C801B7016C5F7F4F8F4F9F4F27E017
:1001700030E040E050E00E94710A6F5F6B8320E046
:10018000AA24BB24650101C02F5F822E9924F401AB
:10019000EE54F84FCF0183709070892B99F4CF0102
:1001A00064E670E00E945E0A892B39F4CF0160E9B1
:1001B00071E00E945E0A892B29F48EE691E0A0E0AE
:1001C000B0E004C08DE691E0A0E0B0E0A80EB91E5A
:1001D000CA1EDB1EC501A0E0B0E0E816F9060A075A
:1001E0001B0790F62E83F401EE54F84F83E0882E1F
:1001F000912C8E229F228114910499F4CF0164E600
:1002000070E00E945E0A892B39F4CF0160E971E049
:100210000E945E0A892B29F48EE691E0A0E0B0E00E
:1002200004C08DE691E0A0E0B0E0A81AB90ACA0ABD
:10023000DB0A980187010A191B092C093D09CF0126
:1002400064E670E00E945E0A7C01CF0160E971E023
:100250000E945E0AAC01E7E3F1E060E0613051F436
:100260008114910449F4E114F10441F4411551055C
:1002700029F002C0808103C08CE101C08DE190E0D3
:10028000A0E0B0E0081719072A073B0740F0081B59
:10029000190B2A0B3B0B6F5F31966C30F9F66F5FD1
:1002A0006D83802F8F5F8C83DF91CF911F910F9192
:1002B000FF90EF90DF90CF90BF90AF909F908F9086
:1002C0000895EF92FF920F931F937B018C01809111
:1002D000650190916601A0916701B0916801E816EF
:1002E000F9060A071B0771F0C801B7014AE551E09A
:1002F0000E945F00E0926501F09266010093670141
:10030000109368011F910F91FF90EF9008956093F3
:1003100050017093510180935201909353012091A9
:100320002F01309130014091310150913201260F5F
:10033000371F481F591F2093540130935501409394
:1003400056015093570182E090E0909359018093B9
:1003500058010E9470046093610170936201809360
:100360006301909364010895EF92FF920F931F939E
:100370001CC02F5F3F4F4F4F5F4F20935001309372
:100380005101409352015093530188EE93E0A0E055
:10039000B0E0E80EF91E0A1F1B1FE0926101F09207
:1003A000620100936301109364010E947004E09065
:1003B0006101F090620100916301109164016E1976
:1003C0007F09800B910B2091500130915101409198
:1003D000520150915301685E73408040904048F64E
:1003E0008091540190915501A0915601B09157010F
:1003F000281739074A075B07E8F0E0914E01F091B2
:100400004F013097B9F00995611571058105910586
:1004100019F00E9487010EC020E030E08091580161
:1004200090915901892B11F021E030E0309359016E
:1004300020935801609150017091510180915201B7
:10044000909153011F910F91FF90EF9008950E949A
:10045000B4010E94610180915A0190E00895EF92E9
:10046000FF920F931F936091790170917A018091AF
:100470007B0190917C010E942A0920E034E244E74C
:1004800059E40E94DC097B018C0160917501709137
:10049000760180917701909178010E942A099B0151
:1004A000AC01C801B7010E94910860937D0170936F
:1004B0007E0180937F019093800120E030E040E254
:1004C00051E40E94DC096093810170938201809362
:1004D000830190938401109275011092760110921D
:1004E0007701109278011092790110927A0110929E
:1004F0007B0110927C0180E09AECAAE9BBE3809337
:10050000330190933401A0933501B09336011F91CC
:100510000F91FF90EF900895EF92FF920F931F932A
:10052000F8940E947E046093690170936A0180933D
:100530006B0190936C0120916D0130916E0140919F
:100540006F01509170017B018C01E21AF30A040BD8
:10055000150BE0927101F0927201009373011093F8
:10056000740160936D0170936E0180936F0190939D
:1005700070018091750190917601A0917701B09101
:1005800078018E0D9F1DA01FB11F80937501909360
:100590007601A0937701B0937801809179019091D1
:1005A0007A01A0917B01B0917C010196A11DB11D42
:1005B0008093790190937A01A0937B01B0937C01A1
:1005C00078941F910F91FF90EF900895EF92FF9212
:1005D0000F931F930E942F02E0908101F0908201FF
:1005E00000918301109184016091890170918A01C9
:1005F00080918B0190918C01A80197010E9429089C
:1006000060938501709386018093870190938801A0
:10061000E0928901F0928A0100938B0110938C0182
:100620000E94270240918D0150918E019A01220F64
:10063000331F220F331F240F351F8217930709F032
:1006400051C0BA01882777FD8095982F0E942C0908
:100650009B01AC01609185017091860180918701B9
:10066000909188010E949108AB01BC0180EB91E060
:100670000E94190810928E0110928D0180E090E086
:10068000A0E0B0E08093850190938601A09387015C
:10069000B09388018093890190938A01A0938B0184
:1006A000B0938C0180EB91E060E071E00E949D06C8
:1006B00060918D0170918E0180EB91E00E948A071C
:1006C00080EB91E060E071E00E949D064091810125
:1006D00050918201609183017091840180EB91E0DF
:1006E0000E941D0880918D0190918E01019690933A
:1006F0008E0180938D011F910F91FF90EF900895CF
:100700000F931F9300EB11E0C80140E855E260E051
:1007100070E00E942005C80162E071E00E94BC0602
:1007200080E06CE872E043E050E00E94AB030E947E
:100730007E0460936D0170936E0180936F019093BE
:1007400070011F910F9108950E94A9040E948003D7
:100750000E94E602FDCF823000F5E82FF0E0EE0FB8
:10076000FF1FE157FE4F71836083882319F08130AA
:10077000A1F408C0809169008C7F842B809369006C
:10078000E89A089580916900440F551F440F551F42
:10079000837F842B80936900E99A08951F920F92BA
:1007A0000FB60F9211242F933F934F935F936F9344
:1007B0007F938F939F93AF93BF93EF93FF9380911A
:1007C0008F0190919001892B29F0E0918F01F09198
:1007D00090010995FF91EF91BF91AF919F918F91FA
:1007E0007F916F915F914F913F912F910F900FBE2D
:1007F0000F901F9018951F920F920FB60F92112411
:100800002F933F934F935F936F937F938F939F9318
:10081000AF93BF93EF93FF938091910190919201D9
:10082000892B29F0E0919101F09192010995FF91B6
:10083000EF91BF91AF919F918F917F916F915F9158
:100840004F913F912F910F900FBE0F901F901895D1
:100850001F920F920FB60F9211242F933F938F93F5
:100860009F93AF93BF938091970190919801A0912E
:100870009901B0919A0130919B010196A11DB11D82
:10088000232F2D5F2D3720F02D570196A11DB11D6F
:1008900020939B018093970190939801A0939901D5
:1008A000B0939A018091930190919401A091950148
:1008B000B09196010196A11DB11D80939301909373
:1008C0009401A0939501B0939601BF91AF919F9130
:1008D0008F913F912F910F900FBE0F901F90189501
:1008E0008FB7F89420919701309198014091990128
:1008F00050919A018FBFB901CA0108956FB7F8945A
:1009000086B590E0A0E0B0E0A89B08C00097A105E4
:10091000B10521F480E091E0A0E0B0E020919301E6
:100920003091940140919501509196016FBF542FE1
:10093000432F322F2227280F391F4A1F5B1F82E0C7
:10094000220F331F441F551F8A95D1F7B901CA01E1
:100950000895789484B5826084BD84B5816084BD37
:1009600085B5826085BD85B5816085BDEEE6F0E028
:10097000808181608083E1E8F0E080818260808313
:10098000808181608083E0E8F0E080818160808305
:10099000E1EBF0E0808184608083E0EBF0E0808137
:1009A00081608083EAE7F0E08081846080838081D9
:1009B0008260808380818160808380818068808381
:1009C0001092C10008951F920F920FB60F9211243A
:1009D0002F933F934F935F936F937F938F939F9347
:1009E000AF93BF93EF93FF934091C600E091AC01AA
:1009F000F091AD01CF01019660E170E00E945E0AC6
:100A00009C018091AE019091AF012817390739F010
:100A1000E456FE4F40833093AD012093AC01FF912B
:100A2000EF91BF91AF919F918F917F916F915F9166
:100A30004F913F912F910F900FBE0F901F901895DF
:100A40005F926F927F928F929F92AF92BF92CF925E
:100A5000DF92EF92FF920F931F93CF93DF93EC01FE
:100A60003A014B01413482E458078FE0680780E087
:100A700078070CF07FC060E874E88EE190E0A40194
:100A800093010E94930A2150304040405040CA01D7
:100A9000B90122E030E040E050E00E94930A5901A1
:100AA0006A01A6019501209530954095509594E0F6
:100AB000220F331F441F551F9A95D1F760E074E24F
:100AC00084EF90E00E94930ACA01B9012FEF30E051
:100AD00040E050E00E943F0AA40193010E94930A63
:100AE000C90181509F4F181619061CF4522E5A94B2
:100AF00003C055245394521A60E079E08DE390E0EE
:100B0000A40193010E94930A21503040404050407C
:100B1000CA01B90122E030E040E050E00E94930AAF
:100B2000209530954095509583E0220F331F441F48
:100B3000551F8A95D1F760E074E284EF90E00E943F
:100B4000930ACA01B9012FEF30E040E050E00E9463
:100B50003F0AA40193010E94930AC90181509F4F4B
:100B6000181619061CF4822F815002C081E0821BE6
:100B7000851500F5E885F98581E090E00A8802C0D6
:100B8000880F991F0A94E2F7808360E079E08DE393
:100B900090E0A40193010E94930A2150304040400C
:100BA0005040CA01B90122E030E040E050E00E942C
:100BB000930A04C0E885F98510829501EC81FD81D6
:100BC0003083EE81FF812083EA85FB85208141E02F
:100BD00050E0CA010E8402C0880F991F0A94E2F700
:100BE000282B2083EA85FB852081CA010F8402C05F
:100BF000880F991F0A94E2F7282B2083EA85FB854A
:100C00008081088802C0440F551F0A94E2F7842BA4
:100C10008083DF91CF911F910F91FF90EF90DF9034
:100C2000CF90BF90AF909F908F907F906F905F908C
:100C30000895FC01A085B18521898C9190E0022E58
:100C400002C0959587950A94E2F780FFF6CF048459
:100C5000F585E02D6083089587E491E09093B101DC
:100C60008093B0018CE991E09093B3018093B2013D
:100C700085EC90E09093B5018093B40184EC90E012
:100C80009093B7018093B60180EC90E09093B90106
:100C90008093B80181EC90E09093BB018093BA01FE
:100CA00086EC90E09093BD018093BC0184E080933A
:100CB000BE0183E08093BF0187E08093C00185E09F
:100CC0008093C10181E08093C20108950F931F9327
:100CD000CF93DF938C01EB0109C02196D801ED91F0
:100CE000FC910190F081E02DC8010995688166238F
:100CF000A1F7DF91CF911F910F910895EF92FF928D
:100D00000F931F93CF93DF938C017B01EA010CC0FB
:100D1000D7016D917D01D801ED91FC910190F08199
:100D2000E02DC80109952197209791F7DF91CF9188
:100D30001F910F91FF90EF900895DC01ED91FC91D0
:100D40000280F381E02D099508950F931F938C0184
:100D5000DC01ED91FC910190F081E02D6DE00995B1
:100D6000D801ED91FC910190F081E02DC8016AE07D
:100D700009951F910F9108950F931F938C010E9465
:100D80009D06C8010E94A5061F910F9108952F92FC
:100D90003F924F925F926F927F928F929F92AF920B
:100DA000BF92CF92DF92EF92FF920F931F93DF9348
:100DB000CF93CDB7DEB7A0970FB6F894DEBF0FBEC6
:100DC000CDBF1C016A017B0141155105610571050B
:100DD00049F4DC01ED91FC910190F081E02D60E39C
:100DE000099554C0882499245401422E5524662420
:100DF000772401E010E00C0F1D1F080D191DC7011D
:100E0000B601A30192010E94710AF801608308945F
:100E1000811C911CA11CB11CC701B601A301920148
:100E20000E94710AC901DA016C017D01C114D1046B
:100E3000E104F104F1F681E0E82EF12CEC0EFD1E48
:100E4000E80CF91C3E010894611C711CD501C40119
:100E50000197A109B1096C01C818D90814C0F6019D
:100E6000EE0DFF1D60816A3010F4605D01C0695CA9
:100E7000D101ED91FC910190F081E02DC101099526
:100E80000894E108F1086E147F0449F7A0960FB6A4
:100E9000F894DEBF0FBECDBFCF91DF911F910F91B0
:100EA000FF90EF90DF90CF90BF90AF909F908F908A
:100EB0007F906F905F904F903F902F9008952AE021
:100EC0000E94C7060895EF92FF920F931F93CF934E
:100ED000DF93EC017A018B0177FF0FC0E881F98184
:100EE0000190F081E02D6DE2099510950095F09448
:100EF000E094E11CF11C011D111DCE01B801A701F8
:100F00002AE00E94C706DF91CF911F910F91FF90B9
:100F1000EF900895AB01662757FD6095762F0E94EC
:100F2000630708959F92AF92BF92CF92DF92EF92A4
:100F3000FF920F931F93CF93DF93EC017A018B0104
:100F4000922ECB01BA0120E030E040E050E00E9458
:100F50008D08882364F4E881F9810190F081E02D07
:100F6000CE016DE2099517FB109517F9109520E059
:100F700030E040E05FE3AA240BC0CA01B90120E0E1
:100F800030E040E251E40E9491089B01AC01A3943F
:100F9000A91498F3C801B7010E9429085B016C01EC
:100FA0000E94FE087B018C01CE01B801A7010E94BE
:100FB0005F07992029F0CE016DE271E00E949D0645
:100FC000C801B7010E942A099B01AC01C601B50105
:100FD0000E94280820C020E030E040E251E40E9456
:100FE000DC097B018C010E94F9085B016C01CC24B7
:100FF000B7FCC094DC2CCE01B601A5010E946307AA
:10100000C601B5010E942C099B01AC01C801B701C2
:101010000E9428089A949920F1F6DF91CF911F91B0
:101020000F91FF90EF90DF90CF90BF90AF909F9087
:10103000089522E00E94920708950F931F938C0158
:101040000E941908C8010E94A5061F910F910895DA
:101050005058BB27AA270ED075C166D130F06BD18E
:1010600020F031F49F3F11F41EF45BC10EF4E095C3
:10107000E7FB51C1E92F77D180F3BA1762077307F5
:101080008407950718F071F49EF58FC10EF4E09572
:101090000B2EBA2FA02D0B01B90190010C01CA0132
:1010A000A0011124FF27591B99F0593F50F4503EDD
:1010B00068F11A16F040A22F232F342F4427585FCF
:1010C000F3CF469537952795A795F0405395C9F7E7
:1010D0007EF41F16BA0B620B730B840BBAF091509F
:1010E000A1F0FF0FBB1F661F771F881FC2F70EC03E
:1010F000BA0F621F731F841F48F487957795679511
:10110000B795F7959E3F08F0B3CF9395880F08F0F9
:101110009927EE0F979587950895D9D008F481E027
:1011200008950CD00FC107D140F0FED030F021F46B
:101130005F3F19F0F0C0511139C1F3C014D198F3D9
:101140009923C9F35523B1F3951B550BBB27AA2748
:1011500062177307840738F09F5F5F4F220F331FBA
:10116000441FAA1FA9F333D00E2E3AF0E0E830D086
:1011700091505040E695001CCAF729D0FE2F27D089
:10118000660F771F881FBB1F261737074807AB0757
:10119000B0E809F0BB0B802DBF01FF2793585F4FCC
:1011A0002AF09E3F510568F0B6C000C15F3FECF3E6
:1011B000983EDCF3869577956795B795F7959F5F91
:1011C000C9F7880F911D9695879597F90895E1E0E5
:1011D000660F771F881FBB1F621773078407BA0744
:1011E00020F0621B730B840BBA0BEE1F88F7E0959F
:1011F000089504D06894B111D9C00895BCD088F086
:101200009F5790F0B92F9927B751A0F0D1F0660FF2
:10121000771F881F991F1AF0BA95C9F712C0B1300D
:1012200081F0C3D0B1E00895C0C0672F782F882720
:10123000B85F39F0B93FCCF3869577956795B3954C
:10124000D9F73EF490958095709561957F4F8F4FBB
:101250009F4F0895E89409C097FB3EF490958095C0
:10126000709561957F4F8F4F9F4F9923A9F0F92F6C
:1012700096E9BB279395F695879577956795B795EA
:10128000F111F8CFFAF4BB0F11F460FF1BC06F5FD0
:101290007F4F8F4F9F4F16C0882311F096E911C0E2
:1012A000772321F09EE8872F762F05C0662371F003
:1012B00096E8862F70E060E02AF09A95660F771F17
:1012C000881FDAF7880F9695879597F90895990FF3
:1012D0000008550FAA0BE0E8FEEF16161706E80700
:1012E000F907C0F012161306E407F50798F0621B21
:1012F000730B840B950B39F40A2661F0232B242BF6
:10130000252B21F408950A2609F4A140A6958FEF14
:10131000811D811D089597F99F6780E870E060E066
:1013200008959FEF80EC089500240A94161617067E
:1013300018060906089500240A94121613061406C6
:1013400005060895092E0394000C11F4882352F029
:10135000BB0F40F4BF2B11F460FF04C06F5F7F4FE1
:101360008F4F9F4F089557FD9058440F551F59F0C8
:101370005F3F71F04795880F97FB991F61F09F3F82
:1013800079F087950895121613061406551FF2CFAB
:101390004695F1DF08C0161617061806991FF1CFFB
:1013A00086957105610508940895E894BB27662722
:1013B0007727CB0197F908950BD0C4CFB5DF28F07C
:1013C000BADF18F0952309F0A6CFABCF1124EECFEA
:1013D000CADFA0F3959FD1F3950F50E0551F629F90
:1013E000F001729FBB27F00DB11D639FAA27F00D7E
:1013F000B11DAA1F649F6627B00DA11D661F829FA5
:101400002227B00DA11D621F739FB00DA11D621F89
:10141000839FA00D611D221F749F3327A00D611DA6
:10142000231F849F600D211D822F762F6A2F112488
:101430009F5750408AF0E1F088234AF0EE0FFF1FDB
:10144000BB1F661F771F881F91505040A9F79E3F12
:10145000510570F060CFAACF5F3FECF3983EDCF30C
:10146000869577956795B795F795E7959F5FC1F74F
:10147000FE2B880F911D9695879597F90895629F89
:10148000D001739FF001829FE00DF11D649FE00D7C
:10149000F11D929FF00D839FF00D749FF00D659FDD
:1014A000F00D9927729FB00DE11DF91F639FB00DDC
:1014B000E11DF91FBD01CF011124089597FB092EED
:1014C00007260AD077FD04D049D006D000201AF4B0
:1014D000709561957F4F0895F6F7909581959F4F90
:1014E0000895A1E21A2EAA1BBB1BFD010DC0AA1F65
:1014F000BB1FEE1FFF1FA217B307E407F50720F07D
:10150000A21BB30BE40BF50B661F771F881F991FF7
:101510001A9469F760957095809590959B01AC0140
:10152000BD01CF01089597FB092E05260ED057FD6A
:1015300004D0D7DF0AD0001C38F450954095309580
:1015400021953F4F4F4F5F4F0895F6F79095809547
:10155000709561957F4F8F4F9F4F0895AA1BBB1BBE
:1015600051E107C0AA1FBB1FA617B70710F0A61BA3
:10157000B70B881F991F5A95A9F780959095BC01C4
:10158000CD010895EE0FFF1F0590F491E02D099411
:04159000F894FFCFFD
:1015940009000A0A41726475477269642056312051
:1015A4002D204D657263696E61744C6162732028ED
:1015B4003330204E6F76203230313129002E002C0A
:1015C40001000000CA9A3B1F1C1F1E1F1E1F1F1E66
:0E15D4001F1E1F00000000190666067E06009E
:00000001FF
