:100000000C94AC000C94D4000C94D4000C94180400
:100010000C9442040C946C040C94D4000C94D40002
:100020000C94D4000C94D4000C94D4000C94D40000
:100030000C94D4000C94D4000C94D4000C94D400F0
:100040000C943A090C94D4000C947F0A0C94D400BC
:100050000C94D4000C94D4000C94D4000C94D400D0
:100060000C94D4000C94D40000C2010001001100D3
:1000700011000C0000E100000A002500250021000D
:10008000009600001900390039003600127A00008D
:100090001F004600460044008070000022004D0012
:1000A0004D004A00004B00003600750075007200DC
:1000B000403800004A009C009C0099008025000008
:1000C0007200EC00EC00E900C0120000E900DA0167
:1000D000DA01D70160090000D701B603B603B30304
:1000E000B0040000B3036E076E076B072C0100001D
:1000F000DC0EC11DC11DBE1D000000002400270034
:100100002A0000000000250028002B00000000004D
:100110002300260029000404040404040404020249
:100120000202020203030303030301020408102076
:100130004080010204081020010204081020000081
:100140000007000201000003040600000000000098
:1001500000002207C80B1B0711241FBECFEFD8E0F9
:10016000DEBFCDBF11E0A0E0B1E0EEEFFEE102C0E6
:1001700005900D92A035B107D9F712E0A0E5B1E0E6
:1001800001C01D92A930B107E1F711E0C6E5D1E049
:1001900004C02297FE010E946E0FC235D107C9F735
:1001A0000E9433090C94720F0C9400008F929F925E
:1001B000AF92BF92CF92DF92EF92FF920F931F9375
:1001C000CF93DF937B018C01EA012CE330E040E028
:1001D00050E00E941B0F6883C801B7012CE330E098
:1001E00040E050E00E941B0F122F032FF42EE52E4B
:1001F000622F732F842F952F2CE330E040E050E0E6
:100200000E941B0F6983612F702F8F2D9E2D2CE371
:1002100030E040E050E00E941B0F122F032FF42E1D
:10022000E52E622F732F842F952F28E130E040E0D8
:1002300050E00E941B0F6A83612F702F8F2D9E2D1F
:1002400028E130E040E050E00E941B0F79018A0174
:10025000C801B7016C5F7F4F8F4F9F4F27E030E0A1
:1002600040E050E00E941B0F6F5F6B8320E0AA24E8
:10027000BB24650101C02F5F822E9924F401EE5446
:10028000F84FCF0183709070892B99F4CF0164E609
:1002900070E00E94080F892B39F4CF0160E971E00A
:1002A0000E94080F892B29F48EE691E0A0E0B0E0CF
:1002B00004C08DE691E0A0E0B0E0A80EB91ECA1E11
:1002C000DB1EC501A0E0B0E0E816F9060A071B072F
:1002D00090F62E83F401EE54F84F83E0882E912C93
:1002E0008E229F228114910499F4CF0164E670E07C
:1002F0000E94080F892B39F4CF0160E971E00E9458
:10030000080F892B29F48EE691E0A0E0B0E004C04C
:100310008DE691E0A0E0B0E0A81AB90ACA0ADB0AAB
:10032000980187010A191B092C093D09CF0164E6D0
:1003300070E00E94080F7C01CF0160E971E00E942B
:10034000080FAC01EFE2F1E060E0613051F481149C
:10035000910449F4E114F10441F44115510529F0E7
:1003600002C0808103C08CE101C08DE190E0A0E07B
:10037000B0E0081719072A073B0740F0081B190BC4
:100380002A0B3B0B6F5F31966C30F9F66F5F6D8314
:10039000802F8F5F8C83DF91CF911F910F91FF9002
:1003A000EF90DF90CF90BF90AF909F908F90089587
:1003B000EF92FF920F931F937B018C018091670155
:1003C00090916801A0916901B0916A01E816F9065F
:1003D0000A071B0771F0C801B7014CE551E00E9404
:1003E000D600E0926701F0926801009369011093D2
:1003F0006A011F910F91FF90EF9008954F925F92C5
:100400006F927F928F929F92AF92BF92CF92DF9224
:10041000EF92FF920F931F93CF93DF934C01DC0178
:1004200016961C91612F70E080E090E020E833E3A5
:1004300041EE51E00E94E90E5B016C0122EB37E0D6
:10044000E12FF0E0EE54F84F1DC0C90183709070A9
:10045000892BB1F4C90164E670E00E94080F892B72
:1004600039F4C90160E971E00E94080F892B41F459
:1004700080E891E5A1E0B0E0A80EB91ECA1EDB1E1F
:100480002F5F3F4F2E173F0701F7D40115968C9130
:10049000482E5524C90164E670E00E94080F7C01D3
:1004A000C90160E971E00E94080F8C01C1E0D0E051
:1004B00093E0692E712C6222732227C0C230D105CD
:1004C00091F46114710479F4E114F10419F4011543
:1004D000110549F480E89BE3A6E2B0E0A80EB91E3E
:1004E000CA1EDB1E11C0FE01E25DFE4F608170E09E
:1004F00080E090E020E831E541E050E00E94E90E24
:10050000A60EB71EC81ED91E2196C415D505B4F275
:10051000D40112966C9170E080E090E020E13EE022
:1005200040E050E00E94E90E7B018C01F401618102
:1005300070E080E090E02CE330E040E050E00E948A
:10054000E90EE60EF71E081F191FD4018C91E80E64
:10055000F11C011D111D14966C9170E061507040EA
:10056000882777FD8095982F20E831E541E050E01D
:100570000E94E90EE60EF71E081F191FEA0CFB1C6D
:100580000C1D1D1DB701C801DF91CF911F910F9167
:10059000FF90EF90DF90CF90BF90AF909F908F90A3
:1005A0007F906F905F904F90089560935201709389
:1005B000530180935401909355012091260130916D
:1005C00027014091280150912901260F371F481F0C
:1005D000591F20935601309357014093580150936F
:1005E000590182E090E090935B0180935A010E9450
:1005F0008209609363017093640180936501909315
:1006000066010895EF92FF920F93F701E436F1052A
:100610001CF0E25BF74001C07E96E093620100931C
:1006200061012093600180935E0160935D014093BE
:100630005C018CE591E00E94FE010E94D5020F91C1
:10064000FF90EF900895EF92FF920F931F931CC0BD
:100650002F5F3F4F4F4F5F4F209352013093530115
:10066000409354015093550188EE93E0A0E0B0E030
:10067000E80EF91E0A1F1B1FE0926301F09264014D
:1006800000936501109366010E948209E090630166
:10069000F090640100916501109166016E197F0967
:1006A000800B910B209152013091530140915401E4
:1006B00050915501685E73408040904048F68091AB
:1006C000560190915701A0915801B09159012817F6
:1006D00039074A075B07E8F0E0915001F0915101BA
:1006E0003097B9F00995611571058105910519F0EB
:1006F0000E94D5020EC020E030E080915A01909116
:100700005B01892B11F021E030E030935B012093F5
:100710005A0160915201709153018091540190915E
:1007200055011F910F91FF90EF9008950E942303B0
:100730000E94D80180915C0190E008950E942303FB
:100740000E94D80180915D0190E008950E942303EA
:100750000E94D80180915E0190E008950F931F934D
:10076000CF93DF93FC01718976957170A481B58177
:100770009381772329F08C91892309F454C004C014
:100780008C91892309F04FC08185928520E00197E3
:100790002FEF8F3F9207D9F7C385D485A481B58108
:1007A000138160E031E040E050E000E0CE01202F16
:1007B00001972FEF8F3F9207D9F78C91812311F08A
:1007C000632B03C0832F80956823330F4F5F5F4FE8
:1007D0004830510559F78585968520E001972FEF20
:1007E0008F3F9207D9F7711160958091AD012091EB
:1007F000AE0190E001968F73907030E082179307FE
:1008000079F0E091AD01F0E0E359FE4F6083809113
:10081000AD0190E001968F7390708093AD0103C09D
:1008200081898160818BDF91CF911F910F91089514
:100830001F920F920FB60F9211242F933F934F9355
:100840005F936F937F938F939F93AF93BF93EF9338
:10085000FF9380916B0190916C01009711F00E94C1
:10086000AE03FF91EF91BF91AF919F918F917F91D7
:100870006F915F914F913F912F910F900FBE0F900D
:100880001F9018951F920F920FB60F9211242F935D
:100890003F934F935F936F937F938F939F93AF9308
:1008A000BF93EF93FF9380916B0190916C01009740
:1008B00011F00E94AE03FF91EF91BF91AF919F9114
:1008C0008F917F916F915F914F913F912F910F90F9
:1008D0000FBE0F901F9018951F920F920FB60F9298
:1008E00011242F933F934F935F936F937F938F9335
:1008F0009F93AF93BF93EF93FF9380916B01909180
:100900006C01009711F00E94AE03FF91EF91BF912F
:10091000AF919F918F917F916F915F914F913F9197
:100920002F910F900FBE0F901F901895CF92DF92CE
:10093000EF92FF920F931F93CF93DF93EC017A0115
:100940008B01188A1F861E861D861C861B861A86AA
:10095000198620E030E06901CC0CDD1CC20ED31EEC
:10096000B601660F771F660F771FAB0148595F4FBF
:10097000FA0185919591A591B4918E159F05A007D7
:10098000B107E9F4FB01E459FF4F859194919A87EF
:100990008987FB01E259FF4F859194919C878B8752
:1009A000FB01E059FF4F859194919E878D87FB0154
:1009B000EE58FF4F85919491988B8F8706C02F5FDB
:1009C0003F4F2C30310509F0C6CF8D859E85892B90
:1009D00009F449C04A81463108F03DC09091680051
:1009E000483010F484E005C04E3010F082E001C0C1
:1009F00081E0892B80936800483028F4EDE6F0E030
:100A0000ADE6B0E00BC04E3028F0ECE6F0E0ACE62E
:100A1000B0E004C0EBE6F0E0ABE6B0E05081483077
:100A200040F481E090E002C0880F991F4A95E2F7F8
:100A300010C0242F30E04E3018F42850304002C04F
:100A40002E50304081E090E002C0880F991F2A9517
:100A5000E2F7852B8C938F85988920E001972FEF03
:100A60008F3F9207D9F780916B0190916C018C17A1
:100A70009D0781F089898E7F898B9FB7F8941092AA
:100A8000AD018091AD018093AE01D0936C01C09314
:100A90006B019FBFDF91CF911F910F91FF90EF905E
:100AA000DF90CF900895FC014281463180F54830B7
:100AB00028F4EDE6F0E0ADE6B0E00BC04E3028F4EF
:100AC000EBE6F0E0ABE6B0E004C0ECE6F0E0ACE66C
:100AD000B0E05081483040F481E090E002C0880FDF
:100AE000991F4A95E2F710C0242F30E04E3018F4D9
:100AF0002850304002C02E50304081E090E002C0CB
:100B0000880F991F2A95E2F7809585238C93089585
:100B1000FC018FE391E091838083CF010E94530514
:100B20000895FC0180916B0190916C018E179F07D5
:100B300089F081898E7F818B9FB7F8941092AD01E7
:100B40008091AD018093AE01F0936C01E0936B0155
:100B50009FBF06C09091AE018091AD01981719F426
:100B60002FEF3FEF0FC0E091AE01F0E0E359FE4FF1
:100B700020818091AE0190E001968F7390708093F8
:100B8000AE0130E0C90108950F931F93DC011F9659
:100B90008D919C915097892B09F4B6C080916B017F
:100BA00090916C018A179B07A1F051968C915197F7
:100BB0008E7F51968C9351979FB7F8941092AD0108
:100BC0008091AD018093AE01B0936C01A0936B0155
:100BD0009FBF0FB7F89451968C9151971796ED914E
:100BE000FC91189716962C91169781FF88C08081EA
:100BF000822B80831F968D919C915097059620E0C3
:100C000001972FEF8F3F9207D9F751968C9151970B
:100C100081FF35C031E040E050E070E010E0832F0C
:100C200090E0862397231796ED91FC9118971696DE
:100C30002C911697892B29F08081209528232083D9
:100C400003C08081822B80831F968D919C91509749
:100C5000212F01972FEF8F3F9207D9F7330F4F5F67
:100C60005F4F48305105D9F61796ED91FC911897D2
:100C7000908116968C9116978095892333C031E028
:100C800040E050E070E010E0832F90E0862397234F
:100C90001796ED91FC91189716962C911697892B23
:100CA00021F08081822B808304C0808120952823BD
:100CB00020831F968D919C915097212F01972FEFA4
:100CC0008F3F9207D9F7330F4F5F5F4F4830510581
:100CD000D9F61796ED91FC911897808116969C9104
:100CE0001697892B80830FBF1F968D919C915097EB
:100CF00020E001972FEF8F3F9207D9F705C0808141
:100D000020952823208376CF1F910F9108951F935C
:100D1000CF93DF93EC01162F862F60E00E94120A1A
:100D2000898981FD04C0812F61E00E94320A1A8303
:100D3000212F30E0C901865D9E4FFC0184918B8399
:100D40002A5E3E4FF9016491E62FF0E0EE0FFF1F9F
:100D5000E45FFE4F859194919D838C83DF91CF91C9
:100D60001F910895FF920F931F938C01F62E862FEB
:100D700061E00E94120A8F2D61E00E94320A8F2DDD
:100D800090E0FC01E65DFE4FE491D8011696EC93ED
:100D900016978A5E9E4FFC016491E62FF0E0EE0FFD
:100DA000FF1FEE5FFE4F8591949118969C938E9352
:100DB00017971F910F91FF900895FF920F931F9324
:100DC0008C01F62E8FE391E0F801918380831286E7
:100DD00011861486138616861586108A17868189D1
:100DE0002170220F8C7F822B818BC801642F0E947F
:100DF000B206C8016F2D0E9487061F910F91FF90C8
:100E000008958130910569F46F5F7F4F99F487EC05
:100E100091E060912A0140912C0120E00E94DD06C2
:100E20000895892B39F46F5F7F4F21F487EC91E0AF
:100E30000E948805089580E090E06FEF7FEF0E94A8
:100E40000107089581E090E06FEF7FEF0E940107B6
:100E50000895EF92FF920F931F930E94A603BC0187
:100E600007EC11E0C8010E94220D80E0E82E81E02D
:100E7000F82EC801B7010E94390C0E949E03BC01E4
:100E8000C8010E94220DC801B7010E94390C0E94BE
:100E90009603BC01C8010E94220DC801B7010E943F
:100EA000390C6091BB017091BC018091BD019091A2
:100EB000BE010E949F0D9B01AC01C801B9010E94B7
:100EC000220DC801B7010E94390C6091BF017091D9
:100ED000C0018091C1019091C2010E949F0D9B01B0
:100EE000AC01C801B9010E94220DC801B7010E94DE
:100EF000390C6091C3017091C4018091C50190913A
:100F0000C6010E949F0D9B01AC01C801B9010E945E
:100F10002A0D1F910F91FF90EF900895AF92BF920D
:100F2000CF92DF92EF92FF920F931F9381E00E9486
:100F3000F409AA2797FDA095BA2FBC01CD010E9404
:100F4000D20D6093AF017093B0018093B101909383
:100F5000B20182E00E94F409AA2797FDA095BA2F5A
:100F6000BC01CD010E94D20D6093B3017093B40116
:100F70008093B5019093B60183E00E94F409AA27FB
:100F800097FDA095BA2FBC01CD010E94D20D5B0147
:100F90006C016093B7017093B8018093B90190938D
:100FA000BA016091AF017091B0018091B10190914F
:100FB000B20120E030E048EC53E40E943A0D7B019E
:100FC0008C0120E030E040E050E00E94820E1816D4
:100FD0003CF4C801B70126E636E646E65FE306C004
:100FE000C801B70126E636E646E65FEB0E94860EAC
:100FF00020E030E044EB52E40E943B0DE62F2E2F20
:10100000372F482F592FC901DA018093BB019093E4
:10101000BC01A093BD01B093BE016091B30170917A
:10102000B4018091B5019091B60120E030E048EC28
:1010300053E40E943A0D7B018C0120E030E040E057
:1010400050E00E94820E18163CF4C801B70126E653
:1010500036E646E65FE306C0C801B70126E636E697
:1010600046E65FEB0E94860E20E030E044EB52E45F
:101070000E943B0DE62F2E2F372F482F592FC901E5
:10108000DA018093BF019093C001A093C101B09396
:10109000C201C601B50120E030E048EC53E40E94F3
:1010A0003A0D7B018C0120E030E040E050E00E94EE
:1010B000820E18163CF4C801B70126E636E646E66D
:1010C0005FE306C0C801B70126E636E646E65FEBF9
:1010D0000E94860E20E030E044EB52E40E943B0D7B
:1010E000E62F2E2F372F482F592FC901DA01809371
:1010F000C3019093C401A093C501B093C6010E949F
:1011000029071F910F91FF90EF90DF90CF90BF9034
:10111000AF90089586EF91E062E071E00E94580C74
:1011200064EF71E080E090E00E94900987EC91E02C
:1011300062E071E00E94580C64EF71E080E090E0A2
:101140000E94900986EF91E06BE071E00E94580CDC
:1011500064EF71E080E090E00E94900987EC91E0FC
:101160006BE071E00E94580C64EF71E080E090E069
:101170000E94900986EF91E063E171E00E94580CB3
:1011800064EF71E080E090E00E94900987EC91E0CC
:1011900063E171E00E94580C64EF71E080E090E040
:1011A0000E94900986EF91E06BE071E00E94580C7C
:1011B00064EF71E080E090E00E94900987EC91E09C
:1011C0006BE071E00E94580C64EF71E080E090E009
:1011D0000E94900986EF91E06FE171E00E94580C47
:1011E00064EF71E080E090E00E94900987EC91E06C
:1011F0006FE171E00E94580C60ED77E080E090E0D4
:101200000E94900987EC91E00E9491058B3411F7C0
:101210000895EF92FF920F931F9380E090E060E0BB
:1012200070E040E050E021E030E001E010E0EDE06F
:10123000EE2EF12C0E94020386EF91E040E056E989
:1012400060E070E00E94BC0A87EC91E040E056E963
:1012500060E070E00E9496040E948A081F910F913E
:10126000FF90EF9008950E94BA090E9409090E9418
:101270008E07FDCF1F920F920FB60F9211242F935E
:101280003F938F939F93AF93BF938091DD01909194
:10129000DE01A091DF01B091E0013091E101019602
:1012A000A11DB11D232F2D5F2D3720F02D57019645
:1012B000A11DB11D2093E1018093DD019093DE011A
:1012C000A093DF01B093E0018091D9019091DA0100
:1012D000A091DB01B091DC010196A11DB11D8093AD
:1012E000D9019093DA01A093DB01B093DC01BF91A7
:1012F000AF919F918F913F912F910F900FBE0F90C3
:101300001F9018958FB7F8942091DD013091DE0180
:101310004091DF015091E0018FBFB901CA010895EA
:10132000EF92FF920F931F937B018C018FB7F8947C
:101330004091DD015091DE016091DF017091E0018B
:101340008FBF2FB7F8948091DD019091DE01A091BD
:10135000DF01B091E0012FBF841B950BA60BB70BEB
:10136000E816F9060A071B0760F71F910F91FF9017
:10137000EF900895789484B5826084BD84B58160CF
:1013800084BD85B5826085BD85B5816085BDEEE68D
:10139000F0E0808181608083E1E8F0E0808182601C
:1013A0008083808181608083E0E8F0E080818160DB
:1013B0008083E1EBF0E0808184608083E0EBF0E00B
:1013C000808181608083EAE7F0E0808184608083AF
:1013D0008081826080838081816080838081806859
:1013E00080831092C10008958F7090912E01929584
:1013F000990F990F907C982B90937C0080917A00A4
:10140000806480937A0080917A0086FDFCCF2091E1
:10141000780040917900942F80E030E0282B392B20
:10142000C9010895282F30E0C901865D9E4FFC0157
:1014300094912A5E3E4FF9018491882391F0E82F20
:10144000F0E0EE0FFF1FE850FF4FA591B491662327
:1014500029F48C91909589238C9308958C91892BF4
:101460008C930895482F50E0CA01825C9E4FFC0186
:101470002491CA01865D9E4FFC0194914A5E5E4FA5
:10148000FA0134913323D1F1222331F1233021F4B5
:10149000809180008F7705C0243031F480918000E6
:1014A0008F7D8093800018C0213019F484B58F7728
:1014B00004C0223021F484B58F7D84BD0DC0263058
:1014C00021F48091B0008F7705C0273029F48091F6
:1014D000B0008F7D8093B000E32FF0E0EE0FFF1F90
:1014E000EE5FFE4FA591B491662329F48C919095FF
:1014F00089238C9308958C91892B8C9308951F9246
:101500000F920FB60F9211242F933F934F935F9337
:101510006F937F938F939F93AF93BF93EF93FF93BB
:101520004091C600E091F201F091F301CF010196E4
:1015300060E170E00E94080F9C018091F40190919D
:10154000F5012817390739F0EE51FE4F40833093EB
:10155000F3012093F201FF91EF91BF91AF919F9121
:101560008F917F916F915F914F913F912F910F904C
:101570000FBE0F901F9018955F926F927F928F927F
:101580009F92AF92BF92CF92DF92EF92FF920F9312
:101590001F93CF93DF93EC013A014B01413482E476
:1015A00058078FE0680780E078070CF07FC060E89C
:1015B00074E88EE190E0A40193010E943D0F215058
:1015C000304040405040CA01B90122E030E040E0E4
:1015D00050E00E943D0F59016A01A6019501209536
:1015E00030954095509594E0220F331F441F551FAE
:1015F0009A95D1F760E074E284EF90E00E943D0F8D
:10160000CA01B9012FEF30E040E050E00E94E90E3E
:10161000A40193010E943D0FC90181509F4F1816EC
:1016200019061CF4522E5A9403C055245394521A8E
:1016300060E079E08DE390E0A40193010E943D0F0A
:101640002150304040405040CA01B90122E030E012
:1016500040E050E00E943D0F209530954095509518
:1016600083E0220F331F441F551F8A95D1F760E096
:1016700074E284EF90E00E943D0FCA01B9012FEFA0
:1016800030E040E050E00E94E90EA40193010E9486
:101690003D0FC90181509F4F181619061CF4822F67
:1016A000815002C081E0821B851500F5E885F9852F
:1016B00081E090E00A8802C0880F991F0A94E2F73F
:1016C000808360E079E08DE390E0A40193010E94C3
:1016D0003D0F2150304040405040CA01B90122E046
:1016E00030E040E050E00E943D0F04C0E885F985FD
:1016F00010829501EC81FD813083EE81FF81208392
:10170000EA85FB85208141E050E0CA010E8402C0D9
:10171000880F991F0A94E2F7282B2083EA85FB851E
:101720002081CA010F8402C0880F991F0A94E2F732
:10173000282B2083EA85FB858081088802C0440F1E
:10174000551F0A94E2F7842B8083DF91CF911F917C
:101750000F91FF90EF90DF90CF90BF90AF909F9050
:101760008F907F906F905F900895FC01A085B18568
:1017700021898C9190E0022E02C0959587950A945C
:10178000E2F780FFF6CF0484F585E02D60830895AD
:1017900089E491E09093F7018093F60182EE91E065
:1017A0009093F9018093F80185EC90E09093FB0110
:1017B0008093FA0184EC90E09093FD018093FC010A
:1017C00080EC90E09093FF018093FE0181EC90E02B
:1017D000909301028093000286EC90E090930302C4
:1017E0008093020284E08093040283E080930502E8
:1017F00087E08093060285E08093070281E0809372
:10180000080208950F931F93CF93DF938C01EB0190
:1018100009C02196D801ED91FC910190F081E02D55
:10182000C801099568816623A1F7DF91CF911F91C7
:101830000F910895EF92FF920F931F93CF93DF9331
:101840008C017B01EA010CC0D7016D917D01D801AB
:10185000ED91FC910190F081E02DC801099521974F
:10186000209791F7DF91CF911F910F91FF90EF900B
:101870000895DC01ED91FC910280F381E02D099542
:1018800008950F931F938C01DC01ED91FC91019061
:10189000F081E02D6DE00995D801ED91FC9101906A
:1018A000F081E02DC8016AE009951F910F9108951C
:1018B0000F931F938C010E94390CC8010E94410CA8
:1018C0001F910F9108952F923F924F925F926F92C6
:1018D0007F928F929F92AF92BF92CF92DF92EF92C0
:1018E000FF920F931F93DF93CF93CDB7DEB7A097EF
:1018F0000FB6F894DEBF0FBECDBF1C016A017B019D
:10190000411551056105710549F4DC01ED91FC912A
:101910000190F081E02D60E3099554C0882499245A
:101920005401422E55246624772401E010E00C0F68
:101930001D1F080D191DC701B601A30192010E94C8
:101940001B0FF80160830894811C911CA11CB11C21
:10195000C701B601A30192010E941B0FC901DA0160
:101960006C017D01C114D104E104F104F1F681E0C0
:10197000E82EF12CEC0EFD1EE80CF91C3E0108943B
:10198000611C711CD501C4010197A109B1096C0149
:10199000C818D90814C0F601EE0DFF1D60816A3029
:1019A00010F4605D01C0695CD101ED91FC91019082
:1019B000F081E02DC10109950894E108F1086E1449
:1019C0007F0449F7A0960FB6F894DEBF0FBECDBFD7
:1019D000CF91DF911F910F91FF90EF90DF90CF900B
:1019E000BF90AF909F908F907F906F905F904F903F
:1019F0003F902F900895EF92FF920F931F93CF93F4
:101A0000DF93EC017A018B0177FF0FC0E881F98148
:101A10000190F081E02D6DE2099510950095F0940C
:101A2000E094E11CF11C011D111DCE01B801A701BC
:101A30002AE00E94630CDF91CF911F910F91FF90DC
:101A4000EF900895AB01662757FD6095762F0E94B1
:101A5000FB0C08950F931F938C01AB01662757FD74
:101A60006095762F0E94FB0CC8010E94410C1F91CB
:101A70000F9108955058BB27AA270ED009C1FAD05C
:101A800030F0FFD020F031F49F3F11F41EF4EFC08E
:101A90000EF4E095E7FBE5C0E92F0BD180F3BA1710
:101AA000620773078407950718F071F49EF523C148
:101AB0000EF4E0950B2EBA2FA02D0B01B901900169
:101AC0000C01CA01A0011124FF27591B99F0593FAD
:101AD00050F4503E68F11A16F040A22F232F342FF5
:101AE0004427585FF3CF469537952795A795F04043
:101AF0005395C9F77EF41F16BA0B620B730B840B58
:101B0000BAF09150A1F0FF0FBB1F661F771F881F0F
:101B1000C2F70EC0BA0F621F731F841F48F4879567
:101B200077956795B795F7959E3F08F0B3CF939556
:101B3000880F08F09927EE0F97958795089504D0A0
:101B40006894B111D9C00895BCD088F09F5790F027
:101B5000B92F9927B751A0F0D1F0660F771F881FD2
:101B6000991F1AF0BA95C9F712C0B13081F0C3D0ED
:101B7000B1E00895C0C0672F782F8827B85F39F08B
:101B8000B93FCCF3869577956795B395D9F73EF431
:101B900090958095709561957F4F8F4F9F4F0895D9
:101BA000E89409C097FB3EF49095809570956195F7
:101BB0007F4F8F4F9F4F9923A9F0F92F96E9BB27AD
:101BC0009395F695879577956795B795F111F8CF29
:101BD000FAF4BB0F11F460FF1BC06F5F7F4F8F4F94
:101BE0009F4F16C0882311F096E911C0772321F08A
:101BF0009EE8872F762F05C0662371F096E8862F22
:101C000070E060E02AF09A95660F771F881FDAF778
:101C1000880F9695879597F90895990F0008550FA5
:101C2000AA0BE0E8FEEF16161706E807F907C0F062
:101C300012161306E407F50798F0621B730B840B6A
:101C4000950B39F40A2661F0232B242B252B21F444
:101C500008950A2609F4A140A6958FEF811D811DE4
:101C6000089597F99F6780E870E060E008959FEF1E
:101C700080EC089500240A94161617061806090623
:101C8000089500240A9412161306140605060895F2
:101C9000092E0394000C11F4882352F0BB0F40F47A
:101CA000BF2B11F460FF04C06F5F7F4F8F4F9F4FBA
:101CB000089557FD9058440F551F59F05F3F71F03C
:101CC0004795880F97FB991F61F09F3F79F08795A3
:101CD0000895121613061406551FF2CF4695F1DF2C
:101CE00008C0161617061806991FF1CF86957105BC
:101CF000610508940895E894BB2766277727CB01F0
:101D000097F908958ADF08F48FEF08950BD0C0CFBC
:101D1000B1DF28F0B6DF18F0952309F0A2CFA7CFE6
:101D20001124EACFC6DFA0F3959FD1F3950F50E0C1
:101D3000551F629FF001729FBB27F00DB11D639F7D
:101D4000AA27F00DB11DAA1F649F6627B00DA11D23
:101D5000661F829F2227B00DA11D621F739FB00DC9
:101D6000A11D621F839FA00D611D221F749F332739
:101D7000A00D611D231F849F600D211D822F762FD2
:101D80006A2F11249F5750408AF0E1F088234AF0CF
:101D9000EE0FFF1FBB1F661F771F881F915050401B
:101DA000A9F79E3F510570F05CCFA6CF5F3FECF3E3
:101DB000983EDCF3869577956795B795F795E79507
:101DC0009F5FC1F7FE2B880F911D9695879597F918
:101DD0000895629FD001739FF001829FE00DF11D75
:101DE000649FE00DF11D929FF00D839FF00D749F95
:101DF000F00D659FF00D9927729FB00DE11DF91F41
:101E0000639FB00DE11DF91FBD01CF01112408959D
:101E100097FB092E07260AD077FD04D049D006D0BB
:101E200000201AF4709561957F4F0895F6F790950C
:101E300081959F4F0895A1E21A2EAA1BBB1BFD019D
:101E40000DC0AA1FBB1FEE1FFF1FA217B307E40799
:101E5000F50720F0A21BB30BE40BF50B661F771FF1
:101E6000881F991F1A9469F76095709580959095D1
:101E70009B01AC01BD01CF01089597FB092E0526FA
:101E80000ED057FD04D0D7DF0AD0001C38F450958F
:101E90004095309521953F4F4F4F5F4F0895F6F78E
:101EA00090958095709561957F4F8F4F9F4F0895C6
:101EB000AA1BBB1B51E107C0AA1FBB1FA617B70770
:101EC00010F0A61BB70B881F991F5A95A9F780958C
:101ED0009095BC01CD010895EE0FFF1F0590F49180
:101EE000E02D099411E0C6E5D1E004C0FE010E9496
:0E1EF0006E0F2296C835D107C9F7F894FFCFC0
:101EFE003A0041542B52455345540041542B494E00
:101F0E0049540041542B434C4153533D343000410E
:101F1E00542B494E51002C01000002000300011FFA
:101F2E001C1F1E1F1E1F1F1E1F1E1F00000000C491
:101F3E0005020C1A0C00000000B50B020C1A0C0066
:00000001FF
