:1000000013C037C036C035C034C033C032C031C071
:1000100030C0A4C12EC054C22CC02BC02AC029C0DD
:1000200028C027C026C09B0311241FBECFE5D4E003
:10003000DEBFCDBF10E0A0E6B0E0EEE7FEE002C01C
:1000400005900D92A239B107D9F710E0A2E9B0E00E
:1000500001C01D92AA3DB107E1F710E0C8E2D0E06F
:1000600003C02297FE0105D7C632D107D1F772D15E
:1000700004C7C6CFEF92FF920F931F9307EC10E0D7
:1000800060919E0070919F008091A0009091A100CE
:1000900021D59B01AC01C801B901A2D480E6E82EAC
:1000A00080E0F82EC801B701B7D36091A20070912B
:1000B000A3008091A4009091A5000CD59B01AC01F8
:1000C000C801B9018DD4C801B701A6D36091A600BB
:1000D0007091A7008091A8009091A900FBD49B018A
:1000E000AC01C801B90183D41F910F91FF90EF902B
:1000F0000895AF92BF92CF92DF92EF92FF920F934B
:100100001F9381E0C8D1AA2797FDA095BA2FBC0103
:10011000CD0113D560939200709393008093940067
:100120009093950082E0B7D1AA2797FDA095BA2FAA
:10013000BC01CD0102D56093960070939700809327
:1001400098009093990083E0A6D1AA2797FDA095E7
:10015000BA2FBC01CD01F1D45B016C0160939A0010
:1001600070939B0080939C0090939D0060919200FF
:1001700070919300809194009091950020E030E080
:1001800048EC53E442D47B018C0120E030E040E0B5
:1001900050E083D518163CF4C801B70126E636E6D0
:1001A00046E65FE306C0C801B70126E636E646E646
:1001B0005FEB77D520E030E044EB52E427D4E62F24
:1001C0002E2F372F482F592FC901DA0180939E0017
:1001D00090939F00A093A000B093A100609196001F
:1001E00070919700809198009091990020E030E004
:1001F00048EC53E40AD47B018C0120E030E040E07D
:1002000050E04BD518163CF4C801B70126E636E697
:1002100046E65FE306C0C801B70126E636E646E6D5
:100220005FEB3FD520E030E044EB52E4EFD3E62F24
:100230002E2F372F482F592FC901DA018093A200A2
:100240009093A300A093A400B093A500C601B501AC
:1002500020E030E048EC53E4D8D37B018C0120E06F
:1002600030E040E050E019D518163CF4C801B70161
:1002700026E636E646E65FE306C0C801B70126E695
:1002800036E646E65FEB0DD520E030E044EB52E485
:10029000BDD3E62F2E2F372F482F592FC901DA0152
:1002A0008093A6009093A700A093A800B093A90004
:1002B000E1DE68E873E180E090E0A4D01F910F9147
:1002C000FF90EF90DF90CF90BF90AF900895EF92A6
:1002D000FF920F931F9307EC10E0C80162E670E0F5
:1002E000BAD264EF71E080E090E08CD09BE6E92E1A
:1002F00090E0F92EC801B701AED264EF71E080E062
:1003000090E080D0C80163E770E0A5D264EF71E0AF
:1003100080E090E077D0C801B7019DD264EF71E032
:1003200080E090E06FD0C8016FE770E094D264EF96
:1003300071E080E090E066D01F910F91FF90EF9008
:10034000089587EC90E040E056E960E070E0F3D07B
:10035000BEDF089581D0F5DFCCDEFECF1F920F9275
:100360000FB60F9211242F933F934F935F936F9388
:100370007F938F939F93AF93BF932091AE00309163
:10038000AF004091B0005091B1007091B200DA011D
:10039000C9010296A11DB11D672F6A5F6D3730F04C
:1003A0006D57DA01C9010396A11DB11D6093B2001A
:1003B0008093AE009093AF00A093B000B093B100D3
:1003C0008091AA009091AB00A091AC00B091AD00DB
:1003D0000196A11DB11D8093AA009093AB00A0933C
:1003E000AC00B093AD00BF91AF919F918F917F9181
:1003F0006F915F914F913F912F910F900FBE0F9092
:100400001F901895EF92FF920F931F937B018C0121
:100410008FB7F8944091AE005091AF006091B0005A
:100420007091B1008FBF2FB7F8948091AE0090917A
:10043000AF00A091B000B091B1002FBF841B950B0D
:10044000A60BB70BE816F9060A071B0760F71F9102
:100450000F91FF90EF900895789483B7826083BFE7
:1004600083B7816083BF89B7816089BF8EB58260A1
:100470008EBD8EB581608EBD8FB581608FBD85B517
:10048000846085BD85B5806485BD329A319A309A85
:10049000379A1AB808958F70909186009295990FA7
:1004A000990F907C982B97B9369A3699FECF24B144
:1004B00045B1942F80E030E0282B392BC9010895F5
:1004C0001F920F920FB60F9211242F933F934F93C9
:1004D0005F936F937F938F939F93AF93BF93EF93AC
:1004E000FF934CB1E091C300F091C400CF0101969D
:1004F00060E170E058D49C018091C5009091C600E5
:100500002817390739F0ED54FF4F40833093C4006A
:100510002093C300FF91EF91BF91AF919F918F9175
:100520007F916F915F914F913F912F910F900FBEEF
:100530000F901F9018955F926F927F928F929F926B
:10054000AF92BF92CF92DF92EF92FF920F931F93E1
:10055000CF93DF93EC013A014B01413281EA580716
:1005600087E0680780E078070CF075C060E472E40B
:100570008FE090E0A40193014BD4215030404040E3
:100580005040CA01B90122E030E040E050E040D4E0
:1005900059016A01A6019501209530954095509525
:1005A00094E0220F331F441F551F9A95D1F760E046
:1005B00072E18AE790E02CD4CA01B9012FEF30E054
:1005C00040E050E0D1D3A401930122D4C90181506D
:1005D0009F4F181619061CF4522E5A9403C0552426
:1005E0005394521A60E874E88EE190E0A4019301FC
:1005F0000FD42150304040405040CA01B90122E0A0
:1006000030E040E050E004D420953095409550957E
:1006100083E0220F331F441F551F8A95D1F760E0F6
:1006200072E18AE790E0F4D3CA01B9012FEF30E01C
:1006300040E050E099D3A4019301EAD3C90181506D
:100640009F4F181619061CF4822F815002C081E0BA
:10065000821B8515F0F4E885F98581E090E00A8831
:1006600002C0880F991F0A94E2F7808360E874E85B
:100670008EE190E0A4019301CBD321503040404063
:100680005040CA01B90122E030E040E050E0C0D360
:1006900004C0E885F98510829501EC81FD813083E5
:1006A000EE81FF812083EA85FB85208141E050E0D7
:1006B000CA010E8402C0880F991F0A94E2F7282B02
:1006C0002083EA85FB852081CA010F8402C0880F40
:1006D000991F0A94E2F7282B2083EA85FB85808105
:1006E000088802C0440F551F0A94E2F7842B8083C8
:1006F000DF91CF911F910F91FF90EF90DF90CF90FE
:10070000BF90AF909F908F907F906F905F90089573
:10071000FC01A085B18521898C9190E0022E02C058
:10072000959587950A94E2F780FFF6CF0484F585C6
:10073000E02D608308958BE890E09093C80080934B
:10074000C70083EB90E09093CA008093C90080E4D7
:1007500090E09093CC008093CB0089E290E090935E
:10076000CE008093CD008BE290E09093D0008093F8
:10077000CF008AE290E09093D2008093D1008CE287
:1007800090E09093D4008093D30084E08093D500D0
:1007900083E08093D60087E08093D70085E0809344
:1007A000D80081E08093D90008950F931F93CF93D1
:1007B000DF938C01EB0109C02196D801ED91FC91EA
:1007C0000190F081E02DC801099568816623A1F7A9
:1007D000DF91CF911F910F910895EF92FF920F93A8
:1007E0001F93CF93DF938C017B01EA010CC0D701EB
:1007F0006D917D01D801ED91FC910190F081E02D8A
:10080000C80109952197209791F7DF91CF911F910A
:100810000F91FF90EF900895DC01ED91FC91028023
:10082000F381E02D099508950F931F938C01DC014E
:10083000ED91FC910190F081E02D6DE00995D801DA
:10084000ED91FC910190F081E02DC8016AE00995DD
:100850001F910F9108950F931F938C01DDDFC80145
:10086000E3DF1F910F9108952F923F924F925F9275
:100870006F927F928F929F92AF92BF92CF92DF92B0
:10088000EF92FF920F931F93DF93CF93CDB7DEB715
:10089000A0970FB6F894DEBF0FBECDBF1C016A0152
:1008A0007B01411551056105710549F4DC01ED91AC
:1008B000FC910190F081E02D60E3099552C08824FD
:1008C00099245401422E55246624772401E010E037
:1008D0000C0F1D1F080D191DC701B601A3019201C0
:1008E00075D2F80160830894811C911CA11CB11C75
:1008F000C701B601A301920169D2C901DA016C01F5
:100900007D01C114D104E104F10401F781E0E82E76
:10091000F12CEC0EFD1EE80CF91C3E010894611C44
:10092000711CD501C4010197A109B1096C01C81856
:10093000D90814C0F601EE0DFF1D60816A3010F475
:10094000605D01C0695CD101ED91FC910190F08185
:10095000E02DC10109950894E108F1086E147F04A7
:1009600049F7A0960FB6F894DEBF0FBECDBFCF916A
:10097000DF911F910F91FF90EF90DF90CF90BF908C
:10098000AF909F908F907F906F905F904F903F902F
:100990002F900895EF92FF920F931F93CF93DF93C1
:1009A000EC017A018B0177FF0FC0E881F98101909A
:1009B000F081E02D6DE2099510950095F094E0949A
:1009C000E11CF11C011D111DCE01B801A7012AE097
:1009D0004BDFDF91CF911F910F91FF90EF90089522
:1009E000AB01662757FD6095762FD4DF08950F93EE
:1009F0001F938C01AB01662757FD6095762FCADFE8
:100A0000C80112DF1F910F9108955058BB27AA27E4
:100A10000ED009C1FAD030F0FFD020F031F49F3F62
:100A200011F41EF4EFC00EF4E095E7FBE5C0E92FEA
:100A30000BD180F3BA17620773078407950718F084
:100A400071F49EF523C10EF4E0950B2EBA2FA02D64
:100A50000B01B90190010C01CA01A0011124FF276B
:100A6000591B99F0593F50F4503E68F11A16F04066
:100A7000A22F232F342F4427585FF3CF4695379565
:100A80002795A795F0405395C9F77EF41F16BA0B2A
:100A9000620B730B840BBAF09150A1F0FF0FBB1FD8
:100AA000661F771F881FC2F70EC0BA0F621F731F21
:100AB000841F48F4879577956795B795F7959E3F7E
:100AC00008F0B3CF9395880F08F09927EE0F97950C
:100AD0008795089504D06894B111D9C00895BCD009
:100AE00088F09F5790F0B92F9927B751A0F0D1F017
:100AF000660F771F881F991F1AF0BA95C9F712C0A1
:100B0000B13081F0C3D0B1E00895C0C0672F782F15
:100B10008827B85F39F0B93FCCF38695779567950C
:100B2000B395D9F73EF490958095709561957F4F78
:100B30008F4F9F4F0895E89409C097FB3EF490951E
:100B40008095709561957F4F8F4F9F4F9923A9F0A6
:100B5000F92F96E9BB279395F69587957795679535
:100B6000B795F111F8CFFAF4BB0F11F460FF1BC079
:100B70006F5F7F4F8F4F9F4F16C0882311F096E90C
:100B800011C0772321F09EE8872F762F05C06623BA
:100B900071F096E8862F70E060E02AF09A95660F73
:100BA000771F881FDAF7880F9695879597F908952C
:100BB000990F0008550FAA0BE0E8FEEF161617066E
:100BC000E807F907C0F012161306E407F50798F0D6
:100BD000621B730B840B950B39F40A2661F0232BEF
:100BE000242B252B21F408950A2609F4A140A6956B
:100BF0008FEF811D811D089597F99F6780E870E050
:100C000060E008959FEF80EC089500240A94161682
:100C1000170618060906089500240A9412161306EA
:100C2000140605060895092E0394000C11F4882378
:100C300052F0BB0F40F4BF2B11F460FF04C06F5F94
:100C40007F4F8F4F9F4F089557FD9058440F551F6A
:100C500059F05F3F71F04795880F97FB991F61F03E
:100C60009F3F79F087950895121613061406551FB5
:100C7000F2CF4695F1DF08C0161617061806991F21
:100C8000F1CF86957105610508940895E894BB2716
:100C900066277727CB0197F908958ADF08F48FEF4D
:100CA00008950BD0C0CFB1DF28F0B6DF18F0952340
:100CB00009F0A2CFA7CF1124EACFC6DFA0F3959FFA
:100CC000D1F3950F50E0551F629FF001729FBB2733
:100CD000F00DB11D639FAA27F00DB11DAA1F649FDF
:100CE0006627B00DA11D661F829F2227B00DA11D92
:100CF000621F739FB00DA11D621F839FA00D611D18
:100D0000221F749F3327A00D611D231F849F600D38
:100D1000211D822F762F6A2F11249F5750408AF071
:100D2000E1F088234AF0EE0FFF1FBB1F661F771FFD
:100D3000881F91505040A9F79E3F510570F05CCF3D
:100D4000A6CF5F3FECF3983EDCF3869577956795E9
:100D5000B795F795E7959F5FC1F7FE2B880F911D1B
:100D60009695879597F90895629FD001739FF0013A
:100D7000829FE00DF11D649FE00DF11D929FF00D2B
:100D8000839FF00D749FF00D659FF00D9927729F62
:100D9000B00DE11DF91F639FB00DE11DF91FBD01ED
:100DA000CF011124089597FB092E07260AD077FD5D
:100DB00004D049D006D000201AF4709561957F4F79
:100DC0000895F6F7909581959F4F0895A1E21A2E08
:100DD000AA1BBB1BFD010DC0AA1FBB1FEE1FFF1FDF
:100DE000A217B307E407F50720F0A21BB30BE40B2F
:100DF000F50B661F771F881F991F1A9469F7609576
:100E00007095809590959B01AC01BD01CF0108952F
:100E100097FB092E05260ED057FD04D0D7DF0AD048
:100E2000001C38F450954095309521953F4F4F4F19
:100E30005F4F0895F6F790958095709561957F4F77
:100E40008F4F9F4F0895AA1BBB1B51E107C0AA1FDC
:100E5000BB1FA617B70710F0A61BB70B881F991F5B
:100E60005A95A9F780959095BC01CD010895EE0F94
:0E0E7000FF1F0590F491E02D0994F894FFCF38
:100E7E003A0041542B52455345540041542B494E90
:100E8E0049540041542B434C4153533D343000419F
:100E9E00542B494E510001000000008803D503ED8C
:020EAE0003003F
:00000001FF
