:1000000041C065C064C063C062C061C060C05FC001
:100010005EC0D2C45CC0D5C55AC059C058C057C014
:1000200056C055C054C000000000370034003100F5
:1000300000000000380035003200000000003600EB
:100040003300300004040404040404040202020225
:10005000020203030303030301020408102040808B
:100060000102040810200102040810200000000012
:100070000000000000030405000000000000000074
:10008000D2021C0711241FBECFE5D4E0DEBFCDBFD6
:1000900010E0A0E6B0E0E0E8F5E102C005900D92C6
:1000A000A63AB107D9F711E0A6EAB0E001C01D9267
:1000B000AB30B107E1F710E0C4E8D0E003C022970D
:1000C000FE0158DAC038D107D1F772D457CA98CF99
:1000D0004F925F926F927F928F929F92AF92BF9258
:1000E000CF92DF92EF92FF920F931F93CF93DF9304
:1000F0004C01DC0116961C91612F70E080E090E0CD
:1001000020E833E341EE51E0B0D95B016C0122EB12
:1001100037E0E12FF0E0EE54F84F1BC0C9018370C7
:100120009070892BA1F4C90164E670E0BDD9892BD8
:1001300031F4C90160E971E0B7D9892B41F480E855
:1001400091E5A1E0B0E0A80EB91ECA1EDB1E2F5F2C
:100150003F4F2E173F0711F7D40115968C91482E6B
:100160005524C90164E670E09FD97C01C90160E9AA
:1001700071E09AD98C01C1E0D0E093E0692E712C36
:100180006222732226C0C230D10591F46114710439
:1001900079F4E114F10419F40115110549F480E82A
:1001A0009BE3A6E2B0E0A80EB91ECA1EDB1E10C07B
:1001B000FE01E257FF4F608170E080E090E020E8B0
:1001C00031E541E050E051D9A60EB71EC81ED91E38
:1001D0002196C415D505BCF2D40112966C9170E03D
:1001E00080E090E020E13EE040E050E03ED97B013D
:1001F0008C01F401618170E080E090E02CE330E05C
:1002000040E050E032D9E60EF71E081F191FD40156
:100210008C91E80EF11C011D111D14966C9170E07B
:1002200061507040882777FD8095982F20E831E550
:1002300041E050E01AD9E60EF71E081F191FEA0C1C
:10024000FB1C0C1D1D1DB701C801DF91CF911F9133
:100250000F91FF90EF90DF90CF90BF90AF909F9065
:100260008F907F906F905F904F9008956093A6005D
:100270007093A7008093A8009093A9002091860016
:10028000309187004091880050918900260F371FD8
:10029000481F591F2093AA003093AB004093AC0035
:1002A0005093AD0082E090E09093AF008093AE0059
:1002B000D7D36093B7007093B8008093B900909340
:1002C000BA000895EF92FF920F93F701E436F1051B
:1002D0001CF0E25BF74001C07E96E093B60000930D
:1002E000B5002093B4008093B2006093B1004093B6
:1002F000B00080EB90E0ECDEB9DF0F91FF90EF9063
:100300000895FC0160834183128213821482158256
:100310000895AF92BF92DF92EF92FF920F931F93D7
:10032000CF93DF93EC01B62E8A819B81AC81BD8196
:100330000097A105B10551F1EE80FF808AEF9FEF94
:10034000E80EF91E898160E005D4C701C1D3DD2420
:10035000D39400E010E0AB2CBB248D2D90E08A21DB
:100360009B21892B19F0898161E002C0898160E0BD
:10037000F1D3C701ADD3DD0C0F5F1F4F083011055E
:1003800061F7898161E0E6D3C701A2D3DF91CF9104
:100390001F910F91FF90EF90DF90BF90AF90089565
:1003A0002F923F924F925F926F927F928F929F9285
:1003B000AF92BF92CF92DF92EF92FF920F931F9373
:1003C000DF93CF93CDB7DEB7A0970FB6F894DEBF1B
:1003D0000FBECDBF1C016A017B01411551056105AE
:1003E000710519F460E395DF4CC088249924540109
:1003F000422E55246624772401E010E00C0F1D1FC7
:10040000080D191DC701B601A301920160D8F801BA
:1004100060830894811C911CA11CB11CC701B6010A
:10042000A301920154D8C901DA016C017D01C11404
:10043000D104E104F10401F781E0E82EF12CEC0E87
:10044000FD1EE80CF91C3E010894611C711CD501CD
:10045000C4010197A109B1096C01C818D9080EC0DF
:10046000F601EE0DFF1D60816A3010F4605D01C081
:10047000695CC1014EDF0894E108F1086E147F0445
:1004800079F7A0960FB6F894DEBF0FBECDBFCF911F
:10049000DF911F910F91FF90EF90DF90CF90BF9071
:1004A000AF909F908F907F906F905F904F903F9014
:1004B0002F9008950F931F938C016DE02ADFC801E0
:1004C0006AE027DF1F910F910895EF92FF920F933B
:1004D0001F93CF93DF93EC017A018B0177FF0AC062
:1004E0006DE217DF10950095F094E094E11CF11C8B
:1004F000011D111DCE01B801A7012AE051DFDF91D6
:10050000CF911F910F91FF90EF900895AB01662757
:1005100057FD6095762FD9DF08950F931F938C01B7
:10052000AB01662757FD6095762FCFDFC801C2DF8C
:100530001F910F9108950F931F93CF93DF938C0119
:10054000EB0103C02196C801E4DE68816623D1F780
:10055000DF91CF911F910F9108950F931F938C01FD
:10056000EADFC801A7DF1F910F9108950F931F9332
:100570008C019A01AB01FC012283338344835583B0
:1005800060E472E48FE090E0C4D7F80137832683FB
:10059000818161E0DFD2F8018681978199D21F9134
:1005A0000F91089583ED90E060918A0040918C0056
:1005B000A8DE0895CF92DF92EF92FF920F931F93E0
:1005C00093EDC92E90E0D92E6091C7007091C800BC
:1005D0008091C9009091CA00FED59B01AC01C60173
:1005E000B90194DF88EFE82E80E0F82E6091C70013
:1005F0007091C8008091C9009091CA00ECD59B0110
:10060000AC01C701B9016DD500E610E0C601B80123
:1006100092DFC701B80181D46091CB007091CC000A
:100620008091CD009091CE00D6D59B01AC01C60142
:10063000B9016CDF6091CB007091CC008091CD004E
:100640009091CE00C8D59B01AC01C701B90149D535
:10065000C601B80170DFC701B8015FD46091CF0057
:100660007091D0008091D1009091D200B4D59B01BF
:10067000AC01C601B90151DF6091CF007091D0008B
:100680008091D1009091D200A6D59B01AC01C70109
:10069000B9012ED51F910F91FF90EF90DF90CF9071
:1006A0000895AF92BF92CF92DF92EF92FF920F9395
:1006B0001F9381E03AD2AA2797FDA095BA2FBC01DB
:1006C000CD01BCD56093BB007093BC008093BD008E
:1006D0009093BE0082E029D2AA2797FDA095BA2F59
:1006E000BC01CD01ABD56093BF007093C000809377
:1006F000C1009093C20083E018D2AA2797FDA0956D
:10070000BA2FBC01CD019AD55B016C016093C30087
:100710007093C4008093C5009093C6006091BB00A5
:100720007091BC008091BD009091BE0020E030E04F
:1007300046E953E4EBD47B018C0120E030E040E05B
:1007400050E02CD618163CF4C801B70126E636E670
:1007500046E65FE306C0C801B70126E636E646E690
:100760005FEB20D620E030E044EB52E4D0D4E62F1B
:100770002E2F372F482F592FC901DA018093C70038
:100780009093C800A093C900B093CA006091BF00C5
:100790007091C0008091C1009091C20020E030E0D3
:1007A00046E953E4B3D47B018C0120E030E040E023
:1007B00050E0F4D518163CF4C801B70126E636E639
:1007C00046E65FE306C0C801B70126E636E646E620
:1007D0005FEBE8D520E030E044EB52E498D4E62F1C
:1007E0002E2F372F482F592FC901DA018093CB00C4
:1007F0009093CC00A093CD00B093CE00C601B5017C
:1008000020E030E046E953E481D47B018C0120E014
:1008100030E040E050E0C2D518163CF4C801B70102
:1008200026E636E646E65FE306C0C801B70126E6DF
:1008300036E646E65FEBB6D520E030E044EB52E426
:1008400066D4E62F2E2F372F482F592FC901DA01F2
:100850008093CF009093D000A093D100B093D200AA
:10086000A9DE68E873E180E090E008D11F910F9164
:10087000FF90EF90DF90CF90BF90AF900895AF9230
:10088000BF92CF92DF92EF92FF920F931F9348EFA8
:10089000A42E40E0B42E02E610E0C501B8015CD3FE
:1008A00064EF71E080E090E0E9D033EDC32E30E0FA
:1008B000D32EC601B80151DE64EF71E080E090E014
:1008C000DDD02BE6E22E20E0F22EC501B70144D3A5
:1008D00064EF71E080E090E0D1D0C601B7013DDE69
:1008E00064EF71E080E090E0C9D003E710E0C5015B
:1008F000B80132D364EF71E080E090E0BFD0C60170
:10090000B8012BDE64EF71E080E090E0B7D0C50164
:10091000B70122D364EF71E080E090E0AFD0C60170
:10092000B7011BDE64EF71E080E090E0A7D00FE735
:1009300010E0C501B80110D364EF71E080E090E0F1
:100940009DD0C601B80109DE64EF71E080E090E05F
:1009500095D01F910F91FF90EF90DF90CF90BF90B7
:10096000AF900895EF92FF920F931F9380E090E075
:1009700060E070E040E050E021E030E001E010E0B5
:10098000EDE0EE2EF12C9EDC88EF90E040E056E9A1
:1009900060E070E051D183ED90E040E056E960E026
:1009A00070E0E4DD6CDF1F910F91FF90EF900895F0
:1009B0009DD0D8DF76DEFECF1F920F920FB60F923A
:1009C00011242F933F934F935F936F937F938F9354
:1009D0009F93AF93BF932091DF003091E00040914F
:1009E000E1005091E2007091E300DA01C901029642
:1009F000A11DB11D672F6A5F6D3730F06D57DA01A9
:100A0000C9010396A11DB11D6093E3008093DF002F
:100A10009093E000A093E100B093E2008091DB00AE
:100A20009091DC00A091DD00B091DE000196A11D47
:100A3000B11D8093DB009093DC00A093DD00B093A8
:100A4000DE00BF91AF919F918F917F916F915F91E8
:100A50004F913F912F910F900FBE0F901F901895BF
:100A60008FB7F8942091DF003091E0004091E100D1
:100A70005091E2008FBFB901CA010895EF92FF9231
:100A80000F931F937B018C018FB7F8944091DF0087
:100A90005091E0006091E1007091E2008FBF2FB7AC
:100AA000F8948091DF009091E000A091E100B09176
:100AB000E2002FBF841B950BA60BB70BE816F906B7
:100AC0000A071B0760F71F910F91FF90EF900895A1
:100AD000019759F0019749F0FC01EE0FFF1F319784
:100AE0008FB7F8943197F1F78FBF0895789483B753
:100AF000826083BF83B7816083BF89B7816089BF0C
:100B00008EB582608EBD8EB581608EBD8FB58160E1
:100B10008FBD85B5846085BD85B5806485BD329AFD
:100B2000319A309A379A1AB808958F7090918E0042
:100B30009295990F990F907C982B97B9369A369980
:100B4000FECF24B145B1942F80E030E0282B392B23
:100B5000C9010895482F50E0CA0184599F4FFC01F4
:100B60002491CA01885A9F4FFC0194914C5B5F4FBE
:100B7000FA013491332321F1222381F0233019F437
:100B80008FB58F7704C0243021F48FB58F7D8FBD52
:100B900005C0253019F485B58F7D85BDE32FF0E0C4
:100BA000EE0FFF1FE05DFF4FA591B491662329F47E
:100BB0008C91909589238C9308958C91892B8C939B
:100BC00008951F920F920FB60F9211242F933F9307
:100BD0004F935F936F937F938F939F93AF93BF9345
:100BE000EF93FF934CB1E091F400F091F500CF0149
:100BF000019660E170E058D49C018091F6009091DC
:100C0000F7002817390739F0EC51FF4F4083309334
:100C1000F5002093F400FF91EF91BF91AF919F9168
:100C20008F917F916F915F914F913F912F910F9095
:100C30000FBE0F901F9018955F926F927F928F92C8
:100C40009F92AF92BF92CF92DF92EF92FF920F935B
:100C50001F93CF93DF93EC013A014B01413281EABC
:100C6000580787E0680780E078070CF075C060E4FB
:100C700072E48FE090E0A40193014BD42150304006
:100C800040405040CA01B90122E030E040E050E06D
:100C900040D459016A01A6019501209530954095EF
:100CA000509594E0220F331F441F551F9A95D1F79A
:100CB00060E072E18AE790E02CD4CA01B9012FEF1D
:100CC00030E040E050E0D1D3A401930122D4C90127
:100CD00081509F4F181619061CF4522E5A9403C0C7
:100CE00055245394521A60E874E88EE190E0A40110
:100CF00093010FD42150304040405040CA01B90107
:100D000022E030E040E050E004D42095309540955A
:100D1000509583E0220F331F441F551F8A95D1F74A
:100D200060E072E18AE790E0F4D3CA01B9012FEFE5
:100D300030E040E050E099D3A4019301EAD3C90127
:100D400081509F4F181619061CF4822F815002C043
:100D500081E0821B8515F0F4E885F98581E090E05B
:100D60000A8802C0880F991F0A94E2F7808360E81E
:100D700074E88EE190E0A4019301CBD32150304080
:100D800040405040CA01B90122E030E040E050E06C
:100D9000C0D304C0E885F98510829501EC81FD81FE
:100DA0003083EE81FF812083EA85FB85208141E04D
:100DB00050E0CA010E8402C0880F991F0A94E2F71E
:100DC000282B2083EA85FB852081CA010F8402C07D
:100DD000880F991F0A94E2F7282B2083EA85FB8568
:100DE0008081088802C0440F551F0A94E2F7842BC3
:100DF0008083DF91CF911F910F91FF90EF90DF9053
:100E0000CF90BF90AF909F908F907F906F905F90AA
:100E10000895FC01A085B18521898C9190E0022E76
:100E200002C0959587950A94E2F780FFF6CF048477
:100E3000F585E02D608308958FE990E09093F900A7
:100E40008093F80084EE90E09093FB008093FA008A
:100E500080E490E09093FD008093FC0089E290E0B4
:100E60009093FF008093FE008BE290E0909301014D
:100E7000809300018AE290E0909303018093020145
:100E80008CE290E0909305018093040184E08093CC
:100E9000060183E08093070187E08093080185E0E5
:100EA0008093090181E080930A0108950F931F93B5
:100EB000CF93DF938C01EB0109C02196D801ED910E
:100EC000FC910190F081E02DC801099568816623AD
:100ED000A1F7DF91CF911F910F910895EF92FF92AB
:100EE0000F931F93CF93DF938C017B01EA010CC01A
:100EF000D7016D917D01D801ED91FC910190F081B8
:100F0000E02DC80109952197209791F7DF91CF91A6
:100F10001F910F91FF90EF900895DC01ED91FC91EE
:100F20000280F381E02D099508950F931F938C01A2
:100F3000DC01ED91FC910190F081E02D6DE00995CF
:100F4000D801ED91FC910190F081E02DC8016AE09B
:100F500009951F910F9108950F931F938C01DDDF69
:100F6000C801E3DF1F910F9108952F923F924F9296
:100F70005F926F927F928F929F92AF92BF92CF9229
:100F8000DF92EF92FF920F931F93DF93CF93CDB732
:100F9000DEB7A0970FB6F894DEBF0FBECDBF1C0121
:100FA0006A017B01411551056105710549F4DC01B8
:100FB000ED91FC910190F081E02D60E3099552C024
:100FC000882499245401422E55246624772401E074
:100FD00010E00C0F1D1F080D191DC701B601A3015C
:100FE000920175D2F80160830894811C911CA11CA8
:100FF000B11CC701B601A301920169D2C901DA018E
:101000006C017D01C114D104E104F10401F781E018
:10101000E82EF12CEC0EFD1EE80CF91C3E010894A4
:10102000611C711CD501C4010197A109B1096C01B2
:10103000C818D90814C0F601EE0DFF1D60816A3092
:1010400010F4605D01C0695CD101ED91FC910190EB
:10105000F081E02DC10109950894E108F1086E14B2
:101060007F0449F7A0960FB6F894DEBF0FBECDBF40
:10107000CF91DF911F910F91FF90EF90DF90CF9074
:10108000BF90AF909F908F907F906F905F904F90A8
:101090003F902F900895EF92FF920F931F93CF935D
:1010A000DF93EC017A018B0177FF0FC0E881F981B2
:1010B0000190F081E02D6DE2099510950095F09476
:1010C000E094E11CF11C011D111DCE01B801A70126
:1010D0002AE04BDFDF91CF911F910F91FF90EF90AE
:1010E0000895AB01662757FD6095762FD4DF0895EC
:1010F0000F931F938C01AB01662757FD6095762FE8
:10110000CADFC80112DF1F910F9108955058BB2705
:10111000AA270ED009C1FAD030F0FFD020F031F468
:101120009F3F11F41EF4EFC00EF4E095E7FBE5C01D
:10113000E92F0BD180F3BA1762077307840795076D
:1011400018F071F49EF523C10EF4E0950B2EBA2F22
:10115000A02D0B01B90190010C01CA01A0011124BD
:10116000FF27591B99F0593F50F4503E68F11A1669
:10117000F040A22F232F342F4427585FF3CF4695FA
:1011800037952795A795F0405395C9F77EF41F161C
:10119000BA0B620B730B840BBAF09150A1F0FF0FE6
:1011A000BB1F661F771F881FC2F70EC0BA0F621FD2
:1011B000731F841F48F4879577956795B795F795C2
:1011C0009E3F08F0B3CF9395880F08F09927EE0F54
:1011D00097958795089504D06894B111D9C0089562
:1011E000BCD088F09F5790F0B92F9927B751A0F045
:1011F000D1F0660F771F881F991F1AF0BA95C9F7AB
:1012000012C0B13081F0C3D0B1E00895C0C0672FE3
:10121000782F8827B85F39F0B93FCCF3869577955A
:101220006795B395D9F73EF4909580957095619543
:101230007F4F8F4F9F4F0895E89409C097FB3EF46E
:1012400090958095709561957F4F8F4F9F4F992313
:10125000A9F0F92F96E9BB279395F6958795779591
:101260006795B795F111F8CFFAF4BB0F11F460FF51
:101270001BC06F5F7F4F8F4F9F4F16C0882311F0A9
:1012800096E911C0772321F09EE8872F762F05C0BD
:10129000662371F096E8862F70E060E02AF09A9558
:1012A000660F771F881FDAF7880F9695879597F94D
:1012B0000895990F0008550FAA0BE0E8FEEF1616E7
:1012C0001706E807F907C0F012161306E407F5073A
:1012D00098F0621B730B840B950B39F40A2661F0AE
:1012E000232B242B252B21F408950A2609F4A14051
:1012F000A6958FEF811D811D089597F99F6780E85E
:1013000070E060E008959FEF80EC089500240A9457
:101310001616170618060906089500240A941216D0
:101320001306140605060895092E0394000C11F403
:10133000882352F0BB0F40F4BF2B11F460FF04C0B0
:101340006F5F7F4F8F4F9F4F089557FD9058440F09
:10135000551F59F05F3F71F04795880F97FB991F14
:1013600061F09F3F79F087950895121613061406D1
:10137000551FF2CF4695F1DF08C01616170618065E
:10138000991FF1CF86957105610508940895E89439
:10139000BB2766277727CB0197F908958ADF08F4E2
:1013A0008FEF08950BD0C0CFB1DF28F0B6DF18F073
:1013B000952309F0A2CFA7CF1124EACFC6DFA0F36F
:1013C000959FD1F3950F50E0551F629FF001729FDA
:1013D000BB27F00DB11D639FAA27F00DB11DAA1FF9
:1013E000649F6627B00DA11D661F829F2227B00D46
:1013F000A11D621F739FB00DA11D621F839FA00DD1
:10140000611D221F749F3327A00D611D231F849F20
:10141000600D211D822F762F6A2F11249F57504077
:101420008AF0E1F088234AF0EE0FFF1FBB1F661F12
:10143000771F881F91505040A9F79E3F510570F0CB
:101440005CCFA6CF5F3FECF3983EDCF386957795B3
:101450006795B795F795E7959F5FC1F7FE2B880FC6
:10146000911D9695879597F90895629FD001739F76
:10147000F001829FE00DF11D649FE00DF11D929F30
:10148000F00D839FF00D749FF00D659FF00D99276F
:10149000729FB00DE11DF91F639FB00DE11DF91F93
:1014A000BD01CF011124089597FB092E07260AD00C
:1014B00077FD04D049D006D000201AF470956195CC
:1014C0007F4F0895F6F7909581959F4F0895A1E27B
:1014D0001A2EAA1BBB1BFD010DC0AA1FBB1FEE1FAE
:1014E000FF1FA217B307E407F50720F0A21BB30BF9
:1014F000E40BF50B661F771F881F991F1A9469F775
:1015000060957095809590959B01AC01BD01CF01D0
:10151000089597FB092E05260ED057FD04D0D7DF7E
:101520000AD0001C38F450954095309521953F4FD6
:101530004F4F5F4F0895F6F79095809570956195A0
:101540007F4F8F4F9F4F0895AA1BBB1B51E107C0D0
:10155000AA1FBB1FA617B70710F0A61BB70B881F43
:10156000991F5A95A9F780959095BC01CD010895D2
:10157000EE0FFF1F0590F491E02D0994F894FFCF32
:101580003A0041542B52455345540041542B494E87
:1015900049540041542B434C4153533D3430004196
:1015A000542B494E51002C01000002000300011F82
:1015B0001C1F1E1F1E1F1F1E1F1E1F0000000009D4
:0615C0000756076E07004C
:00000001FF
