:100000000C9463000C94BB030C94E8030C948B00D9
:100010000C948B000C948B000C948B000C948B0034
:100020000C948B000C948B000C948B000C948B0024
:100030000C948B000C948B000C948B000C948B0014
:100040000C9415040C948B000C943C050C948B00C0
:100050000C948B000C948B000C948B000C948B00F4
:100060000C948B000C948B000000000024002700EF
:100070002A0000000000250028002B0000000000DE
:1000800023002600290004040404040404040202DA
:100090000202020203030303030301020408102007
:1000A0004080010204081020010204081020000012
:1000B0000007000201000003040600000000000029
:1000C00000007802850611241FBECFEFD8E0DEBF06
:1000D000CDBF11E0A0E0B1E0E4E1F1E102C00590A4
:1000E0000D92A837B107D9F711E0A8E7B1E001C038
:1000F0001D92A73BB107E1F710E0C6ECD0E004C0C9
:100100002297FE010E948408C23CD107C9F70E94D1
:1001100091030C9488080C940000FB019F01E89463
:100120004230C4F04532B4F44A3029F497FB1EF44F
:10013000909581959F4F642F77270E946E08805D70
:100140008A330CF0895D8193CB010097A1F716F4F7
:100150005DE251931082C9010C94AE00DC01FC01F8
:10016000672F71917723E1F7329704C07C916D93EB
:1001700070836291AE17BF07C8F308957093590159
:1001800060935801615070406230710530F081E039
:1001900090E09093590180935801089580914E0109
:1001A00060E00E94EF0481E090E00E94870480916B
:1001B0004E0161E00E94EF0481E090E00E9487041C
:1001C00080914E0160E00E94EF0461E070E080E009
:1001D00090E00E945D040895EF92FF920F931F93A9
:1001E000CF93DF937C018B010F701070C091500191
:1001F000D091510108C0602F61708C2F0E94EF04D4
:1002000015950795219680915601909157018C176D
:100210009D078CF7C7010E94CE00DF91CF911F91FF
:100220000F91FF90EF900895EF92FF920F931F931D
:100230008C017B0194E0759567959A95E1F7C8016B
:100240000E94EC008FE0E822FF24C801B7010E9461
:10025000EC001F910F91FF90EF9008950F931F9363
:10026000CF93DF93EC018B0180914A0160E00E9403
:10027000EF048091780190917901892B29F0809188
:100280004C0160E00E94EF04CE01B8010E94EC0036
:10029000DF91CF911F910F9108950F931F93CF93EB
:1002A000DF93EC018B0180914A0161E00E94EF0431
:1002B0008091780190917901892B29F080914C01EE
:1002C00060E00E94EF04CE01B8010E941401DF91AA
:1002D000CF911F910F910895CF92DF92FF920F93CC
:1002E0001F93CF93DF936C018B01FF240AC0C00FD3
:1002F000D11F6881772767FD7095C6010E944D0167
:10030000F394CF2DD0E0F80101900020E9F7319768
:10031000E01BF10BCE17DF0750F3DF91CF911F9158
:100320000F91FF90DF90CF9008950F931F93CF937D
:10033000DF93EC018B0180914A0160E00E94EF04A1
:100340008091780190917901892B29F080914C015D
:1003500060E00E94EF04CE01B8010E941401DF9119
:10036000CF911F910F910895EF92FF920F931F93DA
:10037000CF93DF937C01EB018A0162E070E00E9481
:1003800095018091580190915901019721F0229790
:1003900011F4085D1F4FC0E0D0E006C0C70164E162
:1003A00070E00E9495012196C017D107BCF3DF9140
:1003B000CF911F910F91FF90EF900895CF93DF930E
:1003C000EC0180914E0161E00E94CF0480914A01CE
:1003D00061E00E94CF048091780190917901892B8E
:1003E00029F080914C0161E00E94CF04809150017E
:1003F00061E00E94CF048091520161E00E94CF042D
:100400008091540161E00E94CF048091560161E027
:100410000E94CF0462E370E080E090E00E945D04FF
:10042000CE0163E070E00E942E0165E070E080E0A4
:1004300090E00E945D04CE0163E070E00E942E0116
:1004400084E690E00E948704CE0163E070E00E94A1
:100450002E0165E070E080E090E00E945D04CE0136
:1004600062E070E00E942E01CE0162E070E00E9426
:100470002E0160915801709159016150704023E044
:10048000660F771F2A95E1F7CE010E942E018CE3BB
:1004900090E00E948704CE016CE070E00E9495011C
:1004A0008CE390E00E948704CE0161E070E00E943E
:1004B000950163E070E080E090E00E945D04CE0171
:1004C00066E070E00E94950161E070E080E090E0FD
:1004D0000E945D04DF91CF91089561E070E00E9479
:1004E000950161E070E080E090E00E945D04089575
:1004F0008AE791E062E070E00E94BE0008950F93E9
:100500001F930AE711E0C80161E070E04AE050E0A3
:100510000E94B401C8016AE571E00E946C01C80143
:1005200062E070E04AE050E00E94B401C80164E675
:1005300071E00E946C011F910F9108958DE061E0C0
:100540000E94EF0484EA91E060E071E00E94F60608
:1005500040917F01509180016091810170918201F1
:1005600084EA91E02AE030E00E94F40780917F0164
:1005700090918001A0918101B09182016AE571E0C2
:100580004AE050E00E948D008DE060E00E94EF04A0
:1005900080917F0190918001A0918101B0918201B1
:1005A0000196A11DB11D80937F0190938001A093BE
:1005B0008101B093820180917F0190918001A0918F
:1005C0008101B0918201885E9340A040B040A9F5BE
:1005D00080917B0190917C01A0917D01B0917E0181
:1005E0000196A11DB11D80937B0190937C01A09386
:1005F0007D01B0937E0184EA91E06AE071E00E949F
:10060000F60640917B0150917C0160917D017091D3
:100610007E0184EA91E02AE030E00E94F4078091B4
:100620007B0190917C01A0917D01B0917E0164E6F7
:1006300071E04AE050E00E948D0080917F0190912E
:100640008001A0918101B09182018F539244AF400B
:10065000B04041F410927F0110928001109281010C
:100660001092820108950F931F930AE711E0C801C9
:100670000E94DE01C8010E946D02C80161E070E0C5
:1006800040E050E00E94B401C80160E071E00E94C7
:100690006C01C80162E070E040E050E00E94B401EB
:1006A000C8016AE171E00E946C0104EA11E0C8012E
:1006B00040E855E260E070E00E947905C80163E21D
:1006C00071E00E9415078DE061E00E94CF048DE08B
:1006D00060E00E94EF0460ED77E080E090E00E942F
:1006E0005D048DE061E00E94EF0460ED77E080E062
:1006F00090E00E945D048DE060E00E94EF0483E0E2
:1007000060E00E94CF0483E060E00E94EF0484E098
:100710006EE972E042E050E00E9498031F910F9151
:1007200008950E9495040E9433030E947F02FDCF2A
:10073000823000F5E82FF0E0EE0FFF1FED57FE4F7F
:1007400071836083882319F08130A1F408C08091FF
:1007500069008C7F842B80936900E89A08958091CA
:100760006900440F551F440F551F837F842B8093CE
:100770006900E99A08951F920F920FB60F92112403
:100780002F933F934F935F936F937F938F939F9399
:10079000AF93BF93EF93FF93809183019091840176
:1007A000892B29F0E0918301F09184010995FF9153
:1007B000EF91BF91AF919F918F917F916F915F91D9
:1007C0004F913F912F910F900FBE0F901F90189552
:1007D0001F920F920FB60F9211242F933F934F93B6
:1007E0005F936F937F938F939F93AF93BF93EF9399
:1007F000FF938091850190918601892B29F0E091EA
:100800008501F09186010995FF91EF91BF91AF911C
:100810009F918F917F916F915F914F913F912F9118
:100820000F900FBE0F901F9018951F920F920FB64A
:100830000F9211242F933F938F939F93AF93BF9366
:1008400080918B0190918C01A0918D01B0918E01CE
:1008500030918F010196A11DB11D232F2D5F2D37E2
:1008600020F02D570196A11DB11D20938F0180937B
:100870008B0190938C01A0938D01B0938E01809198
:10088000870190918801A0918901B0918A01019618
:10089000A11DB11D8093870190938801A0938901C8
:1008A000B0938A01BF91AF919F918F913F912F910A
:1008B0000F900FBE0F901F901895EF92FF920F931D
:1008C0001F937B018C018FB7F89440918B0150915D
:1008D0008C0160918D0170918E018FBF2FB7F894BC
:1008E00080918B0190918C01A0918D01B0918E012E
:1008F0002FBF841B950BA60BB70BE816F9060A074A
:100900001B0760F71F910F91FF90EF9008950197DB
:1009100059F0FC01EE0FFF1FEE0FFF1F32978FB74C
:10092000F8943197F1F78FBF0895789484B5826079
:1009300084BD84B5816084BD85B5826085BD85B583
:10094000816085BDEEE6F0E0808181608083E1E832
:10095000F0E0808182608083808181608083E0E834
:10096000F0E0808181608083E1EBF0E08081846051
:100970008083E0EBF0E0808181608083EAE7F0E053
:1009800080818460808380818260808380818160B7
:1009900080838081806880831092C1000895282F11
:1009A00030E0C90186569F4FFC0194912A573F4F72
:1009B000F9018491882391F0E82FF0E0EE0FFF1FFA
:1009C000E859FF4FA591B491662329F48C91909535
:1009D00089238C9308958C91892B8C930895482FAB
:1009E00050E0CA0182559F4FFC012491CA018656EE
:1009F0009F4FFC0194914A575F4FFA013491332382
:100A0000D1F1222331F1233021F4809180008F77BE
:100A100005C0243031F4809180008F7D8093800068
:100A200018C0213019F484B58F7704C0223021F426
:100A300084B58F7D84BD0DC0263021F48091B00037
:100A40008F7705C0273029F48091B0008F7D809387
:100A5000B000E32FF0E0EE0FFF1FEE58FF4FA5911F
:100A6000B491662329F48C91909589238C930895F1
:100A70008C91892B8C9308951F920F920FB60F9231
:100A800011242F933F934F935F936F937F938F9393
:100A90009F93AF93BF93EF93FF934091C600E09174
:100AA000A001F091A101CF01019660E170E00E94E8
:100AB0001E089C018091A2019091A301281739077B
:100AC00039F0E057FE4F40833093A1012093A001FD
:100AD000FF91EF91BF91AF919F918F917F916F9116
:100AE0005F914F913F912F910F900FBE0F901F90EC
:100AF00018955F926F927F928F929F92AF92BF9262
:100B0000CF92DF92EF92FF920F931F93CF93DF93D9
:100B1000EC013A014B01413482E458078FE0680749
:100B200080E078070CF07FC060E874E88EE190E028
:100B3000A40193010E94530821503040404050408E
:100B4000CA01B90122E030E040E050E00E945308C1
:100B500059016A01A601950120953095409550955F
:100B600094E0220F331F441F551F9A95D1F760E080
:100B700074E284EF90E00E945308CA01B9012FEF9C
:100B800030E040E050E00E94FF07A40193010E9482
:100B90005308C90181509F4F181619061CF4522E94
:100BA0005A9403C055245394521A60E079E08DE3BF
:100BB00090E0A40193010E9453082150304040402E
:100BC0005040CA01B90122E030E040E050E00E940C
:100BD0005308209530954095509583E0220F331FA0
:100BE000441F551F8A95D1F760E074E284EF90E0CE
:100BF0000E945308CA01B9012FEF30E040E050E0F5
:100C00000E94FF07A40193010E945308C90181506B
:100C10009F4F181619061CF4822F815002C081E0E4
:100C2000821B851500F5E885F98581E090E00A884A
:100C300002C0880F991F0A94E2F7808360E079E090
:100C40008DE390E0A40193010E94530821503040AD
:100C500040405040CA01B90122E030E040E050E09D
:100C60000E94530804C0E885F98510829501EC8143
:100C7000FD813083EE81FF812083EA85FB85208121
:100C800041E050E0CA010E8402C0880F991F0A9407
:100C9000E2F7282B2083EA85FB852081CA010F8497
:100CA00002C0880F991F0A94E2F7282B2083EA8557
:100CB000FB858081088802C0440F551F0A94E2F723
:100CC000842B8083DF91CF911F910F91FF90EF9044
:100CD000DF90CF90BF90AF909F908F907F906F905C
:100CE0005F900895FC01A085B18521898C9190E0E9
:100CF000022E02C0959587950A94E2F780FFF6CF01
:100D00000484F585E02D6083089582E791E0909357
:100D1000A5018093A40180E991E09093A7018093BD
:100D2000A60185EC90E09093A9018093A80184EC42
:100D300090E09093AB018093AA0180EC90E09093B7
:100D4000AD018093AC0181EC90E09093AF01809372
:100D5000AE0186EC90E09093B1018093B00184E005
:100D60008093B20183E08093B30187E08093B40164
:100D700085E08093B50181E08093B60108950F93DB
:100D80001F93CF93DF938C01EB0109C02196D8010B
:100D9000ED91FC910190F081E02DC80109956881E9
:100DA0006623A1F7DF91CF911F910F910895EF92E4
:100DB000FF920F931F93CF93DF938C017B01EA0186
:100DC0000CC0D7016D917D01D801ED91FC9101908E
:100DD000F081E02DC80109952197209791F7DF91C7
:100DE000CF911F910F91FF90EF900895DC01ED914D
:100DF000FC910280F381E02D099508950F931F93D4
:100E00008C01DC01ED91FC910190F081E02D6DE011
:100E10000995D801ED91FC910190F081E02DC80178
:100E20006AE009951F910F9108950F931F938C010C
:100E30000E94F606C8010E94FE061F910F910895B8
:100E40002F923F924F925F926F927F928F929F92DA
:100E5000AF92BF92CF92DF92EF92FF920F931F93C8
:100E6000DF93CF93CDB7DEB7A0970FB6F894DEBF70
:100E70000FBECDBF1C016A017B0141155105610503
:100E8000710549F4DC01ED91FC910190F081E02DB8
:100E900060E3099554C0882499245401422E5524B6
:100EA0006624772401E010E00C0F1D1F080D191DAA
:100EB000C701B601A30192010E943108F8016083C5
:100EC0000894811C911CA11CB11CC701B601A3018F
:100ED00092010E943108C901DA016C017D01C1143F
:100EE000D104E104F104F1F681E0E82EF12CEC0EDE
:100EF000FD1EE80CF91C3E010894611C711CD50113
:100F0000C4010197A109B1096C01C818D90814C01E
:100F1000F601EE0DFF1D60816A3010F4605D01C0C6
:100F2000695CD101ED91FC910190F081E02DC1014E
:100F300009950894E108F1086E147F0449F7A0961A
:100F40000FB6F894DEBF0FBECDBFCF91DF911F91DA
:100F50000F91FF90EF90DF90CF90BF90AF909F9058
:100F60008F907F906F905F904F903F902F9008955B
:100F7000EF92FF920F931F93CF93DF93EC017A01CF
:100F80008B0177FF0FC0E881F9810190F081E02D9E
:100F90006DE2099510950095F094E094E11CF11C28
:100FA000011D111DCE01B801A7012AE00E942007F2
:100FB000DF91CF911F910F91FF90EF900895DC0189
:100FC0002115310541F4ED91FC910190F081E02D66
:100FD000642F099508952A30310519F40E94B80745
:100FE00008950E94200708950F931F938C010E947B
:100FF000DF07C8010E94FE061F910F910895629FAE
:10100000D001739FF001829FE00DF11D649FE00D00
:10101000F11D929FF00D839FF00D749FF00D659F61
:10102000F00D9927729FB00DE11DF91F639FB00D60
:10103000E11DF91FBD01CF011124089597FB092E71
:1010400007260AD077FD04D049D006D000201AF434
:10105000709561957F4F0895F6F7909581959F4F14
:101060000895A1E21A2EAA1BBB1BFD010DC0AA1FE9
:10107000BB1FEE1FFF1FA217B307E407F50720F001
:10108000A21BB30BE40BF50B661F771F881F991F7C
:101090001A9469F760957095809590959B01AC01C5
:1010A000BD01CF01089597FB092E05260ED057FDEF
:1010B00004D0D7DF0AD0001C38F450954095309505
:1010C00021953F4F4F4F5F4F0895F6F790958095CC
:1010D000709561957F4F8F4F9F4F0895AA1BBB1B43
:1010E00051E107C0AA1FBB1FA617B70710F0A61B28
:1010F000B70B881F991F5A95A9F780959095BC0149
:10110000CD010895EE0FFF1F0590F491E02D099495
:04111000F894FFCF81
:101114005A6F6E50756C733A20005A6F6E4B576855
:1011240054656C6C65723A2020005A6F6E4B576898
:101134003A20005A6F6E6E65456E657267794C6F22
:10114400676765722050726F6772616D6D612067A9
:101154006573746172742E2E2E0008000B00090052
:101164000400050006000700020030000000000033
:10117400000000003000000000000000000000003B
:0811840000007206BF06D70649
:00000001FF
