:100000000C9473000C949E000C949E000C949E0023
:100010000C949E000C949E000C949E000C949E00E8
:100020000C949E000C949E000C949E000C949E00D8
:100030000C949E000C949E000C949E000C949E00C8
:100040000C949E000C949E000C949E000C949E00B8
:100050000C949E000C949E000C949E000C94E50061
:100060000C949E000C94B8010C949E000C949E007D
:100070000C949E000C949E000C949E000C949E0088
:100080000C949E000C949E000C949E000C949E0078
:100090000C94F9010C949E000C949E000C949E000C
:1000A0000C949E000C949E000C949E000C949E0058
:1000B0000C949E000C949E000C949E000C949E0048
:1000C0000C949E000C949E000C949E000C943A029A
:1000D0000C949E000C949E000C947B020C949E0049
:1000E0000C949E00E80311241FBECFEFD1E2DEBFC7
:1000F000CDBF12E0A0E0B2E0E4E0FBE000E00BBF27
:1001000002C007900D92A035B107D9F71BBE12E0CF
:10011000A0E5B2E001C01D92A53FB107E1F710E0F4
:10012000C6EED0E004C02297FE010E947C05C43ECA
:10013000D107C9F70E94E0000C9480050C940000E0
:100140000F931F93CF93DF93EC018CEB92E0BE01F2
:100150000E94B8048E016AEF70E080E090E00E9497
:100160002D018CEB92E00E94B503F80181938F0181
:10017000803289F7259689EA92E0BE010E94EF0459
:10018000DF91CF911F910F91089589EA92E040E8A5
:1001900055E260E070E00E94BC028CEB92E040E827
:1001A00055E260E070E00E94BC0280E092E00E94B4
:1001B000A00060ED77E080E090E00E942D010895BE
:1001C0000E9457010E94C500FFCF1F920F920FB6E9
:1001D0000F9211242F933F938F939F93AF93BF93CD
:1001E0008091540290915502A0915602B09157020D
:1001F000309158020196A11DB11D232F2D5F2D377F
:1002000020F02D570196A11DB11D20935802809317
:10021000540290935502A0935602B09357028091D6
:10022000500290915102A0915202B0915302019656
:10023000A11DB11D8093500290935102A0935202D0
:10024000B0935302BF91AF919F918F913F912F91A6
:100250000F900FBE0F901F901895EF92FF920F9383
:100260001F937B018C018FB7F894409154025091F9
:10027000550260915602709157028FBF2FB7F894C4
:100280008091540290915502A0915602B09157026C
:100290002FBF841B950BA60BB70BE816F9060A07B0
:1002A0001B0760F71F910F91FF90EF9008957894CE
:1002B00084B5826084BD84B5816084BD85B582606B
:1002C00085BD85B5816085BDEEE6F0E08081816009
:1002D0008083E1E8F0E080818260808380818160BA
:1002E0008083E0E8F0E0808181608083E1EBF0E0F2
:1002F000808184608083E0EBF0E080818160808396
:10030000E1E9F0E080818260808380818160808388
:10031000E1EAF0E080818260808380818160808377
:10032000E1E2F1E08081826080838081816080836E
:10033000E0E9F0E0808181608083E0EAF0E08081A4
:1003400081608083E0E2F1E0808181608083EAE780
:10035000F0E08081846080838081826080838081FE
:10036000816080838081806880831092C1000895BD
:100370001F920F920FB60F920BB60F9211242F936C
:100380003F934F935F936F937F938F939F93AF931D
:10039000BF93EF93FF934091C600E0916902F09103
:1003A0006A02CF01019660E170E00E9416059C018F
:1003B00080916B0290916C022817390739F0E75A47
:1003C000FD4F408330936A0220936902FF91EF91C1
:1003D000BF91AF919F918F917F916F915F914F915D
:1003E0003F912F910F900BBE0F900FBE0F901F905B
:1003F00018951F920F920FB60F920BB60F92112401
:100400002F933F934F935F936F937F938F939F931C
:10041000AF93BF93EF93FF934091CE00E0917D02A5
:10042000F0917E02CF01019660E170E00E94160516
:100430009C0180917F02909180022817390739F042
:10044000E359FD4F408330937E0220937D02FF915C
:10045000EF91BF91AF919F918F917F916F915F913C
:100460004F913F912F910F900BBE0F900FBE0F90A9
:100470001F9018951F920F920FB60F920BB60F9206
:1004800011242F933F934F935F936F937F938F9399
:100490009F93AF93BF93EF93FF934091D600E0916A
:1004A0009102F0919202CF01019660E170E00E940A
:1004B00016059C01809193029091940228173907A8
:1004C00039F0EF57FD4F4083309392022093910211
:1004D000FF91EF91BF91AF919F918F917F916F911C
:1004E0005F914F913F912F910F900BBE0F900FBED8
:1004F0000F901F9018951F920F920FB60F920BB688
:100500000F9211242F933F934F935F936F937F9399
:100510008F939F93AF93BF93EF93FF9340913601D7
:10052000E091A502F091A602CF01019660E170E092
:100530000E9416059C018091A7029091A80228179D
:10054000390739F0EB56FD4F40833093A6022093D4
:10055000A502FF91EF91BF91AF919F918F917F91F4
:100560006F915F914F913F912F910F900BBE0F9024
:100570000FBE0F901F9018955F926F927F928F928F
:100580009F92AF92BF92CF92DF92EF92FF920F9322
:100590001F93CF93DF93EC013A014B01413482E486
:1005A00058078FE0680780E078070CF07FC060E8AC
:1005B00074E88EE190E0A40193010E944B05215064
:1005C000304040405040CA01B90122E030E040E0F4
:1005D00050E00E944B0559016A01A6019501209542
:1005E00030954095509594E0220F331F441F551FBE
:1005F0009A95D1F760E074E284EF90E00E944B0599
:10060000CA01B9012FEF30E040E050E00E94F7044A
:10061000A40193010E944B05C90181509F4F1816F8
:1006200019061CF4522E5A9403C055245394521A9E
:1006300060E079E08DE390E0A40193010E944B0516
:100640002150304040405040CA01B90122E030E022
:1006500040E050E00E944B05209530954095509524
:1006600083E0220F331F441F551F8A95D1F760E0A6
:1006700074E284EF90E00E944B05CA01B9012FEFAC
:1006800030E040E050E00E94F704A40193010E9492
:100690004B05C90181509F4F181619061CF4822F73
:1006A000815002C081E0821B851500F5E885F9853F
:1006B00081E090E00A8802C0880F991F0A94E2F74F
:1006C000808360E079E08DE390E0A40193010E94D3
:1006D0004B052150304040405040CA01B90122E052
:1006E00030E040E050E00E944B0504C0E885F98509
:1006F00010829501EC81FD813083EE81FF812083A2
:10070000EA85FB85208141E050E0CA010E8402C0E9
:10071000880F991F0A94E2F7282B2083EA85FB852E
:100720002081CA010F8402C0880F991F0A94E2F742
:10073000282B2083EA85FB858081088802C0440F2E
:10074000551F0A94E2F7842B8083DF91CF911F918C
:100750000F91FF90EF90DF90CF90BF90AF909F9060
:100760008F907F906F905F900895CF93DF93FC01FF
:10077000C281D3814A895B898889998984179507C1
:1007800019F42FEF3FEF0DC0FE01E40FF51F20819C
:10079000CA01019660E170E00E9416059B8B8A8B6E
:1007A00030E0C901DF91CF910895FC01A085B185AA
:1007B00021898C9190E0022E02C0959587950A942C
:1007C000E2F780FFF6CF0484F585E02D608308957D
:1007D00029E432E03093AA022093A90289E592E04D
:1007E0009093AC028093AB0285EC90E09093AE02C4
:1007F0008093AD0284EC90E09093B0028093AF02BE
:1008000080EC90E09093B2028093B10281EC90E092
:100810009093B4028093B30286EC90E09093B6027A
:100820008093B502E4E0E093B70273E07093B802FE
:1008300067E06093B90255E05093BA0241E04093FB
:10084000BB023093BD022093BC028DE692E09093F0
:10085000BF028093BE028DEC90E09093C102809322
:10086000C0028CEC90E09093C3028093C20288ECAB
:1008700090E09093C5028093C40289EC90E090933D
:10088000C7028093C6028EEC90E09093C9028093D9
:10089000C802E093CA027093CB026093CC025093DB
:1008A000CD024093CE023093D0022093CF0281E854
:1008B00092E09093D2028093D10285ED90E09093E4
:1008C000D4028093D30284ED90E09093D60280937B
:1008D000D50280ED90E09093D8028093D70281ED0D
:1008E00090E09093DA028093D90286ED90E09093A5
:1008F000DC028093DB02E093DD027093DE02609302
:10090000DF025093E0024093E1023093E302209330
:10091000E20285E992E09093E5028093E40285E3A8
:1009200091E09093E7028093E60284E391E0909354
:10093000E9028093E80280E391E09093EB028093D8
:10094000EA0281E391E09093ED028093EC0286E36A
:1009500091E09093EF028093EE02E093F0027093A7
:10096000F1026093F2025093F3024093F40208956F
:100970000F931F93CF93DF938C01EB0109C0219656
:10098000D801ED91FC910190F081E02DC80109950D
:1009900068816623A1F7DF91CF911F910F91089590
:1009A000EF92FF920F931F93CF93DF938C017B0104
:1009B000EA010CC0D7016D917D01D801ED91FC9148
:1009C0000190F081E02DC80109952197209791F7BA
:1009D000DF91CF911F910F91FF90EF900895DC016F
:1009E000ED91FC910280F381E02D09950895629FBD
:1009F000D001739FF001829FE00DF11D649FE00D17
:100A0000F11D929FF00D839FF00D749FF00D659F77
:100A1000F00D9927729FB00DE11DF91F639FB00D76
:100A2000E11DF91FBD01CF011124089597FB092E87
:100A300007260AD077FD04D049D006D000201AF44A
:100A4000709561957F4F0895F6F7909581959F4F2A
:100A50000895A1E21A2EAA1BBB1BFD010DC0AA1FFF
:100A6000BB1FEE1FFF1FA217B307E407F50720F017
:100A7000A21BB30BE40BF50B661F771F881F991F92
:100A80001A9469F760957095809590959B01AC01DB
:100A9000BD01CF01089597FB092E05260ED057FD05
:100AA00004D0D7DF0AD0001C38F45095409530951B
:100AB00021953F4F4F4F5F4F0895F6F790958095E2
:100AC000709561957F4F8F4F9F4F0895AA1BBB1B59
:100AD00051E107C0AA1FBB1FA617B70710F0A61B3E
:100AE000B70B881F991F5A95A9F780959095BC015F
:100AF000CD010895EE0FFF1F0590F491E02D0994AC
:040B0000F894FFCF97
:100B0400415445310D0A00415445300D0A00415409
:100B140057530D0A000A0A2E2E2E696E6974206539
:100B24006E642E2E2E0025692563204300252E3168
:100B3400662525002569206B6D2F680025692072C4
:100B44002F6D696E0000000000D503B804D00400C6
:00000001FF
