:100000000C9406010C9446100C9477100C94A810D4
:100010000C94D9100C940A110C943B110C946C1193
:100020000C949D110C9431010C9431010C9431010C
:100030000C9431010C9431010C9431010C94310178
:100040000C9431010C9431010C9431010C94310168
:100050000C9431010C9431010C9431010C94CE11AB
:100060000C9431010C945A130C9431010C9431010D
:100070000C9431010C9431010C9431010C94310138
:100080000C9431010C9431010C9431010C94310128
:100090000C949B130C9431010C9431010C9431019C
:1000A0000C9431010C9431010C9431010C94310108
:1000B0000C9431010C9431010C9431010C943101F8
:1000C0000C9431010C9431010C9431010C94DC132B
:1000D0000C9431010C9431010C941D140C943101D9
:1000E0000C94310100002100240027002A002D007B
:1000F0003000330001010000040107010A01000083
:100100002200250028002B002E00310034000201BF
:100110000000050108010B0100002000230026005B
:1001200029002C002F00320000010000030106010D
:10013000090105050505070508080808020202026D
:100140000A0A080804040404010101010101010173
:100150000303030303030303040707070C0C0C0C3E
:100160000C0C0C0C02020202060606060606060627
:100170000B0B0B0B0B0B0B0B0102102020080810B4
:100180002040102040800201020108040201010207
:1001900004081020408080402010080402018004E0
:1001A000020180402010080402010804020101023B
:1001B0000408102040800102040810204080000044
:1001C000090A02080B0C0D070603040100000000D9
:1001D000000000000000000000000000000000001F
:1001E00000000000000000000000100F0E000000E2
:1001F00000000000000000000000000000000000FF
:1002000000000000520B380D6A154B0B11241FBE65
:10021000CFEFD1E2DEBFCDBF13E0A0E0B2E0EAE273
:10022000F0E300E00BBF02C007900D92A23BB107C4
:10023000D9F71BBE15E0A2EBB3E001C01D92A539B2
:10024000B107E1F712E0CAE0D2E004C02297FE0154
:100250000E940418C430D107C9F70E94C30F0C9440
:1002600008180C940000FB01DC0104C08D91019082
:10027000801921F441505040C8F7881B990B08950C
:10028000FB01DC010D900020E9F7119701900D9220
:100290000020E1F70895FB01DC0101900D920020A0
:1002A000E1F70895FB019F01E8944230C4F0453224
:1002B000B4F44A3029F497FB1EF4909581959F4F32
:1002C000642F77270E94EE17805D8A330CF0895DDA
:1002D0008193CB010097A1F716F45DE25193108250
:1002E000C9010C947301DC01FC01672F7191772324
:1002F000E1F7329704C07C916D9370836291AE17E1
:10030000BF07C8F30895FC018EE993E091838083D1
:1003100074836383568345838FEF82830895FC0142
:1003200082818F3F11F480E008950E94AE06089507
:10033000EF92FF920F931F93CF93DF93EC018A818B
:100340008F3F89F10E94C6020E9416127B018C0128
:10035000CE010E948F01882301F10E9416126E19AE
:100360007F09800B910B685E734080409040A8F439
:1003700061E070E080E090E00E942412E9CF8A8181
:100380000E943A03EA81F0E0EE0FFF1FEC54FC4FAD
:10039000118210828FEF8A8306C0CE010E948F01E6
:1003A000882381F3ECCFDF91CF911F910F91FF90C4
:1003B000EF900895FC0182818F3F19F420E030E036
:1003C00003C00E94F8069C01C90108950F931F9372
:1003D000DF93CF930F92CDB7DEB78C010E94DA0185
:1003E000892B19F42FEF3FEF0CC0F8018281BE0179
:1003F0006F5F7F4F41E050E00E94BD038981282F4D
:1004000030E0C9010F90CF91DF911F910F910895B6
:10041000CF93DF93EC0103C0CE010E94E601CE0131
:100420000E94DA01892BC1F7DF91CF910895FC0179
:1004300082818F3F11F00E94E1030895DF93CF93F3
:100440000F92CDB7DEB76983FC0182818F3F39F00F
:10045000BE016F5F7F4F41E050E00E94E1030F90CB
:10046000CF91DF910895FC0182818F3F51F0DB0134
:100470000D900020E9F71197A61BB70BAD010E9464
:10048000E10308950F931F93CF93DF938C01FC0139
:1004900082818F3F09F04EC0C0E0D0E08C2F0E94D7
:1004A000AE06882311F0883119F4F801C28304C024
:1004B0002196C430D10591F7F80122812F3FD1F167
:1004C0008091B2039091B30301969093B30380930C
:1004D000B20380509C4F21F41092B3031092B203E8
:1004E0004091B2035091B30340505C4F822F61E0C2
:1004F00020E00E945903F80163817481458156818F
:1005000082810E94D90209C061E070E080E090E041
:100510000E942412C8010E948F01882321F48FEFCA
:10052000F801828307C0C8010E948F01873161F7FB
:1005300081E001C080E0DF91CF911F910F9108957C
:10054000AF92BF92CF92DF92EF92FF920F931F93E1
:100550007B016A0159010E94260685E565E50E9436
:10056000F104C7010E946606C6010E949006C501FB
:100570000E942A06C8010E9448061F910F91FF9011
:10058000EF90DF90CF90BF90AF900895CF93DF931F
:1005900090E0D82FCC27CF5FDB4FCE0168E00E94E0
:1005A0005A04CE010E9479048823D9F7DF91CF91B4
:1005B0000895CF92DF92EF92FF920F931F93CF9304
:1005C000DF93082FEB016A0168816F3F51F4898145
:1005D0008F3F91F48A818F3F79F48B818F3F61F453
:1005E0003FC0662349F48981882331F48A818823B6
:1005F00019F48B818823A1F1C114D10489F110E091
:100600000C5F1F4FF02EEE24C7010C960E945A0477
:10061000C7010D9669810E945A04C7010E966A812E
:100620000E945A04C7010F966B810E945A048701E9
:10063000005F1F4FC8016D2D0E945A04C80101962A
:100640006C2D0E945A04E7012196CE0164E00E94BD
:100650005A04CE010E9479048823D9F781E001C0B1
:1006600080E0DF91CF911F910F91FF90EF90DF908D
:10067000CF9008950F931F93CF93DF93082F10E02F
:100680000C5F1F4FD02FCC272196CE0160E10E9436
:100690005A04CE010E9479048823D9F7902F882725
:1006A00002966FEF0E945A04DF91CF911F910F9134
:1006B0000895CF92DF92EF92FF920F931F93CF9303
:1006C000DF93082FE62EEA01F22E862F8150853027
:1006D00010F080E049C0802F0E943A0310E00C5FC8
:1006E0001F4FD02ECC24FE28C6016F2D0E945A0425
:1006F000B6E0000F111FBA95E1F7209771F00F5F78
:100700001F4F000F111F000F111FC8016D2F0E94F6
:100710005A04C80101966C2F18C02091BD03309176
:10072000BE032F5F3F4F3093BE032093BD030F5F87
:100730001F4F000F111F000F111FC801632F0E94D0
:100740005A04C80101966091BD030E945A048601B3
:100750000F5F1F4FC80161E00E945A04C8010E9448
:1007600079048823D9F781E0DF91CF911F910F9110
:10077000FF90EF90DF90CF900895FF920F931F931B
:10078000CF93DF93F82E8A014115510519F440E00B
:1007900050E010C00E941508DF2DC0E0CF5FDB4F96
:1007A000CE0160E40E945A04CE010E94790488239D
:1007B000D9F7A801CA01DF91CF911F910F91FF9046
:1007C00008956F927F928F929F92BF92CF92DF9205
:1007D000EF92FF920F931F93CF93DF93B82E3B01BD
:1007E000EA010E9451048C179D0710F08E0104C08D
:1007F0008B2D0E9451048C01EB2CFF2484E090E0AF
:10080000E80EF91EDE2CCC2453E0852E912C8C0CA6
:100810009D1C8B2D0E94B606EC01C4010E94790438
:10082000873129F08C3119F000E010E003C0C017C7
:10083000D10778F38B2DB301A8010E948607E6014A
:100840002196CE0160E20E945A04CE010E947904F2
:100850008823D9F70BC0C4010E947904882349F486
:100860008B2D0E943A0300E010E00CC0DE2DCC2757
:100870002296CE010E94790484FFEDCFCE0160E183
:100880000E945A04C801DF91CF911F910F91FF90F0
:10089000EF90DF90CF90BF909F908F907F906F9060
:1008A0000895E82FF0E0EE0FFF1FE153FC4F808129
:1008B00091810895282F84B18C6284B92A9A85B1D8
:1008C000877D85B980E58CBD2A9880EF8EBD0DB4FB
:1008D00007FEFDCF9EBD0DB407FEFDCF2EBD0DB4AE
:1008E00007FEFDCF6EBD0DB407FEFDCF2A9A81E055
:1008F0000895282F84B18C6284B92A9A85B1877DA6
:1009000085B980E58CBD2A988FE08EBD0DB407FEB9
:10091000FDCF9EBD0DB407FEFDCF2EBD0DB407FE6D
:10092000FDCF1EBC0DB407FEFDCF8EB52A9A0895EB
:10093000DC0184B18C6284B92A9A85B1877D85B93E
:1009400080E58CBD20E030E090EF19C02A989EBD74
:100950000DB407FEFDCFBEBD0DB407FEFDCFAEBD8D
:100960000DB407FEFDCFFB01E20FF31F80818EBDAA
:100970000DB407FEFDCF2A9A2F5F3F4F1196241723
:10098000350720F3CA010895DC0184B18C6284B973
:100990002A9A85B1877D85B980E58CBD20E030E05D
:1009A0009FE01AC02A989EBD0DB407FEFDCFBEBDC4
:1009B0000DB407FEFDCFAEBD0DB407FEFDCF1EBCCE
:1009C0000DB407FEFDCF8EB5FB01E20FF31F808350
:1009D0002A9A2F5F3F4F11962417350718F3CA0143
:1009E00008952F923F924F925F926F927F928F92D3
:1009F0009F92AF92BF92CF92DF92EF92FF920F93AE
:100A00001F93DF93CF9300D000D0CDB7DEB7182F60
:100A1000062F8BE190E0612F0E945A048AE190E05A
:100A2000602F0E945A0480E090E49093E00380934A
:100A3000DF0380E090E69093E8038093E7036FEC98
:100A400073E087ED93E09C838B83F7ECCF2EF3E08C
:100A5000DF2EEFEBEE2EE3E0FE2EAA24BB2466246D
:100A600077248824992440E050E0E12FF0E0FA83D5
:100A7000E983202E3324FB0111821082EB81FC815B
:100A800011821082F0E06F16F0E27F06DCF58981BA
:100A90009A81042E02C0959587950A94E2F7837097
:100AA000907081309105A1F0823091051CF4892B62
:100AB00039F028C08230910599F0039719F518C0D4
:100AC00080E094E0FB01918380838FEF93E017C077
:100AD00080E098E0FB01918380838FEF97E00FC067
:100AE00080E090E1FB01918380838FEF9FE007C05E
:100AF00080E090E2FB01918380838FEF9FE1F7011B
:100B00009183808390E0891690E299060CF03EC0B4
:100B1000C101042E02C0959587950A94E2F783706F
:100B2000907081309105A9F0823091051CF4892BD9
:100B300039F02CC082309105A9F0039739F51BC01C
:100B400080E094E0EB81FC81918380838FEF93E0E0
:100B50001AC080E098E0EB81FC81918380838FEF65
:100B600097E011C080E090E1EB81FC81918380836C
:100B70008FEF9FE008C080E090E2EB81FC819183E1
:100B800080838FEF9FE1F60191838083FB0140809A
:100B90005180EB81FC8100811181A114B104F1F03D
:100BA000FA01E152FC4FDA01A353BC4F8D919C91A5
:100BB000329122913296820F931F91838083FA01A2
:100BC000E951FC4FDA01AB52BC4F8D919C913291AF
:100BD00022913296820F931F918380830894A11CE7
:100BE000B11C6E5F7F4F4E5F5F4F8B819C81029681
:100BF0009C838B83E2E0F0E0CE0EDF1EEE0EFF1E44
:100C0000F4E0AF16B10429F0640C751C800E911E3F
:100C100032CF0F900F900F900F90CF91DF911F91D7
:100C20000F91FF90EF90DF90CF90BF90AF909F908B
:100C30008F907F906F905F904F903F902F9008958E
:100C4000682F80E090E80E945A04089580E80E948E
:100C5000200608950F931F938C0181E090E0F80126
:100C600060810E945A0482E090E0F80161810E9454
:100C70005A0483E090E0F80162810E945A0484E003
:100C800090E0F80163810E945A041F910F9108952A
:100C90000F931F938C0185E090E0F80160810E9422
:100CA0005A0486E090E0F80161810E945A0487E0CE
:100CB00090E0F80162810E945A0488E090E0F80117
:100CC00063810E945A041F910F9108950F931F93FF
:100CD0008C0189E090E0F80160810E945A048AE06A
:100CE00090E0F80161810E945A048BE090E0F801E5
:100CF00062810E945A048CE090E0F80163810E94B6
:100D00005A048DE090E0F80164810E945A048EE05C
:100D100090E0F80165810E945A041F910F91089597
:100D20000F931F938C018FE090E0F80160810E9487
:100D30005A0480E190E0F80161810E945A0481E147
:100D400090E0F80162810E945A0482E190E0F8018B
:100D500063810E945A041F910F91089590E0982F8B
:100D600088278D5F9B4F0E94790408958F929F92F0
:100D7000AF92BF92CF92DF92EF92FF920F931F93A9
:100D8000CF93DF9390E0982F8827805E9B4F4C0194
:100D90005C010894A11CB11CC0E0D0E0C4010E9419
:100DA0007904F82EEE24C5010E9479046701C80E6B
:100DB000D11CC114D10459F0C4010E947904182F28
:100DC00000E0C5010E947904E801C80FD11DCC15CF
:100DD000DD0521F7CE01DF91CF911F910F91FF909B
:100DE000EF90DF90CF90BF90AF909F908F9008953D
:100DF0008F929F92AF92BF92CF92DF92EF92FF922B
:100E00000F931F93CF93DF9390E00496982F88273A
:100E100016E2812E912C880E991EB7E2AB2EB12CD2
:100E2000A80EB91EC0E0D0E0C4010E947904F82EDB
:100E3000EE24C5010E9479046701C80ED11CC114BB
:100E4000D10459F0C4010E947904182F00E0C501B3
:100E50000E947904E801C80FD11DCC15DD0521F7EA
:100E6000CE01DF91CF911F910F91FF90EF90DF9016
:100E7000CF90BF90AF909F908F900895CF92DF92C8
:100E8000EF92FF920F931F93CF93DF937B01E901C2
:100E9000E82FF0E0EE0FFF1FDF01A154BC4F8D9152
:100EA0009C91482359238FEDC82E83E0D82ECE0E77
:100EB000DF1ED6012D913C91240F351FE153FC4FCD
:100EC0000190F081E02DCA018C0F9D1FE817F907F2
:100ED00080F48F01041B150BC901A8010E9498041E
:100EE000C01BD10BF601808191810E0D1F1DB80131
:100EF00001C0C901AE010E949804DF91CF911F91FA
:100F00000F91FF90EF90DF90CF9008957F928F9296
:100F10009F92AF92BF92CF92DF92EF92FF920F9388
:100F20001F93782E4B015A01E82EFF2484E090E0B5
:100F3000E80EF91EFE2CEE2424E2C22ED12CCE0C9B
:100F4000DF1CC6010E947904182F00E085E290E0C2
:100F5000E80EF91EC7010E947904080F111D872DA4
:100F6000B401A80195010E943E070A0D1B1DC60190
:100F7000612F0E945A04C701602F0E945A041F91DA
:100F80000F91FF90EF90DF90CF90BF90AF909F9028
:100F90008F907F900895CF92DF92EF92FF920F9300
:100FA0001F93CF93DF937A01E901E82FF0E0EE0F72
:100FB000FF1FDF01A953BC4F8D919C9168237923BA
:100FC00047EEC42E43E0D42ECE0EDF1ED6012D9167
:100FD0003C91260F371FE952FC4F0190F081E02D24
:100FE000CE01860F971FE817F90788F48F01061BBB
:100FF000170BC901B701A8010E94C404C01BD10B83
:10100000F601808191810E0D1F1DB80102C0C9013A
:10101000B701AE010E94C404DF91CF911F910F91DF
:10102000FF90EF90DF90CF9008957F928F929F92E4
:10103000AF92BF92CF92DF92EF92FF920F931F93E6
:10104000782E4B015A01E82EFF2484E090E0E80E50
:10105000F91EFE2CEE2468E2C62ED12CCE0CDF1C2D
:10106000C6010E947904182F00E089E290E0E80EA2
:10107000F91EC7010E947904080F111D872DB801C0
:10108000A40195010E94CB070A0D1B1DC601612F0B
:101090000E945A04C701602F0E945A041F910F91A9
:1010A000FF90EF90DF90CF90BF90AF909F908F9088
:1010B0007F900895DF93CF9300D000D0CDB7DEB7F7
:1010C0009C018CE0D9011D928A95E9F788E089831B
:1010D0008A838B838C8389819A81AB81BC81F9015E
:1010E00080839183A283B383D90150961D921D9270
:1010F0001D921C9253971F961C921E921E978FEF63
:101100009FEF1D969C938E931C970F900F900F90BE
:101110000F90CF91DF9108956F927F928F929F925F
:10112000AF92BF92CF92DF92EF92FF920F931F93F5
:10113000DF93CF93CDB7DEB72C970FB6F894DEBF11
:101140000FBECDBF7C016B016115710509F4DCC0D8
:10115000DB018C91882309F4D7C0F701848595853C
:101160000E949A0C8C014E010894811C911C8CE009
:10117000D4011D928A95E9F7F70184819581A681B2
:10118000B7810196A11DB11D84839583A683B78382
:101190000E94DC0B9A8389838B8181608B8381E041
:1011A00090E00E94DC0B9E838D838B8187788B83FC
:1011B000D7011C968D919C911D97B401A8012CE03C
:1011C00030E00E94B70C8CE0A82EB12CA00EB11E0E
:1011D00034010894611C711C4AC03196019620812B
:1011E000222311F02E32C9F70197F4018083F30115
:1011F0008C012BE030E01FC0D6018C918083215000
:1012000030401216130614F4319610C0F70184858D
:101210009585B401A5012CE030E00E94B70C8CE06C
:1012200090E0A80EB91EF4012CE030E00894C11C37
:10123000D11C0150104010161106F4F203C008949E
:10124000C11CD11CD6018C918E32C9F32C303105D2
:1012500071F00CE010E0021B130BF70184859585FB
:10126000B401A50198010E94B70CA00EB11ED601D1
:101270008C91882321F0F60181E090E0B0CFF40159
:1012800013821182108281E084838283D7011C96AD
:101290008D919C911D97B401A50125E030E00E943D
:1012A000B70CE5E0F0E0AE0EBF1ED7011C968D91A5
:1012B0009C911D97B5010E940A0CF70184859585C4
:1012C0006091A5030E94030CD7011C968D919C91FF
:1012D0001D970E94580C8823B9F7F70186859785DA
:1012E000892B41F484819581A681B781808791877C
:1012F000A287B38781E090E0D7011F969C938E93DD
:101300001E9701E010E002C00FEF1FEF0E941612BF
:10131000F701608B718B828B938BC8012C960FB673
:10132000F894DEBF0FBECDBFCF91DF911F910F911B
:10133000FF90EF90DF90CF90BF90AF909F908F90F5
:101340007F906F900895CF93DF93EC018C859D85FE
:1013500097FD02C00E94BA0C8FEF9FEF9D878C878C
:10136000DF91CF9108952F923F924F925F926F92AB
:101370007F928F929F92AF92BF92CF92DF92EF9225
:10138000FF920F931F93DF93CF93CDB7DEB7649790
:101390000FB6F894DEBF0FBECDBF6C017C8B6B8B9C
:1013A000FC0186859785019719F002E010E01BC1CA
:1013B0008B899C89892B19F40FEF1FEF14C1F6015B
:1013C000848595850E94800C892B09F43AC1F60129
:1013D000848595850E94660C8C0135E0832E912CC6
:1013E0008C0E9D1EF60184859585B801A40128E028
:1013F00030E00E94B40C28E0E22EF12CE00EF11E49
:101400008D819E81AF81B88589839A83AB83BC83AC
:10141000F401848195810E94E40B8C01F4018681A2
:1014200097810E94E40B9A8B898BF60184859585C0
:10143000B701A4012CE030E00E94B40C88858F70C5
:1014400041F0833019F00AEF1FEFCDC00BEF1FEF13
:10145000CAC08D819E810E94E40B9E838D83898505
:101460009A850E94E40B1C018B859C850E94E40BED
:101470003C018F8187FF9DC08695869586958F70EC
:1014800009F097C00533110509F093C08D819E8145
:101490009C0140E050E0F60180859185A285B385EE
:1014A000281739074A075B0708F483C084819581B0
:1014B000A681B78182179307A407B50708F479C0FE
:1014C000CE010196B60144E050E00E94330100973E
:1014D00009F06FC0AA24BB240CE010E02301420CE9
:1014E000531C94E0692E712C680C791C5BC0B80108
:1014F0006E0D7F1DF60184859585A40121E030E005
:101500000E94B40CF401808190E0813891051CF0B8
:101510000E5F1F4F04C00196080F191F0197019716
:101520008038910520F3A214B304B8F1B8016E0D10
:101530007F1DF60184859585A40124E030E00E949A
:10154000B40C085F1F4FB8016E0D7F1DF601848536
:101550009585A30122E030E00E94B40CB8016E5FD3
:101560007F4FF4018181813091F48381813079F45E
:101570008581843061F46E0D7F1DF601848595852B
:101580004B895C8924E030E00E94B40C12C0F40165
:1015900085818B01080F111D02C00C5F1F4F08943D
:1015A000A11CB11CA414B50408F4A1CF0AEF1FEFCD
:1015B00002C001E010E089899A89E80EF91EF6015F
:1015C00084859585B7010E94EC0BF601848595858D
:1015D0006091A6030E94030CF601848595850E9404
:1015E000580C8823C9F7C6010E94A309F601178683
:1015F00016860DC0E216F3060407150718F003E07F
:1016000010E005C0F6011786168609EF1FEFC80126
:1016100064960FB6F894DEBF0FBECDBFCF91DF91B9
:101620001F910F91FF90EF90DF90CF90BF90AF9000
:101630009F908F907F906F905F904F903F902F90F2
:1016400008950E9416127B018C01F60120893189D0
:1016500042895389DC01CB01821B930BA40BB50B90
:1016600081519742A040B04028F2CCCF8130910503
:1016700041F46F5F7F4F71F48FEE93E00E945A0840
:101680000895892B39F46F5F7F4F21F48FEE93E03B
:101690000E94A309089580E090E06FEF7FEF0E9421
:1016A000360B089581E090E06FEF7FEF0E94360BDC
:1016B0000895EF92FF920F931F93CF93DF938C01C6
:1016C0000E94A309E090A403F090A703C3E0D0E038
:1016D000CE010E945F0CE81669F4CE016F2D42ED39
:1016E00054E020E00E94BD0C882321F0F801D5874A
:1016F000C48705C02197FFEFCF3FDF0749F7F80107
:101700008485958597FF03C020E030E00CC0B801C8
:101710000E94360CF8018485958565E370E00E948F
:10172000210C21E030E0C901DF91CF911F910F9191
:10173000FF90EF9008950F931F93CF93DF93EC01E9
:101740008B018E859F85892B19F02CEF3FEF0DC003
:10175000CE010E94590B97FF03C02DEF3FEF05C04C
:10176000CE01B8010E948C089C01C901DF91CF9184
:101770001F910F9108950F931F93CF93DF93EC0167
:101780008A010E949B0B9C018130910579F4CE0166
:10179000B8010E94B3099C018330910539F46AE0D5
:1017A00070E080E090E00E942412F1CFC901DF9147
:1017B000CF911F910F910895582F40E0292F30E0CD
:1017C000242B352BC9010895582F40E0292F30E0F4
:1017D000242B352BC9010895FF920F931F93F62EEA
:1017E000672F8C010C5F1F4F102F0027C8018896B0
:1017F0000E945A04C80189966F2D0E945A041F91B5
:101800000F91FF900895982F88278F5F9B4F0E941C
:101810005A040895FF920F931F93F62E672F8C01A1
:101820000C5F1F4F102F0027C80184960E945A0496
:10183000C80185966F2D0E945A041F910F91FF9049
:101840000895FF920F931F93F62E672F182F0027EE
:10185000005F1B4FC8010E945A04C80101966F2DFA
:101860000E945A041F910F91FF900895EF92FF92EA
:101870000F931F93CF93DF930496982F88278B01A4
:10188000EC012C9650E1E52EF12CE80EF91ECE016C
:10189000F80161918F010E945A042196CE15DF054F
:1018A000B1F7DF91CF911F910F91FF90EF900895C5
:1018B000982F88278F5F9B4F0E9479040895982F57
:1018C00088278D5F9B4F0E9479040895FF920F93A4
:1018D0001F938C010C5F1F4F102F0027C8018896A3
:1018E0000E947904F82EC80189960E9479043F2D40
:1018F00020E0280F311DC9011F910F91FF9008951D
:10190000FF920F931F938C010C5F1F4F102F002726
:10191000C80186960E947904F82EC80187960E9415
:1019200079043F2D20E0280F311DC9011F910F912F
:10193000FF900895FF920F931F938C010C5F1F4F30
:10194000102F0027C80184960E947904F82EC80140
:1019500085960E9479043F2D20E0280F311DC90192
:101960001F910F91FF9008950E94CB0708950E9448
:101970003E0708950E943A0308950E94590308956E
:10198000EF92FF920F931F93CF93DF938C01F62E6C
:10199000E72E8FEE93E060E072E043E054E00E94B7
:1019A000BB0B019709F051C0D8011C9212961C92F2
:1019B0001E921197E8012596CE010E9442028823CB
:1019C00009F443C0CE016AE172E00E949816CE018C
:1019D00060E572E00E947916EF2DFE2DDF010D907B
:1019E0000020E9F79D01215030402E1B3F0BF801EC
:1019F000A381B481FD0101900020E9F73197EA1B32
:101A0000FB0B2E0F3F1F225F3F4FCE01B9010E94FB
:101A10003F17CE010E948116CE0161E672E00E945E
:101A20007916D80113966D917C911497CE010E947E
:101A30007916CE0168E672E00E947916CE016F2D0C
:101A40007E2D0E94981681E001C080E0DF91CF9149
:101A50001F910F91FF90EF900895FC0174836383B1
:101A6000059663E074E040E550E00E94830108952C
:101A700087E094E066E973E040E550E00E9483016E
:101A80008EE094E061E772E00E942D0D089587E0FA
:101A900094E00E944202882309F4CDC089E495E0D5
:101AA00064EA72E00E94791687E094E062EC72E0EA
:101AB0000E94791687E094E062EF72E00E94791646
:101AC00040911A0450911B0460911C0470911D04F4
:101AD0004F5F5F4F6F4F7F4F40931A0450931B042B
:101AE00060931C0470931D0441505040604070404E
:101AF00087E094E00E944D1787E094E068EF72E081
:101B00000E94791640912604509127046091280480
:101B10007091290487E094E00E944D1787E094E0DB
:101B200060E073E00E9479164091320450913304D2
:101B3000609134047091350487E094E00E9474173A
:101B400087E094E067E073E00E94981687E094E0F5
:101B500062E173E00E94791687E094E00E948116AA
:101B600082E794E06CE273E00E944B0180911A04DA
:101B700090911B04A0911C04B0911D0466E374E0D5
:101B80004AE050E00E94520182E794E066E374E08C
:101B90000E94400182E794E062E373E00E9440010A
:101BA0008091260490912704A0912804B0912904E3
:101BB0006EE574E04AE050E00E94520182E794E052
:101BC0006EE574E00E94400182E794E06AE373E00E
:101BD0000E9440018091D6049091D7046AE474E099
:101BE0004AE050E00E9452018EE094E062E774E027
:101BF0000E94C00C89E495E061E473E00E949816AD
:101C000010921A0410921B0410921C0410921D04CE
:101C1000109226041092270410922804109229048E
:101C2000109232041092330410923404109235044E
:101C300010927204089589E495E069E473E00E94CB
:101C4000981608954091DC045091DD046091DE0403
:101C50007091DF0489E495E00E9474178091DC04A0
:101C60009091DD04A091DE04B091DF04885293428C
:101C7000A040B040B1F44091DC045091DD0460918B
:101C8000DE047091DF0489E495E00E9474170E94DD
:101C9000470D1092DC041092DD041092DE041092C5
:101CA000DF0487E094E00E94DA01892B49F087E0A5
:101CB00094E00E94E601682F89E495E00E94711685
:101CC00061E070E080E090E00E9424128091DC04EA
:101CD0009091DD04A091DE04B091DF040196A11D76
:101CE000B11D8093DC049093DD04A093DE04B093D7
:101CF000DF0487E094E00E94980187E094E00E946E
:101D00000802089585E060E00E94CF128091D80417
:101D10009091D9048130910509F050C080911A0446
:101D200090911B04A0911C04B0911D040196A11D6B
:101D3000B11D80931A0490931B04A0931C04B093CC
:101D40001D041092D9041092D80485E061E00E942D
:101D5000CF1220911E0430911F0440912004509115
:101D6000210480911A0490911B04A0911C04B0914D
:101D70001D04820F931FA41FB51F84369105A10572
:101D8000B10509F58091220490912304A0912404C7
:101D9000B09125040196A11DB11D8093220490935A
:101DA0002304A0932404B093250410921E041092DF
:101DB0001F04109220041092210405C001969093F4
:101DC000D9048093D80480911A0490911B04A091A7
:101DD0001C04B0911D048F579649A849B04041F4A6
:101DE00010921A0410921B0410921C0410921D04ED
:101DF000089584E060E00E94CF128091DA0490910F
:101E0000DB048130910509F050C080912604909147
:101E10002704A0912804B09129040196A11DB11DA9
:101E20008093260490932704A0932804B093290458
:101E30001092DB041092DA0484E061E00E94CF1279
:101E400020912A0430912B0440912C0450912D04B0
:101E50008091260490912704A0912804B091290430
:101E6000820F931FA41FB51F84369105A105B105EC
:101E700009F580912E0490912F04A0913004B09127
:101E800031040196A11DB11D80932E0490932F045F
:101E9000A0933004B093310410922A0410922B04C2
:101EA00010922C0410922D0405C001969093DB042F
:101EB0008093DA048091260490912704A09128044D
:101EC000B09129048F5F904EA54FB54041F4109218
:101ED00026041092270410922804109229040895D1
:101EE0000F931F9309E415E0C80140E855E260E054
:101EF00070E00E945E14C8016FE673E00E949816BD
:101F000086E061E00E94AF1285E061E00E94AF12BE
:101F100084E061E00E94AF1286E060E00E94CF1290
:101F200085E060E00E94CF1284E060E00E94CF1262
:101F300082E060E00E94AF1283E060E00E94AF1296
:101F40008CEB93E064E873E04AE853E02EE833E07A
:101F500002E913E00E94A00280E069EF7EE041E028
:101F600050E00E94CA0F81E062E87EE041E050E06C
:101F70000E94CA0F68E873E180E090E00E9424129A
:101F80001F910F9108950E944E120E94700F0E949F
:101F9000220EFDCF883008F078C0E82FF0E0EE0F79
:101FA000FF1FE052FB4F718360838330D9F0843090
:101FB00030F4813009F444C0823060F439C0853097
:101FC00051F18530D8F0863009F446C0873009F0E9
:101FD0005CC04FC0809169008C7F842B8093690026
:101FE000E89A089580916900440F551F440F551FCA
:101FF000837F842B80936900E99A0895809169001A
:1020000074E0440F551F7A95E1F78F7C842B809301
:102010006900EA9A08958091690066E0440F551FAF
:102020006A95E1F78F73842B80936900EB9A08958A
:1020300080916A008C7F842B80936A00EC9A0895CB
:1020400080916A00440F551F440F551F837F842BD6
:1020500080936A00ED9A089580916A0024E0440F0D
:10206000551F2A95E1F78F7C842B80936A00EE9AA6
:10207000089580916A0096E0440F551F9A95E1F704
:102080008F73842B80936A00EF9A08951F920F92AA
:102090000FB60F920BB60F9211242F933F934F93CD
:1020A0005F936F937F938F939F93AF93BF93EF93C0
:1020B000FF938091E4049091E504892B29F0E0914D
:1020C000E404F091E5040995FF91EF91BF91AF9180
:1020D0009F918F917F916F915F914F913F912F9140
:1020E0000F900BBE0F900FBE0F901F9018951F9270
:1020F0000F920FB60F920BB60F9211242F933F93AE
:102100004F935F936F937F938F939F93AF93BF93FF
:10211000EF93FF938091E6049091E704892B29F0D7
:10212000E091E604F091E7040995FF91EF91BF91EA
:10213000AF919F918F917F916F915F914F913F915F
:102140002F910F900BBE0F900FBE0F901F90189500
:102150001F920F920FB60F920BB60F9211242F936E
:102160003F934F935F936F937F938F939F93AF931F
:10217000BF93EF93FF938091E8049091E904892B3A
:1021800029F0E091E804F091E9040995FF91EF91BD
:10219000BF91AF919F918F917F916F915F914F917F
:1021A0003F912F910F900BBE0F900FBE0F901F907D
:1021B00018951F920F920FB60F920BB60F92112423
:1021C0002F933F934F935F936F937F938F939F933F
:1021D000AF93BF93EF93FF938091EA049091EB0448
:1021E000892B29F0E091EA04F091EB040995FF9125
:1021F000EF91BF91AF919F918F917F916F915F917F
:102200004F913F912F910F900BBE0F900FBE0F90EB
:102210001F9018951F920F920FB60F920BB60F9248
:1022200011242F933F934F935F936F937F938F93DB
:102230009F93AF93BF93EF93FF938091E0049091AE
:10224000E104892B29F0E091E004F091E104099583
:10225000FF91EF91BF91AF919F918F917F916F917E
:102260005F914F913F912F910F900BBE0F900FBE3A
:102270000F901F9018951F920F920FB60F920BB6EA
:102280000F9211242F933F934F935F936F937F93FC
:102290008F939F93AF93BF93EF93FF938091E2044B
:1022A0009091E304892B29F0E091E204F091E3049A
:1022B0000995FF91EF91BF91AF919F918F917F9180
:1022C0006F915F914F913F912F910F900BBE0F90A7
:1022D0000FBE0F901F9018951F920F920FB60F927E
:1022E0000BB60F9211242F933F934F935F936F93ED
:1022F0007F938F939F93AF93BF93EF93FF938091BF
:10230000EC049091ED04892B29F0E091EC04F0911C
:10231000ED040995FF91EF91BF91AF919F918F913E
:102320007F916F915F914F913F912F910F900BBED5
:102330000F900FBE0F901F9018951F920F920FB61F
:102340000F920BB60F9211242F933F934F935F93ED
:102350006F937F938F939F93AF93BF93EF93FF936D
:102360008091EE049091EF04892B29F0E091EE0426
:10237000F091EF040995FF91EF91BF91AF919F917B
:102380008F917F916F915F914F913F912F910F901E
:102390000BBE0F900FBE0F901F9018951F920F92BB
:1023A0000FB60F9211242F933F938F939F93AF9368
:1023B000BF938091F4049091F504A091F604B0913C
:1023C000F7043091F8040196A11DB11D232F2D5F54
:1023D0002D3720F02D570196A11DB11D2093F80433
:1023E0008093F4049093F504A093F604B093F7045B
:1023F0008091F0049091F104A091F204B091F30463
:102400000196A11DB11D8093F0049093F104A09357
:10241000F204B093F304BF91AF919F918F913F91DC
:102420002F910F900FBE0F901F9018958FB7F894B3
:102430002091F4043091F5044091F6045091F70492
:102440008FBFB901CA010895EF92FF920F931F93B6
:102450007B018C018FB7F8944091F4045091F504FE
:102460006091F6047091F7048FBF2FB7F8948091B4
:10247000F4049091F504A091F604B091F7042FBFF5
:10248000841B950BA60BB70BE816F9060A071B076A
:1024900060F71F910F91FF90EF900895789484B5A5
:1024A000826084BD84B5816084BD85B5826085BD50
:1024B00085B5816085BDEEE6F0E080818160808336
:1024C000E1E8F0E0808182608083808181608083A8
:1024D000E0E8F0E0808181608083E1EBF0E08081E2
:1024E00084608083E0EBF0E0808181608083E1E9BB
:1024F000F0E0808182608083808181608083E1EA76
:10250000F0E0808182608083808181608083E1E26D
:10251000F1E0808182608083808181608083E0E956
:10252000F0E0808181608083E0EAF0E0808181607A
:102530008083E0E2F1E0808181608083EAE7F0E07F
:1025400080818460808380818260808380818160DB
:1025500080838081806880831092C1000895282F35
:1025600030E0C90188589E4FFC0194912E5C3E4F8B
:10257000F9018491882391F0E82FF0E0EE0FFF1F1E
:10258000EC51FF4FA591B491662329F48C9190955D
:1025900089238C9308958C91892B8C930895482FCF
:1025A00050E0CA0182549E4FFC012491CA01885810
:1025B0009E4FFC0194914E5C5E4FFA01349133239F
:1025C00009F477C0222309F462C0233021F48091FA
:1025D00080008F7705C0243031F4809180008F7D9A
:1025E0008093800054C0213019F484B58F7704C0E3
:1025F000223021F484B58F7D84BD49C0263021F47A
:102600008091B0008F7705C0273031F48091B00001
:102610008F7D8093B0003BC0283021F480919000E2
:102620008F7705C0293031F4809190008F7D8093A1
:1026300090002DC02A3021F480919000877FF7CF41
:102640002B3021F48091A0008F770BC02C3021F427
:102650008091A0008F7D05C02D3031F48091A000C5
:10266000877F8093A00013C02E3021F48091200139
:102670008F770BC02F3021F4809120018F7D05C012
:10268000203129F480912001877F80932001E32F5E
:10269000F0E0EE0FFF1FE250FF4FA591B4916623CB
:1026A00029F48C91909589238C9308958C91892B92
:1026B0008C9308951F920F920FB60F920BB60F9244
:1026C00011242F933F934F935F936F937F938F9337
:1026D0009F93AF93BF93EF93FF934091C600E09118
:1026E0000905F0910A05CF01019660E170E00E94B2
:1026F0009E179C0180910B0590910C0528173907B6
:1027000039F0E750FB4F408330930A0520930905C9
:10271000FF91EF91BF91AF919F918F917F916F91B9
:102720005F914F913F912F910F900BBE0F900FBE75
:102730000F901F9018951F920F920FB60F920BB625
:102740000F9211242F933F934F935F936F937F9337
:102750008F939F93AF93BF93EF93FF934091CE00DE
:10276000E0911D05F0911E05CF01019660E170E03A
:102770000E949E179C0180911F05909120052817AB
:10278000390739F0E35FFA4F408330931E052093F9
:102790001D05FF91EF91BF91AF919F918F917F9117
:1027A0006F915F914F913F912F910F900BBE0F90C2
:1027B0000FBE0F901F9018951F920F920FB60F9299
:1027C0000BB60F9211242F933F934F935F936F9308
:1027D0007F938F939F93AF93BF93EF93FF9340911A
:1027E000D600E0913105F0913205CF01019660E10C
:1027F00070E00E949E179C018091330590913405F2
:102800002817390739F0EF5DFA4F408330933205CE
:1028100020933105FF91EF91BF91AF919F918F91DF
:102820007F916F915F914F913F912F910F900BBED0
:102830000F900FBE0F901F9018951F920F920FB61A
:102840000F920BB60F9211242F933F934F935F93E8
:102850006F937F938F939F93AF93BF93EF93FF9368
:1028600040913601E0914505F0914605CF01019672
:1028700060E170E00E949E179C0180914705909155
:1028800048052817390739F0EB5CFA4F408330933D
:10289000460520934505FF91EF91BF91AF919F9120
:1028A0008F917F916F915F914F913F912F910F90F9
:1028B0000BBE0F900FBE0F901F9018955F926F92F6
:1028C0007F928F929F92AF92BF92CF92DF92EF92C0
:1028D000FF920F931F93CF93DF93EC013A014B01CB
:1028E000413482E458078FE0680780E078070CF0F5
:1028F0007FC060E874E88EE190E0A40193010E943B
:10290000D3172150304040405040CA01B90122E065
:1029100030E040E050E00E94D31759016A01A6015F
:102920009501209530954095509594E0220F331FE6
:10293000441F551F9A95D1F760E074E284EF90E050
:102940000E94D317CA01B9012FEF30E040E050E0F8
:102950000E947F17A40193010E94D317C9018150DF
:102960009F4F181619061CF4522E5A9403C0552472
:102970005394521A60E079E08DE390E0A401930152
:102980000E94D3172150304040405040CA01B90145
:1029900022E030E040E050E00E94D31720953095CF
:1029A0004095509583E0220F331F441F551F8A9591
:1029B000D1F760E074E284EF90E00E94D317CA017F
:1029C000B9012FEF30E040E050E00E947F17A401F2
:1029D00093010E94D317C90181509F4F1816190601
:1029E0001CF4822F815002C081E0821B851500F506
:1029F000E885F98581E090E00A8802C0880F991F78
:102A00000A94E2F7808360E079E08DE390E0A4012E
:102A100093010E94D3172150304040405040CA01DA
:102A2000B90122E030E040E050E00E94D31704C03A
:102A3000E885F98510829501EC81FD813083EE8176
:102A4000FF812083EA85FB85208141E050E0CA01B7
:102A50000E8402C0880F991F0A94E2F7282B208366
:102A6000EA85FB852081CA010F8402C0880F991F67
:102A70000A94E2F7282B2083EA85FB858081088869
:102A800002C0440F551F0A94E2F7842B8083DF9124
:102A9000CF911F910F91FF90EF90DF90CF90BF905B
:102AA000AF909F908F907F906F905F900895FC0102
:102AB000A085B18521898C9190E0022E02C0959568
:102AC00087950A94E2F780FFF6CF0484F585E02D20
:102AD000608308952CEA33E030934A05209349053A
:102AE00089EF94E090934C0580934B0585EC90E042
:102AF00090934E0580934D0584EC90E090935005A3
:102B000080934F0580EC90E090935205809351059F
:102B100081EC90E0909354058093530586EC90E00F
:102B20009093560580935505E4E0E093570573E0D4
:102B30007093580567E06093590555E050935A0526
:102B400041E040935B0530935D0520935C058DE08B
:102B500095E090935F0580935E058DEC90E09093F7
:102B60006105809360058CEC90E090936305809301
:102B7000620588EC90E0909365058093640589EC8C
:102B800090E090936705809366058EEC90E09093BB
:102B9000690580936805E0936A0570936B056093FF
:102BA0006C0550936D0540936E053093700520932E
:102BB0006F0581E295E0909372058093710585ED34
:102BC00090E0909374058093730584ED90E090936A
:102BD00076058093750580ED90E09093780580935D
:102BE000770581ED90E090937A058093790586EDE5
:102BF00090E090937C0580937B05E0937D05709336
:102C00007E0560937F055093800540938105309346
:102C100083052093820585E395E090938505809355
:102C2000840585E391E0909387058093860584E38E
:102C300091E0909389058093880580E391E09093DB
:102C40008B0580938A0581E391E090938D058093B5
:102C50008C0586E391E090938F0580938E05E09339
:102C6000900570939105609392055093930540935E
:102C7000940508950F931F93CF93DF938C01EB017D
:102C800009C02196D801ED91FC910190F081E02DD1
:102C9000C801099568816623A1F7DF91CF911F9143
:102CA0000F910895EF92FF920F931F93CF93DF93AD
:102CB0008C017B01EA010CC0D7016D917D01D80127
:102CC000ED91FC910190F081E02DC80109952197CB
:102CD000209791F7DF91CF911F910F91FF90EF9087
:102CE0000895DC01ED91FC910190F081E02D0995B2
:102CF0000895DC01ED91FC910280F381E02D0995AE
:102D000008950F931F938C01DC01ED91FC910190CC
:102D1000F081E02D6DE00995D801ED91FC910190D5
:102D2000F081E02DC8016AE009951F910F91089587
:102D30000F931F938C010E947916C8010E9481167F
:102D40001F910F9108952F923F924F925F926F9231
:102D50007F928F929F92AF92BF92CF92DF92EF922B
:102D6000FF920F931F93DF93CF93CDB7DEB7A0975A
:102D70000FB6F894DEBF0FBECDBF1C016A017B0108
:102D8000411551056105710549F4DC01ED91FC9196
:102D90000190F081E02D60E3099554C088249924C6
:102DA0005401422E55246624772401E010E00C0FD4
:102DB0001D1F080D191DC701B601A30192010E9434
:102DC000B117F80160830894811C911CA11CB11CEF
:102DD000C701B601A30192010E94B117C901DA012E
:102DE0006C017D01C114D104E104F104F1F681E02C
:102DF000E82EF12CEC0EFD1EE80CF91C3E010894A7
:102E0000611C711CD501C4010197A109B1096C01B4
:102E1000C818D90814C0F601EE0DFF1D60816A3094
:102E200010F4605D01C0695CD101ED91FC910190ED
:102E3000F081E02DC10109950894E108F1086E14B4
:102E40007F0449F7A0960FB6F894DEBF0FBECDBF42
:102E5000CF91DF911F910F91FF90EF90DF90CF9076
:102E6000BF90AF909F908F907F906F905F904F90AA
:102E70003F902F9008952AE00E94A31608950F9383
:102E80001F938C01AB0160E070E00E943B17C8010A
:102E90000E9481161F910F910895EF92FF920F9358
:102EA0001F93CF93DF93EC017A018B0177FF0FC063
:102EB000E881F9810190F081E02D6DE2099510958E
:102EC0000095F094E094E11CF11C011D111DCE0150
:102ED000B801A7012AE00E94A316DF91CF911F91AC
:102EE0000F91FF90EF9008950F931F938C010E9414
:102EF0004D17C8010E9481161F910F910895629F7E
:102F0000D001739FF001829FE00DF11D649FE00DE1
:102F1000F11D929FF00D839FF00D749FF00D659F42
:102F2000F00D9927729FB00DE11DF91F639FB00D41
:102F3000E11DF91FBD01CF011124089597FB092E52
:102F400007260AD077FD04D049D006D000201AF415
:102F5000709561957F4F0895F6F7909581959F4FF5
:102F60000895A1E21A2EAA1BBB1BFD010DC0AA1FCA
:102F7000BB1FEE1FFF1FA217B307E407F50720F0E2
:102F8000A21BB30BE40BF50B661F771F881F991F5D
:102F90001A9469F760957095809590959B01AC01A6
:102FA000BD01CF01089597FB092E05260ED057FDD0
:102FB00004D0D7DF0AD0001C38F4509540953095E6
:102FC00021953F4F4F4F5F4F0895F6F790958095AD
:102FD000709561957F4F8F4F9F4F0895AA1BBB1B24
:102FE00051E107C0AA1FBB1FA617B70710F0A61B09
:102FF000B70B881F991F5A95A9F780959095BC012A
:10300000CD010895EE0FFF1F0590F491E02D099476
:1030100012E0CAE0D2E004C0FE010E940418229629
:0A302000CC30D107C9F7F894FFCFB8
:10302A0061726475696E6F2D74776565742E61704F
:10303A007073706F742E636F6D00504F5354206815
:10304A007474703A2F2F61726475696E6F2D74777C
:10305A006565742E61707073706F742E636F6D2F57
:10306A0075706461746520485454502F312E3000B5
:10307A00436F6E74656E742D4C656E6774683A2082
:10308A0000746F6B656E3D00267374617475733DD1
:10309A00003231343231343931302D77676A6E5922
:1030AA0037766A775A456E4A34636C3864716F5062
:1030BA00616858393062564C6D59354D58397969BD
:1030CA004E437300566572626F6E64656E2E2E2EC5
:1030DA0064617461207665727A656E64656E2E2EFF
:1030EA002E0047455420687474703A2F2F313932B4
:1030FA002E3136382E322E31302F7068704D79418C
:10310A00646D696E2F6D7973716C76756C2E70684B
:10311A007000264741533D002657415445523D0011
:10312A0026454C45433D00485454502F312E310D0D
:10313A000A00486F73743A20687474703A2F2F31FA
:10314A0039322E3136382E322E3130004741533D36
:10315A00200057415445523D2000454C45433D20EF
:10316A00006765726565642100202A2A2A2A2A20B6
:10317A0056455242494E44494E47204E49455420ED
:10318A004D4F47454C494A4B202A2A2A2A2A0050A1
:10319A00726F6772616D6D612067657374617274B5
:1031AA002E2E2E0090A2DA008A13C0A8020DC0A803
:1031BA0002FEFFFFFF00C0A8020A000000001E0274
:1031CA0033021702002040020000000057153A1689
:0231DA0052168B
:00000001FF
