:100000000C9463000C942A0A0C94570A0C948B00ED
:100010000C948B000C948B000C948B000C948B0034
:100020000C948B000C948B000C948B000C948B0024
:100030000C948B000C948B000C948B000C948B0014
:100040000C94840A0C948B000C94C90B0C948B00B8
:100050000C948B000C948B000C948B000C948B00F4
:100060000C948B000C948B000000000024002700EF
:100070002A0000000000250028002B0000000000DE
:1000800023002600290004040404040404040202DA
:100090000202020203030303030301020408102007
:1000A0004080010204081020010204081020000012
:1000B0000007000201000003040600000000000029
:1000C00000007507120D11241FBECFEFD8E0DEBF70
:1000D000CDBF12E0A0E0B1E0E4E1FEE102C0059096
:1000E0000D92AA30B107D9F712E0AAE0B2E001C040
:1000F0001D92AD3AB107E1F710E0C6ECD0E004C0C4
:100100002297FE010E94040FC23CD107C9F70E944A
:10011000000A0C94080F0C940000FC018AEF91E097
:100120009183808374836383568345838FEF8283B7
:100130000895FC0182818F3F11F480E008950E94B0
:10014000C9050895EF92FF920F931F93CF93DF930A
:10015000EC018A818F3F89F10E94E1010E94CC0A63
:100160007B018C01CE010E949900882301F10E943D
:10017000CC0A6E197F09800B910B685E734080403A
:100180009040A8F461E070E080E090E00E94DA0A1C
:10019000E9CF8A810E945502EA81F0E0EE0FFF1F4D
:1001A000E45FFD4F118210828FEF8A8306C0CE017B
:1001B0000E949900882381F3ECCFDF91CF911F91AA
:1001C0000F91FF90EF900895FC0182818F3F19F409
:1001D00020E030E003C00E9413069C01C90108958D
:1001E000CF93DF93EC018A818F3F11F480E015C03B
:1001F000CE010E949900843171F0882361F088312A
:1002000051F08C3131F4CE010E94E40020E0892BC2
:1002100019F021E001C020E0822FDF91CF910895F5
:100220000F931F93DF93CF930F92CDB7DEB78C015F
:100230000E94E400892B19F42FEF3FEF0CC0F80166
:100240008281BE016F5F7F4F41E050E00E94D80283
:100250008981282F30E0C9010F90CF91DF911F9144
:100260000F910895FC0182818F3F11F00E94FC02E2
:100270000895DF93CF930F92CDB7DEB76983FC016A
:1002800082818F3F39F0BE016F5F7F4F41E050E0C8
:100290000E94FC020F90CF91DF910895FC018281B2
:1002A0008F3F51F0DB010D900020E9F71197A61B5D
:1002B000B70BAD010E94FC0208950F931F93CF93DB
:1002C000DF938C01FC0182818F3F09F04EC0C0E0BA
:1002D000D0E08C2F0E94C905882311F0883119F4D1
:1002E000F801C28304C02196C430D10591F7F8010A
:1002F00022812F3FD1F180910A0290910B02019649
:1003000090930B0280930A0280509C4F21F410922C
:100310000B0210920A0240910A0250910B024050C7
:100320005C4F822F61E020E00E947402F80163813B
:1003300074814581568182810E94F40109C061E087
:1003400070E080E090E00E94DA0AC8010E94990003
:10035000882321F48FEFF801828307C0C8010E942F
:100360009900873161F781E001C080E0DF91CF9192
:100370001F910F910895AF92BF92CF92DF92EF92AB
:10038000FF920F931F937B016A0159010E9441055F
:1003900085E565E50E940C04C7010E948105C60140
:1003A0000E94AB05C5010E944505C8010E94630576
:1003B0001F910F91FF90EF90DF90CF90BF90AF9083
:1003C0000895CF93DF9390E0D82FCC27CF5FDB4FFA
:1003D000CE0168E00E947503CE010E949403882339
:1003E000D9F7DF91CF910895CF92DF92EF92FF92EC
:1003F0000F931F93CF93DF93082FEB016A0168815E
:100400006F3F51F489818F3F91F48A818F3F79F456
:100410008B818F3F61F43FC0662349F48981882333
:1004200031F48A81882319F48B818823A1F1C114C6
:10043000D10489F110E00C5F1F4FF02EEE24C701AC
:100440000C960E947503C7010D9669810E94750381
:10045000C7010E966A810E947503C7010F966B81D2
:100460000E9475038701005F1F4FC8016D2D0E9418
:100470007503C80101966C2D0E947503E701219652
:10048000CE0164E00E947503CE010E94940388238C
:10049000D9F781E001C080E0DF91CF911F910F91EA
:1004A000FF90EF90DF90CF9008950F931F93CF931D
:1004B000DF93082F10E00C5F1F4FD02FCC27219621
:1004C000CE0160E10E947503CE010E94940388234F
:1004D000D9F7902F882702966FEF0E947503DF915E
:1004E000CF911F910F910895CF92DF92EF92FF92DB
:1004F0000F931F93CF93DF93082FE62EEA01F22E7E
:10050000862F8150853010F080E049C0802F0E94F6
:10051000550210E00C5F1F4FD02ECC24FE28C601E0
:100520006F2D0E947503B6E0000F111FBA95E1F719
:10053000209771F00F5F1F4F000F111F000F111F49
:10054000C8016D2F0E947503C80101966C2F18C059
:1005500020911502309116022F5F3F4F3093160203
:10056000209315020F5F1F4F000F111F000F111F67
:10057000C801632F0E947503C8010196609115029E
:100580000E94750386010F5F1F4FC80161E00E9442
:100590007503C8010E9494038823D9F781E0DF9195
:1005A000CF911F910F91FF90EF90DF90CF90089522
:1005B000FF920F931F93CF93DF93F82E8A0141157B
:1005C000510519F440E050E010C00E943007DF2DC3
:1005D000C0E0CF5FDB4FCE0160E40E947503CE0127
:1005E0000E9494038823D9F7A801CA01DF91CF9113
:1005F0001F910F91FF9008956F927F928F929F921B
:10060000BF92CF92DF92EF92FF920F931F93CF93FF
:10061000DF93B82E3B01EA010E946C038C179D0703
:1006200010F08E0104C08B2D0E946C038C01EB2C0A
:10063000FF2484E090E0E80EF91EDE2CCC2453E089
:10064000852E912C8C0C9D1C8B2D0E94D105EC01CC
:10065000C4010E949403873129F08C3119F000E025
:1006600010E003C0C017D10778F38B2DB301A801A8
:100670000E94A106E6012196CE0160E20E94750368
:10068000CE010E9494038823D9F70BC0C4010E94B5
:100690009403882349F48B2D0E94550200E010E05A
:1006A0000CC0DE2DCC272296CE010E94940384FF3D
:1006B000EDCFCE0160E10E947503C801DF91CF91BB
:1006C0001F910F91FF90EF90DF90CF90BF909F9080
:1006D0008F907F906F900895E82FF0E0EE0FFF1F4E
:1006E000E95DFD4F808191810895282F84B18C624E
:1006F00084B92A9A85B1877D85B980E58CBD2A9811
:1007000080EF8EBD0DB407FEFDCF9EBD0DB407FE7C
:10071000FDCF2EBD0DB407FEFDCF6EBD0DB407FE9F
:10072000FDCF2A9A81E00895282F84B18C6284B984
:100730002A9A85B1877D85B980E58CBD2A988FE09E
:100740008EBD0DB407FEFDCF9EBD0DB407FEFDCFDF
:100750002EBD0DB407FEFDCF1EBC0DB407FEFDCFB0
:100760008EB52A9A0895DC0184B18C6284B92A9AE4
:1007700085B1877D85B980E58CBD20E030E090EFC4
:1007800019C02A989EBD0DB407FEFDCFBEBD0DB4A5
:1007900007FEFDCFAEBD0DB407FEFDCFFB01E20F9E
:1007A000F31F80818EBD0DB407FEFDCF2A9A2F5F07
:1007B0003F4F11962417350720F3CA010895DC0135
:1007C00084B18C6284B92A9A85B1877D85B980E528
:1007D0008CBD20E030E09FE01AC02A989EBD0DB489
:1007E00007FEFDCFBEBD0DB407FEFDCFAEBD0DB4FF
:1007F00007FEFDCF1EBC0DB407FEFDCF8EB5FB017D
:10080000E20FF31F80832A9A2F5F3F4F1196241720
:10081000350718F3CA0108952F923F924F925F92C5
:100820006F927F928F929F92AF92BF92CF92DF9200
:10083000EF92FF920F931F93DF93CF9300D000D0DE
:10084000CDB7DEB7182F062F8BE190E0612F0E9405
:1008500075038AE190E0602F0E94750380E090E4C8
:10086000909338028093370280E090E690934002A4
:1008700080933F0267E272E08FE292E09C838B8379
:10088000FFE1CF2EF2E0DF2EE7E1EE2EE2E0FE2EDA
:10089000AA24BB24662477248824992440E050E0CD
:1008A000E12FF0E0FA83E983202E3324FB0111824B
:1008B0001082EB81FC8111821082F0E06F16F0E271
:1008C0007F06DCF589819A81042E02C09595879573
:1008D0000A94E2F78370907081309105A1F0823024
:1008E00091051CF4892B39F028C08230910599F0CC
:1008F000039719F518C080E094E0FB019183808391
:100900008FEF93E017C080E098E0FB019183808334
:100910008FEF97E00FC080E090E1FB01918380832F
:100920008FEF9FE007C080E090E2FB01918380831E
:100930008FEF9FE1F7019183808390E0891690E229
:1009400099060CF03EC0C101042E02C09595879512
:100950000A94E2F78370907081309105A9F082309B
:1009600091051CF4892B39F02CC082309105A9F037
:10097000039739F51BC080E094E0EB81FC81918303
:1009800080838FEF93E01AC080E098E0EB81FC81D8
:10099000918380838FEF97E011C080E090E1EB813D
:1009A000FC81918380838FEF9FE008C080E090E21C
:1009B000EB81FC81918380838FEF9FE1F60191832E
:1009C0008083FB0140805180EB81FC81008111819B
:1009D000A114B104F1F0FA01E95CFD4FDA01AB5D5D
:1009E000BD4F8D919C91329122913296820F931F2F
:1009F00091838083FA01E15CFD4FDA01A35DBD4F75
:100A00008D919C91329122913296820F931F918306
:100A100080830894A11CB11C6E5F7F4F4E5F5F4FB7
:100A20008B819C8102969C838B83E2E0F0E0CE0E6A
:100A3000DF1EEE0EFF1EF4E0AF16B10429F0640CC9
:100A4000751C800E911E32CF0F900F900F900F905B
:100A5000CF91DF911F910F91FF90EF90DF90CF909A
:100A6000BF90AF909F908F907F906F905F904F90CE
:100A70003F902F900895682F80E090E80E947503C2
:100A8000089580E80E943B0508950F931F938C0101
:100A900081E090E0F80160810E94750382E090E0BF
:100AA000F80161810E94750383E090E0F8016281A2
:100AB0000E94750384E090E0F80163810E94750351
:100AC0001F910F9108950F931F938C0185E090E083
:100AD000F80160810E94750386E090E0F801618171
:100AE0000E94750387E090E0F80162810E9475031F
:100AF00088E090E0F80163810E9475031F910F91D7
:100B000008950F931F938C0189E090E0F8016081B4
:100B10000E9475038AE090E0F80161810E947503EC
:100B20008BE090E0F80162810E9475038CE090E018
:100B3000F80163810E9475038DE090E0F801648103
:100B40000E9475038EE090E0F80165810E947503B4
:100B50001F910F9108950F931F938C018FE090E0E8
:100B6000F80160810E94750380E190E0F8016181E5
:100B70000E94750381E190E0F80162810E94750393
:100B800082E190E0F80163810E9475031F910F914B
:100B9000089590E0982F88278D5F9B4F0E949403C3
:100BA00008958F929F92AF92BF92CF92DF92EF9271
:100BB000FF920F931F93CF93DF9390E0982F882796
:100BC000805E9B4F4C015C010894A11CB11CC0E0ED
:100BD000D0E0C4010E949403F82EEE24C5010E94C7
:100BE00094036701C80ED11CC114D10459F0C4018B
:100BF0000E949403182F00E0C5010E949403E801AD
:100C0000C80FD11DCC15DD0521F7CE01DF91CF91A5
:100C10001F910F91FF90EF90DF90CF90BF90AF901A
:100C20009F908F9008958F929F92AF92BF92CF9294
:100C3000DF92EF92FF920F931F93CF93DF9390E099
:100C40000496982F882716E2812E912C880E991EE3
:100C5000B7E2AB2EB12CA80EB91EC0E0D0E0C401A3
:100C60000E949403F82EEE24C5010E9494036701AC
:100C7000C80ED11CC114D10459F0C4010E949403C0
:100C8000182F00E0C5010E949403E801C80FD11D90
:100C9000CC15DD0521F7CE01DF91CF911F910F918A
:100CA000FF90EF90DF90CF90BF90AF909F908F908C
:100CB0000895CF92DF92EF92FF920F931F93CF93FD
:100CC000DF937B01E901E82FF0E0EE0FFF1FDF016A
:100CD000A95EBD4F8D919C914823592387E3C82E6F
:100CE00082E0D82ECE0EDF1ED6012D913C91240F2E
:100CF000351FE95DFD4F0190F081E02DCA018C0F99
:100D00009D1FE817F90780F48F01041B150BC9011B
:100D1000A8010E94B303C01BD10BF6018081918111
:100D20000E0D1F1DB80101C0C901AE010E94B30321
:100D3000DF91CF911F910F91FF90EF90DF90CF90B7
:100D400008957F928F929F92AF92BF92CF92DF923F
:100D5000EF92FF920F931F93782E4B015A01E82ECA
:100D6000FF2484E090E0E80EF91EFE2CEE2424E23D
:100D7000C22ED12CCE0CDF1CC6010E949403182F6A
:100D800000E085E290E0E80EF91EC7010E9494039E
:100D9000080F111D872DB401A80195010E94590665
:100DA0000A0D1B1DC601612F0E947503C701602F2C
:100DB0000E9475031F910F91FF90EF90DF90CF90ED
:100DC000BF90AF909F908F907F900895CF92DF92C9
:100DD000EF92FF920F931F93CF93DF937A01E90174
:100DE000E82FF0E0EE0FFF1FDF01A15EBD4F8D91F8
:100DF0009C91682379234FE3C42E42E0D42ECE0E7B
:100E0000DF1ED6012D913C91260F371FE15DFD4F6E
:100E10000190F081E02DCE01860F971FE817F907AA
:100E200088F48F01061B170BC901B701A8010E94A6
:100E3000DF03C01BD10BF601808191810E0D1F1DB8
:100E4000B80102C0C901B701AE010E94DF03DF9102
:100E5000CF911F910F91FF90EF90DF90CF90089569
:100E60007F928F929F92AF92BF92CF92DF92EF923A
:100E7000FF920F931F93782E4B015A01E82EFF2407
:100E800084E090E0E80EF91EFE2CEE2468E2C62E07
:100E9000D12CCE0CDF1CC6010E949403182F00E059
:100EA00089E290E0E80EF91EC7010E949403080F42
:100EB000111D872DB801A40195010E94E6060A0DB7
:100EC0001B1DC601612F0E947503C701602F0E9480
:100ED00075031F910F91FF90EF90DF90CF90BF901F
:100EE000AF909F908F907F9008958CE492E061EF97
:100EF00071E040E550E00E948D0008958CE492E09E
:100F00000E945D01882309F481C08AE992E060E0D3
:100F100071E00E948B0D8CE492E06FE171E00E9421
:100F20008B0D8CE492E061E571E00E948B0D609185
:100F3000530270915402809155029091560224E61A
:100F400030E040E050E00E94D30E8CE492E0BA0121
:100F5000A9010E944D0E8CE492E067E571E00E94C9
:100F60008B0D60915F02709160028091610290919F
:100F700062022AE030E040E050E00E94D30E8CE4B0
:100F800092E0BA01A9010E944D0E8CE492E06FE557
:100F900071E00E948B0D40916B0250916C02609148
:100FA0006D0270916E028CE492E00E94740E8CE4EB
:100FB00092E066E671E00E94AA0D8CE492E061E79F
:100FC00071E00E948B0D8CE492E00E94930D8AE9FF
:100FD00092E06DE871E00E94AA0D10925302109207
:100FE0005402109255021092560210925F02109213
:100FF0006002109261021092620210926B021092D3
:101000006C0210926D0210926E0206C08AE992E0A4
:1010100065E971E00E94AA0D0E94CC0A6093470224
:10102000709348028093490290934A02089585E0A4
:1010300060E00E947C0B8091730290917402813079
:10104000910509F050C08091530290915402A091F3
:101050005502B09156020196A11DB11D8093530215
:1010600090935402A0935502B093560210927402CA
:101070001092730285E061E00E947C0B2091570280
:10108000309158024091590250915A028091530276
:1010900090915402A0915502B0915602820F931F75
:1010A000A41FB51F885E9340A040B04009F5809111
:1010B0005B0290915C02A0915D02B0915E0201968C
:1010C000A11DB11D80935B0290935C02A0935D0211
:1010D000B0935E0210925702109258021092590279
:1010E00010925A0205C00196909374028093730285
:1010F0008091530290915402A0915502B0915602F2
:101100008F579649A849B04041F41092530210926B
:1011100054021092550210925602089584E060E045
:101120000E947C0B8091750290917602813091052E
:1011300009F050C080915F0290916002A09161021D
:10114000B09162020196A11DB11D80935F02909340
:101150006002A0936102B093620210927602109234
:10116000750284E061E00E947C0B20916302309163
:101170006402409165025091660280915F029091F5
:101180006002A0916102B0916202820F931FA41FBE
:10119000B51F885E9340A040B04009F5809167027A
:1011A00090916802A0916902B0916A020196A11D16
:1011B000B11D8093670290936802A0936902B09377
:1011C0006A021092630210926402109265021092F9
:1011D000660205C001969093760280937502809115
:1011E0005F0290916002A0916102B09162028F5FF4
:1011F000904EA54FB54041F410925F0210926002EC
:10120000109261021092620208950F931F930AE9EF
:1012100012E0C80140E855E260E070E00E94060C70
:10122000C8016BEB71E00E94AA0D86E061E00E94AC
:101230005C0B85E061E00E945C0B84E061E00E9451
:101240005C0B86E060E00E947C0B85E060E00E9421
:101250007C0B84E060E00E947C0B82E060E00E94F6
:101260005C0B83E060E00E945C0B84E192E06FED38
:1012700071E045EE51E029EE31E00DEE11E00E9403
:10128000BB010E947E0780E06EE878E041E050E01C
:101290000E94070A81E067E178E041E050E00E94A7
:1012A000070A1F910F91089580E00E943E0B9093D2
:1012B0007202809371028355934083369105C8F47E
:1012C00086E061E00E947C0B809177029091780229
:1012D00020916F02309170020197B1F42F5F3F4F60
:1012E0003093700220936F0210927802109277026E
:1012F000089586E060E00E947C0B81E090E090938E
:10130000780280937702089528553240C1F4809185
:101310006B0290916C02A0916D02B0916E020196E9
:10132000A11DB11D80936B0290936C02A0936D027E
:10133000B0936E021092700210926F020895809125
:101340006B0290916C02A0916D02B0916E028F5968
:101350009648A140B04041F410926B0210926C028A
:1013600010926D0210926E0208950E9454098CE44E
:1013700092E00E94E400892B49F08CE492E00E9404
:101380001001682F8AE992E00E94830D8CE492E0BC
:101390000E94F000882391F480914B02882371F021
:1013A0008AE992E00E94930D8AE992E060ED71E093
:1013B0000E94AA0D8CE492E00E94A2008CE492E0CC
:1013C0000E94F0008823A9F40E94CC0A20914702D1
:1013D000309148024091490250914A02621B730BBE
:1013E000840B950B615477478B41904010F00E941D
:1013F0007E078CE492E00E94F00080934B020895F7
:101400000E94040B0E9405090E94B509FDCF82309D
:1014100000F5E82FF0E0EE0FFF1FE758FD4F718356
:101420006083882319F08130A1F408C0809169009D
:101430008C7F842B80936900E89A089580916900DD
:10144000440F551F440F551F837F842B80936900E1
:10145000E99A08951F920F920FB60F9211242F93BD
:101460003F934F935F936F937F938F939F93AF932C
:10147000BF93EF93FF938091790290917A02892B29
:1014800029F0E0917902F0917A020995FF91EF91AC
:10149000BF91AF919F918F917F916F915F914F918C
:1014A0003F912F910F900FBE0F901F9018951F9294
:1014B0000F920FB60F9211242F933F934F935F9388
:1014C0006F937F938F939F93AF93BF93EF93FF930C
:1014D00080917B0290917C02892B29F0E0917B0224
:1014E000F0917C020995FF91EF91BF91AF919F918F
:1014F0008F917F916F915F914F913F912F910F90BD
:101500000FBE0F901F9018951F920F920FB60F925B
:1015100011242F933F938F939F93AF93BF93809109
:10152000810290918202A0918302B0918402309155
:1015300085020196A11DB11D232F2D5F2D3720F0AF
:101540002D570196A11DB11D209385028093810224
:1015500090938202A0938302B093840280917D02D3
:1015600090917E02A0917F02B09180020196A11D10
:10157000B11D80937D0290937E02A0937F02B09371
:101580008002BF91AF919F918F913F912F910F90CA
:101590000FBE0F901F9018958FB7F894209181027D
:1015A0003091820240918302509184028FBFB90131
:1015B000CA010895EF92FF920F931F937B018C0154
:1015C0008FB7F8944091810250918202609183021A
:1015D000709184028FBF2FB7F8948091810290910F
:1015E0008202A0918302B09184022FBF841B950BCD
:1015F000A60BB70BE816F9060A071B0760F71F9141
:101600000F91FF90EF900895789484B5826084BD27
:1016100084B5816084BD85B5826085BD85B58160F6
:1016200085BDEEE6F0E0808181608083E1E8F0E056
:10163000808182608083808181608083E0E8F0E047
:10164000808181608083E1EBF0E080818460808331
:10165000E0EBF0E0808181608083EAE7F0E0808168
:1016600084608083808182608083808181608083C8
:101670008081806880831092C10008958F7090915E
:10168000F5019295990F990F907C982B90937C007F
:1016900080917A00806480937A0080917A0086FD40
:1016A000FCCF2091780040917900942F80E030E0C9
:1016B000282B392BC9010895282F30E0C9018656FF
:1016C0009F4FFC0194912A573F4FF9018491882341
:1016D00091F0E82FF0E0EE0FFF1FE859FF4FA591C2
:1016E000B491662329F48C91909589238C93089565
:1016F0008C91892B8C930895482F50E0CA01825514
:101700009F4FFC012491CA0186569F4FFC01949182
:101710004A575F4FFA0134913323D1F1222331F13B
:10172000233021F4809180008F7705C0243031F47C
:10173000809180008F7D8093800018C0213019F443
:1017400084B58F7704C0223021F484B58F7D84BDA9
:101750000DC0263021F48091B0008F7705C027306E
:1017600029F48091B0008F7D8093B000E32FF0E0EA
:10177000EE0FFF1FEE58FF4FA591B491662329F499
:101780008C91909589238C9308958C91892B8C93BF
:1017900008951F920F920FB60F9211242F933F932B
:1017A0004F935F936F937F938F939F93AF93BF9369
:1017B000EF93FF934091C600E0919602F09197025B
:1017C000CF01019660E170E00E949E0E9C01809125
:1017D0009802909199022817390739F0EA57FD4F7E
:1017E00040833093970220939602FF91EF91BF912F
:1017F000AF919F918F917F916F915F914F913F91A9
:101800002F910F900FBE0F901F9018955F926F92BF
:101810007F928F929F92AF92BF92CF92DF92EF9280
:10182000FF920F931F93CF93DF93EC013A014B018B
:10183000413482E458078FE0680780E078070CF0B5
:101840007FC060E874E88EE190E0A40193010E94FB
:10185000D30E2150304040405040CA01B90122E02F
:1018600030E040E050E00E94D30E59016A01A60129
:101870009501209530954095509594E0220F331FA7
:10188000441F551F9A95D1F760E074E284EF90E011
:101890000E94D30ECA01B9012FEF30E040E050E0C2
:1018A0000E947F0EA40193010E94D30EC9018150B2
:1018B0009F4F181619061CF4522E5A9403C0552433
:1018C0005394521A60E079E08DE390E0A401930113
:1018D0000E94D30E2150304040405040CA01B9010F
:1018E00022E030E040E050E00E94D30E2095309599
:1018F0004095509583E0220F331F441F551F8A9552
:10190000D1F760E074E284EF90E00E94D30ECA0148
:10191000B9012FEF30E040E050E00E947F0EA401BB
:1019200093010E94D30EC90181509F4F18161906CA
:101930001CF4822F815002C081E0821B851500F5C6
:10194000E885F98581E090E00A8802C0880F991F38
:101950000A94E2F7808360E079E08DE390E0A401EF
:1019600093010E94D30E2150304040405040CA01A4
:10197000B90122E030E040E050E00E94D30E04C004
:10198000E885F98510829501EC81FD813083EE8137
:10199000FF812083EA85FB85208141E050E0CA0178
:1019A0000E8402C0880F991F0A94E2F7282B208327
:1019B000EA85FB852081CA010F8402C0880F991F28
:1019C0000A94E2F7282B2083EA85FB85808108882A
:1019D00002C0440F551F0A94E2F7842B8083DF91E5
:1019E000CF911F910F91FF90EF90DF90CF90BF901C
:1019F000AF909F908F907F906F905F900895FC01C3
:101A0000A085B18521898C9190E0022E02C0959528
:101A100087950A94E2F780FFF6CF0484F585E02DE0
:101A20006083089584E092E090939B0280939A02F1
:101A300086E892E090939D0280939C0285EC90E072
:101A400090939F0280939E0284EC90E09093A10279
:101A50008093A00280EC90E09093A3028093A20276
:101A600081EC90E09093A5028093A40286EC90E034
:101A70009093A7028093A60284E08093A80283E05B
:101A80008093A90287E08093AA0285E08093AB024D
:101A900081E08093AC0208950F931F93CF93DF935F
:101AA0008C01EB0109C02196D801ED91FC910190C8
:101AB000F081E02DC801099568816623A1F7DF91C7
:101AC000CF911F910F910895EF92FF920F931F9363
:101AD000CF93DF938C017B01EA010CC0D7016D919C
:101AE0007D01D801ED91FC910190F081E02DC801BC
:101AF00009952197209791F7DF91CF911F910F9131
:101B0000FF90EF900895DC01ED91FC910190F08140
:101B1000E02D09950895DC01ED91FC910280F3819F
:101B2000E02D099508950F931F938C01DC01ED9131
:101B3000FC910190F081E02D6DE00995D801ED91C7
:101B4000FC910190F081E02DC8016AE009951F9198
:101B50000F9108950F931F938C010E948B0DC80164
:101B60000E94930D1F910F9108952F923F924F92D3
:101B70005F926F927F928F929F92AF92BF92CF921D
:101B8000DF92EF92FF920F931F93DF93CF93CDB726
:101B9000DEB7A0970FB6F894DEBF0FBECDBF1C0115
:101BA0006A017B01411551056105710549F4DC01AC
:101BB000ED91FC910190F081E02D60E3099554C016
:101BC000882499245401422E55246624772401E068
:101BD00010E00C0F1D1F080D191DC701B601A30150
:101BE00092010E94B10EF80160830894811C911C3F
:101BF000A11CB11CC701B601A30192010E94B10E44
:101C0000C901DA016C017D01C114D104E104F104C0
:101C1000F1F681E0E82EF12CEC0EFD1EE80CF91C2B
:101C20003E010894611C711CD501C4010197A109F2
:101C3000B1096C01C818D90814C0F601EE0DFF1DDA
:101C400060816A3010F4605D01C0695CD101ED9182
:101C5000FC910190F081E02DC10109950894E10803
:101C6000F1086E147F0449F7A0960FB6F894DEBF12
:101C70000FBECDBFCF91DF911F910F91FF90EF90DD
:101C8000DF90CF90BF90AF909F908F907F906F909C
:101C90005F904F903F902F900895EF92FF920F9397
:101CA0001F93CF93DF93EC017A018B0177FF0FC075
:101CB000E881F9810190F081E02D6DE209951095A0
:101CC0000095F094E094E11CF11C011D111DCE0162
:101CD000B801A7012AE00E94B50DDF91CF911F91B5
:101CE0000F91FF90EF9008950F931F938C010E9426
:101CF0004D0EC8010E94930D1F910F910895629F90
:101D0000D001739FF001829FE00DF11D649FE00DF3
:101D1000F11D929FF00D839FF00D749FF00D659F54
:101D2000F00D9927729FB00DE11DF91F639FB00D53
:101D3000E11DF91FBD01CF011124089597FB092E64
:101D400007260AD077FD04D049D006D000201AF427
:101D5000709561957F4F0895F6F7909581959F4F07
:101D60000895A1E21A2EAA1BBB1BFD010DC0AA1FDC
:101D7000BB1FEE1FFF1FA217B307E407F50720F0F4
:101D8000A21BB30BE40BF50B661F771F881F991F6F
:101D90001A9469F760957095809590959B01AC01B8
:101DA000BD01CF01089597FB092E05260ED057FDE2
:101DB00004D0D7DF0AD0001C38F4509540953095F8
:101DC00021953F4F4F4F5F4F0895F6F790958095BF
:101DD000709561957F4F8F4F9F4F0895AA1BBB1B36
:101DE00051E107C0AA1FBB1FA617B70710F0A61B1B
:101DF000B70B881F991F5A95A9F780959095BC013C
:101E0000CD010895EE0FFF1F0590F491E02D099488
:041E1000F894FFCF74
:101E140056657262696E64656E2E2E2E7A656E64E6
:101E24002073656E736F72646174612E2E2E004789
:101E3400455420687474703A2F2F3139322E31365C
:101E4400382E3137382E32302F7068704D79416416
:101E54006D696E2F6D7973716C76756C2E70687008
:101E6400003F4741533D002657415445523D00260B
:101E7400454C45433D00485454502F312E310D0AF2
:101E840000486F73743A20687474703A2F2F313994
:101E9400322E3136382E3137382E323000676572A3
:101EA4006565642100202A2A2A2A2A20564552429E
:101EB400494E44494E47204E494554204D4F4745CD
:101EC4004C494A4B202A2A2A2A2A0050726F6772E8
:101ED400616D6D6120676573746172742E2E2E00BE
:101EE400646973636F6E6E656374696E672E0090C8
:101EF400A2DA008A13C0A8B228C0A8B201FFFFFF6B
:101F040000C0A8B214010000000039014E013201E2
:0A1F140000000000FF0C4C0D640DEE
:00000001FF
