:100000000C9463000C9419030C9446030C948B001D
:100010000C948B000C948B000C948B000C948B0034
:100020000C948B000C948B000C948B000C948B0024
:100030000C948B000C948B000C948B000C948B0014
:100040000C9473030C948B000C949A040C948B0006
:100050000C948B000C948B000C948B000C948B00F4
:100060000C948B000C948B000000000024002700EF
:100070002A0000000000250028002B0000000000DE
:1000800023002600290004040404040404040202DA
:100090000202020203030303030301020408102007
:1000A0004080010204081020010204081020000012
:1000B0000007000201000003040600000000000029
:1000C00000009002E30511241FBECFEFD8E0DEBF91
:1000D000CDBF11E0A0E0B1E0EEEBFDE002C0059085
:1000E0000D92AE32B107D9F711E0AEE2B1E001C036
:1000F0001D92A936B107E1F710E0C6ECD0E004C0CC
:100100002297FE010E94D906C23CD107C9F70E947E
:10011000EF020C94DD060C940000FB019F01E894B3
:100120004230C4F04532B4F44A3029F497FB1EF44F
:10013000909581959F4F642F77270E94C306805D1D
:100140008A330CF0895D8193CB010097A1F716F4F7
:100150005DE251931082C9010C94AE00DC01FC01F8
:10016000672F71917723E1F7329704C07C916D93EB
:1001700070836291AE17BF07C8F30895709316019C
:1001800060931501615070406230710530F081E07C
:1001900090E09093160180931501089580910B01D2
:1001A00060E00E944D0481E090E00E94E5038091B0
:1001B0000B0161E00E944D0481E090E00E94E503A4
:1001C00080910B0160E00E944D0461E070E080E0EE
:1001D00090E00E94BB030895EF92FF920F931F934C
:1001E000CF93DF937C018B010F701070C0910D01D4
:1001F000D0910E0108C0602F61708C2F0E944D04B9
:1002000015950795219680911301909114018C17F3
:100210009D078CF7C7010E94CE00DF91CF911F91FF
:100220000F91FF90EF900895EF92FF920F931F931D
:100230008C017B0194E0759567959A95E1F7C8016B
:100240000E94EC008FE0E822FF24C801B7010E9461
:10025000EC001F910F91FF90EF9008950F931F9363
:10026000CF93DF93EC018B018091070160E00E9446
:100270004D0480912E0190912F01892B29F08091BE
:10028000090160E00E944D04CE01B8010E94EC001B
:10029000DF91CF911F910F9108950F931F93CF93EB
:1002A000DF93EC018B018091070161E00E944D0416
:1002B00080912E0190912F01892B29F080910901C5
:1002C00060E00E944D04CE01B8010E941401DF914C
:1002D000CF911F910F910895CF92DF92FF920F93CC
:1002E0001F93CF93DF936C018B01FF240AC0C00FD3
:1002F000D11F6881772767FD7095C6010E944D0167
:10030000F394CF2DD0E0F80101900020E9F7319768
:10031000E01BF10BCE17DF0750F3DF91CF911F9158
:100320000F91FF90DF90CF9008950F931F93CF937D
:10033000DF93EC018B018091070160E00E944D0486
:1003400080912E0190912F01892B29F08091090134
:1003500060E00E944D04CE01B8010E941401DF91BB
:10036000CF911F910F910895EF92FF920F931F93DA
:10037000CF93DF937C01EB018A0162E070E00E9481
:1003800095018091150190911601019721F0229716
:1003900011F4085D1F4FC0E0D0E006C0C70164E162
:1003A00070E00E9495012196C017D107BCF3DF9140
:1003B000CF911F910F91FF90EF900895CF93DF930E
:1003C000EC0180910B0161E00E942D0480910701F6
:1003D00061E00E942D0480912E0190912F01892BC4
:1003E00029F08091090161E00E942D0480910D01A6
:1003F00061E00E942D0480910F0161E00E942D04B4
:100400008091110161E00E942D048091130161E04F
:100410000E942D0462E370E080E090E00E94BB0344
:10042000CE0163E070E00E942E0165E070E080E0A4
:1004300090E00E94BB03CE0163E070E00E942E01B9
:1004400084E690E00E94E503CE0163E070E00E9444
:100450002E0165E070E080E090E00E94BB03CE01D9
:1004600062E070E00E942E01CE0162E070E00E9426
:100470002E0160911501709116016150704023E0CA
:10048000660F771F2A95E1F7CE010E942E018CE3BB
:1004900090E00E94E503CE016CE070E00E949501BF
:1004A0008CE390E00E94E503CE0161E070E00E94E1
:1004B000950163E070E080E090E00E94BB03CE0114
:1004C00066E070E00E94950161E070E080E090E0FD
:1004D0000E94BB03DF91CF91089561E070E00E941C
:1004E000950161E070E080E090E00E94BB03089518
:1004F000809133019091340120E030E0892B11F498
:1005000021E030E0309334012093330180913101B8
:1005100090913201019690933201809331010895B8
:1005200080E391E062E070E00E94BE000895EF92E7
:10053000FF920F931F93609133017091340180916A
:1005400021010E944D0487E1E82E81E0F82E809180
:10055000310190913201B7014AE050E00E948D00D4
:1005600000E311E0C80161E070E046E050E00E9465
:10057000B401C801B7010E946C011F910F91FF9057
:10058000EF9008950F931F938091210161E00E94E5
:100590002D0400E311E0C8010E94DE01C8010E94A1
:1005A0006D02C80161E070E040E050E00E94B401DB
:1005B000C80160E071E00E946C0186E591E040E8CE
:1005C00055E260E070E00E94D70484E068E772E0E2
:1005D00041E050E00E94F6021F910F9108950E94A1
:1005E000F3030E94C2020E949702FDCF823000F501
:1005F000E82FF0E0EE0FFF1FEB5CFE4F718360838E
:10060000882319F08130A1F408C0809169008C7FA3
:10061000842B80936900E89A089580916900440FC3
:10062000551F440F551F837F842B80936900E99ADF
:1006300008951F920F920FB60F9211242F933F939C
:100640004F935F936F937F938F939F93AF93BF93DA
:10065000EF93FF938091350190913601892B29F01A
:10066000E0913501F09136010995FF91EF91BF912D
:10067000AF919F918F917F916F915F914F913F913A
:100680002F910F900FBE0F901F9018951F920F92F1
:100690000FB60F9211242F933F934F935F936F9355
:1006A0007F938F939F93AF93BF93EF93FF9380912B
:1006B000370190913801892B29F0E0913701F091B1
:1006C00038010995FF91EF91BF91AF919F918F9163
:1006D0007F916F915F914F913F912F910F900FBE3E
:1006E0000F901F9018951F920F920FB60F92112422
:1006F0002F933F938F939F93AF93BF9380913D012F
:1007000090913E01A0913F01B09140013091410193
:100710000196A11DB11D232F2D5F2D3720F02D57E0
:100720000196A11DB11D2093410180933D0190933D
:100730003E01A0933F01B093400180913901909117
:100740003A01A0913B01B0913C010196A11DB11D60
:100750008093390190933A01A0933B01B0933C01FF
:10076000BF91AF919F918F913F912F910F900FBEAD
:100770000F901F901895EF92FF920F931F937B019C
:100780008C018FB7F89440913D0150913E016091EA
:100790003F01709140018FBF2FB7F89480913D01C8
:1007A00090913E01A0913F01B09140012FBF841B69
:1007B000950BA60BB70BE816F9060A071B0760F79F
:1007C0001F910F91FF90EF900895019759F0FC0150
:1007D000EE0FFF1FEE0FFF1F32978FB7F894319780
:1007E000F1F78FBF0895789484B5826084BD84B595
:1007F000816084BD85B5826085BD85B5816085BD1C
:10080000EEE6F0E0808181608083E1E8F0E08081C5
:1008100082608083808181608083E0E8F0E0808175
:1008200081608083E1EBF0E0808184608083E0EB95
:10083000F0E0808181608083EAE7F0E0808184607D
:1008400080838081826080838081816080838081D9
:10085000806880831092C1000895282F30E0C9017C
:1008600086569F4FFC0194912A573F4FF90184917E
:10087000882391F0E82FF0E0EE0FFF1FE859FF4FBB
:10088000A591B491662329F48C91909589238C933A
:1008900008958C91892B8C930895482F50E0CA01BC
:1008A00082559F4FFC012491CA0186569F4FFC013F
:1008B00094914A575F4FFA0134913323D1F12223A7
:1008C00031F1233021F4809180008F7705C02430EE
:1008D00031F4809180008F7D8093800018C021309A
:1008E00019F484B58F7704C0223021F484B58F7D4C
:1008F00084BD0DC0263021F48091B0008F7705C0F3
:10090000273029F48091B0008F7D8093B000E32FD1
:10091000F0E0EE0FFF1FEE58FF4FA591B491662354
:1009200029F48C91909589238C9308958C91892B2F
:100930008C9308951F920F920FB60F9211242F934C
:100940003F934F935F936F937F938F939F93AF9357
:10095000BF93EF93FF934091C600E0915201F09155
:100960005301CF01019660E170E00E9473069C0183
:1009700080915401909155012817390739F0EE5BA9
:10098000FE4F40833093530120935201FF91EF912A
:10099000BF91AF919F918F917F916F915F914F9197
:1009A0003F912F910F900FBE0F901F9018955F925F
:1009B0006F927F928F929F92AF92BF92CF92DF926F
:1009C000EF92FF920F931F93CF93DF93EC013A01C5
:1009D0004B01413482E458078FE0680780E07807D4
:1009E0000CF07FC060E874E88EE190E0A401930110
:1009F0000E94A8062150304040405040CA01B90131
:100A000022E030E040E050E00E94A80659016A016F
:100A1000A6019501209530954095509594E0220FC0
:100A2000331F441F551F9A95D1F760E074E284EF9D
:100A300090E00E94A806CA01B9012FEF30E040E023
:100A400050E00E945406A40193010E94A806C90127
:100A500081509F4F181619061CF4522E5A9403C049
:100A600055245394521A60E079E08DE390E0A4019C
:100A700093010E94A8062150304040405040CA01D6
:100A8000B90122E030E040E050E00E94A806209545
:100A900030954095509583E0220F331F441F551F1A
:100AA0008A95D1F760E074E284EF90E00E94A80696
:100AB000CA01B9012FEF30E040E050E00E94540637
:100AC000A40193010E94A806C90181509F4F1816E6
:100AD00019061CF4822F815002C081E0821B85150B
:100AE00000F5E885F98581E090E00A8802C0880F6A
:100AF000991F0A94E2F7808360E079E08DE390E04B
:100B0000A40193010E94A80621503040404050406B
:100B1000CA01B90122E030E040E050E00E94A8069E
:100B200004C0E885F98510829501EC81FD81308350
:100B3000EE81FF812083EA85FB85208141E050E042
:100B4000CA010E8402C0880F991F0A94E2F7282B6D
:100B50002083EA85FB852081CA010F8402C0880FAB
:100B6000991F0A94E2F7282B2083EA85FB85808170
:100B7000088802C0440F551F0A94E2F7842B808333
:100B8000DF91CF911F910F91FF90EF90DF90CF9069
:100B9000BF90AF909F908F907F906F905F900895DF
:100BA000FC01A085B18521898C9190E0022E02C0C4
:100BB000959587950A94E2F780FFF6CF0484F58532
:100BC000E02D6083089587E291E090935701809330
:100BD000560182E491E0909359018093580185EC8D
:100BE00090E090935B0180935A0184EC90E09093A5
:100BF0005D0180935C0180EC90E090935F018093B5
:100C00005E0181EC90E0909361018093600186EC3D
:100C100090E0909363018093620184E0809364018B
:100C200083E08093650187E08093660185E080938F
:100C3000670181E08093680108950F931F93CF931C
:100C4000DF938C01EB0109C02196D801ED91FC9155
:100C50000190F081E02DC801099568816623A1F714
:100C6000DF91CF911F910F910895EF92FF920F9313
:100C70001F93CF93DF938C017B01EA010CC0D70156
:100C80006D917D01D801ED91FC910190F081E02DF5
:100C9000C80109952197209791F7DF91CF911F9176
:100CA0000F91FF90EF900895629FD001739FF00124
:100CB000829FE00DF11D649FE00DF11D929FF00DEC
:100CC000839FF00D749FF00D659FF00D9927729F23
:100CD000B00DE11DF91F639FB00DE11DF91FBD01AE
:100CE000CF011124089597FB092E07260AD077FD1E
:100CF00004D049D006D000201AF4709561957F4F3A
:100D00000895F6F7909581959F4F0895A1E21A2EC8
:100D1000AA1BBB1BFD010DC0AA1FBB1FEE1FFF1F9F
:100D2000A217B307E407F50720F0A21BB30BE40BEF
:100D3000F50B661F771F881F991F1A9469F7609536
:100D40007095809590959B01AC01BD01CF010895F0
:100D500097FB092E05260ED057FD04D0D7DF0AD009
:100D6000001C38F450954095309521953F4F4F4FDA
:100D70005F4F0895F6F790958095709561957F4F38
:100D80008F4F9F4F0895AA1BBB1B51E107C0AA1F9D
:100D9000BB1FA617B70710F0A61BB70B881F991F1C
:100DA0005A95A9F780959095BC01CD010895EE0F55
:0E0DB000FF1F0590F491E02D0994F894FFCFF9
:100DBE00496E74723A200008000B00090004000509
:100DCE0000060007000200300000000000000000D6
:0E0DDE00000D0000000000D0051D06350600C7
:00000001FF
