:1000000040C064C063C062C061C060C05FC05EC009
:100010005DC077C05BC008C159C058C057C056C04A
:1000200055C054C053C000000000370034003100F8
:1000300000000000380035003200000000003600EB
:100040003300300004040404040404040202020225
:10005000020203030303030301020408102040808B
:100060000102040810200102040810200000000012
:100070000000000000030405000000000000000074
:100080004F0211241FBECFE5D4E0DEBFCDBF10E08C
:10009000A0E6B0E0E6EEF6E002C005900D92A03AD0
:1000A000B107D9F710E0A0EAB0E001C01D92A03D71
:1000B000B107E1F710E0C2E8D0E003C02297FE01EB
:1000C0000CD3C038D107D1F719D00BC399CF0F93F8
:1000D0001F9384E060E088D085E061E085D00DEB7F
:1000E00010E0C80140E056E960E070E0D8D0C801F7
:1000F00060E670E064D21F910F91089556D0E7DF5B
:10010000FFCF1F920F920FB60F9211242F933F93A0
:100110004F935F936F937F938F939F93AF93BF930F
:100120002091A4003091A5004091A6005091A70015
:100130007091A800DA01C9010296A11DB11D672FB7
:100140006A5F6D3730F06D57DA01C9010396A11D62
:10015000B11D6093A8008093A4009093A500A09384
:10016000A600B093A7008091A0009091A100A0915B
:10017000A200B091A3000196A11DB11D8093A00023
:100180009093A100A093A200B093A300BF91AF9160
:100190009F918F917F916F915F914F913F912F919F
:1001A0000F900FBE0F901F901895789483B78260C0
:1001B00083BF83B7816083BF89B7816089BF8EB5F4
:1001C00082608EBD8EB581608EBD8FB581608FBD22
:1001D00085B5846085BD85B5806485BD329A319AC8
:1001E000309A379A1AB80895282F30E0C901885AF2
:1001F0009F4FFC0194912C5B3F4FF9018491882320
:1002000091F0E82FF0E0EE0FFF1FEA5DFF4FA591A0
:10021000B491662329F48C91909589238C93089549
:100220008C91892B8C9308951F920F920FB60F9289
:1002300011242F933F934F935F936F937F938F93EB
:100240009F93AF93BF93EF93FF934CB1E091B900AD
:10025000F091BA00CF01019660E170E0D8D19C0125
:100260008091BB009091BC002817390739F0E75501
:10027000FF4F40833093BA002093B900FF91EF9174
:10028000BF91AF919F918F917F916F915F914F91AE
:100290003F912F910F900FBE0F901F9018955F9276
:1002A0006F927F928F929F92AF92BF92CF92DF9286
:1002B000EF92FF920F931F93CF93DF93EC013A01DC
:1002C0004B01413281EA580787E0680780E07807F0
:1002D0000CF075C060E472E48FE090E0A40193013B
:1002E000CBD12150304040405040CA01B90122E0FA
:1002F00030E040E050E0C0D159016A01A60195010B
:10030000209530954095509594E0220F331F441F5F
:10031000551F9A95D1F760E072E18AE790E0ACD181
:10032000CA01B9012FEF30E040E050E051D1A40103
:100330009301A2D1C90181509F4F181619061CF4D0
:10034000522E5A9403C055245394521A60E874E80C
:100350008EE190E0A40193018FD1215030404040C4
:100360005040CA01B90122E030E040E050E084D1C1
:10037000209530954095509583E0220F331F441F00
:10038000551F8A95D1F760E072E18AE790E074D159
:10039000CA01B9012FEF30E040E050E019D1A401CB
:1003A00093016AD1C90181509F4F181619061CF498
:1003B000822F815002C081E0821B8515F0F4E88510
:1003C000F98581E090E00A8802C0880F991F0A949D
:1003D000E2F7808360E874E88EE190E0A401930185
:1003E0004BD12150304040405040CA01B90122E079
:1003F00030E040E050E040D104C0E885F98510824B
:100400009501EC81FD813083EE81FF812083EA85B7
:10041000FB85208141E050E0CA010E8402C0880FB4
:10042000991F0A94E2F7282B2083EA85FB85208117
:10043000CA010F8402C0880F991F0A94E2F7282B83
:100440002083EA85FB858081088802C0440F551F00
:100450000A94E2F7842B8083DF91CF911F910F9153
:10046000FF90EF90DF90CF90BF90AF909F908F90D4
:100470007F906F905F900895FC01A085B1852189E0
:100480008C9190E0022E02C0959587950A94E2F730
:1004900080FFF6CF0484F585E02D608308958AE916
:1004A00090E09093BE008093BD0089EA90E0909325
:1004B000C0008093BF0080E490E09093C2008093DE
:1004C000C10089E290E09093C4008093C3008BE266
:1004D00090E09093C6008093C5008AE290E09093EC
:1004E000C8008093C7008CE290E09093CA0080938C
:1004F000C90084E08093CB0083E08093CC0087E048
:100500008093CD0085E08093CE0081E08093CF0082
:1005100008950F931F93CF93DF938C01EB0109C0D4
:100520002196D801ED91FC910190F081E02DC80158
:10053000099568816623A1F7DF91CF911F910F91F3
:100540000895EF92FF920F931F93CF93DF938C0147
:100550007B01EA010CC0D7016D917D01D801ED91BD
:10056000FC910190F081E02DC80109952197209719
:1005700091F7DF91CF911F910F91FF90EF90089528
:10058000DC01ED91FC910280F381E02D0995089545
:100590000F931F938C01DC01ED91FC910190F08190
:1005A000E02D6DE00995D801ED91FC910190F0816D
:1005B000E02DC8016AE009951F910F9108950F93EE
:1005C0001F938C01DDDFC801E3DF1F910F910895B8
:1005D000629FD001739FF001829FE00DF11D649F27
:1005E000E00DF11D929FF00D839FF00D749FF00DB3
:1005F000659FF00D9927729FB00DE11DF91F639F54
:10060000B00DE11DF91FBD01CF011124089597FB25
:10061000092E07260AD077FD04D049D006D0002045
:100620001AF4709561957F4F0895F6F7909581952E
:100630009F4F0895A1E21A2EAA1BBB1BFD010DC0FE
:10064000AA1FBB1FEE1FFF1FA217B307E407F50782
:1006500020F0A21BB30BE40BF50B661F771F881F5E
:10066000991F1A9469F760957095809590959B01F4
:10067000AC01BD01CF01089597FB092E05260ED0D0
:1006800057FD04D0D7DF0AD0001C38F450954095B0
:10069000309521953F4F4F4F5F4F0895F6F7909556
:1006A0008095709561957F4F8F4F9F4F0895AA1B3E
:1006B000BB1B51E107C0AA1FBB1FA617B70710F04D
:1006C000A61BB70B881F991F5A95A9F7809590957F
:1006D000BC01CD010895EE0FFF1F0590F491E02DB0
:0606E0000994F894FFCF1D
:1006E6002D2D2D2D2D2D2D3E20205374617274201D
:1006F60053656E64696E67204154002D2D2D2D2D96
:100706002D2D3E202043616C6C6261636B20536526
:100716006E6420415400000000003C028902A102E0
:00000001FF
