:1000000040C064C063C062C061C060C05FC05EC009
:100010005DC0AAC35BC0F1C459C058C057C056C028
:1000200055C054C053C000000000370034003100F8
:1000300000000000380035003200000000003600EB
:100040003300300004040404040404040202020225
:10005000020203030303030301020408102040808B
:100060000102040810200102040810200000000012
:100070000000000000030405000000000000000074
:10008000380611241FBECFE5D4E0DEBFCDBF11E09E
:10009000A0E6B0E0E4E6F0E102C005900D92AA38D7
:1000A000B107D9F711E0AAE8B1E001C01D92AB3D5C
:1000B000B107E1F710E0C2E8D0E003C02297FE01EB
:1000C000CBD7C038D107D1F74BD3CAC799CF8F92BE
:1000D0009F92AF92BF92CF92DF92EF92FF920F93D7
:1000E0001F93CF93DF937B018C01EA012CE330E077
:1000F00040E050E05ED76883C801B7012CE330E0F0
:1001000040E050E056D7122F032FF42EE52E622F39
:10011000732F842F952F2CE330E040E050E049D737
:100120006983612F702F8F2D9E2D2CE330E040E0EE
:1001300050E03FD7122F032FF42EE52E622F732F9E
:10014000842F952F28E130E040E050E032D76A83D9
:10015000612F702F8F2D9E2D28E130E040E050E080
:1001600028D779018A01C801B7016C5F7F4F8F4F93
:100170009F4F27E030E040E050E01BD76F5F6B837C
:1001800020E0AA24BB24650101C02F5F822E9924A0
:10019000F401EE54F84FCF0183709070892B89F4ED
:1001A000CF0164E670E0F2D6892B31F4CF0160E92B
:1001B00071E0ECD6892B29F48EE691E0A0E0B0E066
:1001C00004C08DE691E0A0E0B0E0A80EB91ECA1E02
:1001D000DB1EC501A0E0B0E0E816F9060A071B0720
:1001E000A0F62E83F401EE54F84F83E0882E912C74
:1001F0008E229F228114910489F4CF0164E670E07D
:10020000C5D6892B31F4CF0160E971E0BFD6892BC7
:1002100029F48EE691E0A0E0B0E004C08DE691E024
:10022000A0E0B0E0A81AB90ACA0ADB0A980187015F
:100230000A191B092C093D09CF0164E670E0A6D616
:100240007C01CF0160E971E0A1D6AC01E3E7F1E008
:1002500060E0613051F48114910449F4E114F10437
:1002600041F44115510529F002C0808103C08CE1A1
:1002700001C08DE190E0A0E0B0E0081719072A075F
:100280003B0740F0081B190B2A0B3B0B6F5F3196A5
:100290006C30F9F66F5F6D83802F8F5F8C83DF91F9
:1002A000CF911F910F91FF90EF90DF90CF90BF9073
:1002B000AF909F908F900895EF92FF920F931F93AE
:1002C0007B018C018091A1019091A201A091A301D9
:1002D000B091A401E816F9060A071B0769F0C801E6
:1002E000B70146E951E0F3DEE092A101F092A201EC
:1002F0000093A3011093A4011F910F91FF90EF9021
:100300000895DADF20919C0130E02E54384FC90166
:10031000089560938C0170938D0180938E0190936A
:100320008F0120916F0130917001409171015091C6
:100330007201260F371F481F591F209390013093D9
:100340009101409392015093930182E090E0909349
:100350009501809394015CD260939D0170939E01FE
:1003600080939F019093A0010895EF92FF920F93C5
:100370001F931CC02F5F3F4F4F4F5F4F20938C0147
:1003800030938D0140938E0150938F0188EE93E05E
:10039000A0E0B0E0E80EF91E0A1F1B1FE0929D01CD
:1003A000F0929E0100939F011093A00131D2E09042
:1003B0009D01F0909E0100919F011091A0016E1986
:1003C0007F09800B910B20918C0130918D01409120
:1003D0008E0150918F01685E73408040904050F6CE
:1003E0008091900190919101A0919201B09193011F
:1003F000281739074A075B07E0F0E0918A01F0917E
:100400008B013097B1F00995611571058105910552
:1004100011F07FDF0EC020E030E0809194019091D8
:100420009501892B11F021E030E030939501209364
:10043000940160918C0170918D0180918E01909159
:100440008F011F910F91FF90EF9008958EDF59DF7C
:1004500008958BDF31DF80919B0190E0089585DF67
:100460002BDF80919A0190E008957FDF25DF809156
:10047000960190E0089579DF1FDF8091970190E069
:10048000089573DF19DF8091980190E008951F931C
:10049000CF93DF9310E0C7E0D0E087E175D2892BDE
:1004A000E1F38EE190E0ECD187E16ED281309105ED
:1004B00039F40C2E02C0880F991F0A94E2F7182B0A
:1004C00087E162D20197E1F321978FEFCF3FD80701
:1004D00021F7812FDF91CF911F910895CF93DF9363
:1004E0001092A50187E160E018D264E170E080E03D
:1004F00090E09CD187E161E010D288E290E0C0D129
:1005000087E160E0EAD187E13FD2882311F081E002
:100510002AC080E590E0B4D187E136D2882311F477
:1005200082E021C080E590E0ABD1C6EAD1E0AFDF48
:10053000899381E0CB3AD807D1F787E161E0CDD14B
:1005400087E161E0EAD18091A7019091A601890F2E
:100550009091A801890F9091A901890F9091AA010A
:10056000981719F083E08093A501DF91CF9108954A
:1005700087E161E0B2D187E161E0CFD10895AEDFDC
:100580008091A501813009F481C0813038F082303A
:1005900009F481C0833009F088C082C072DFBC01D9
:1005A00088EC91E0BAD488EC91E060E670E0D1D3B9
:1005B00062DFBC0188EC91E0B0D488EC91E060E6A9
:1005C00070E0C7D352DFBC0188EC91E0A6D488EC80
:1005D00091E060E670E0BDD342DFBC0188EC91E0C1
:1005E0009CD488EC91E060E670E0B3D332DFBC01CC
:1005F00088EC91E092D488EC91E060E670E0A9D3B9
:1006000025DFBC0188EC91E088D488EC91E060E6BD
:1006100070E09FD34091A60150E060E070E088EC6C
:1006200091E02AE030E080D488EC91E062E670E06E
:1006300090D34091A70150E060E070E088EC91E039
:100640002AE030E071D488EC91E064E670E081D378
:100650004091A80150E060E070E088EC91E02AE071
:1006600030E062D488EC91E062E670E072D34091B1
:10067000A90150E060E070E088EC91E02AE030E011
:1006800053D488EC91E068E670E013C088EC91E008
:100690006CE670E00EC088EC91E064E970E009C09F
:1006A00088EC91E06CEB70E004C088EC91E069EDBF
:1006B00070E06ED368EE73E080E090E0B7D008950C
:1006C0000F931F9308EC11E0C8016FEF70E060D347
:1006D00064EF71E080E090E0A9D0C80168E071E0CB
:1006E00057D364EF71E080E090E0A0D0C80160E1F2
:1006F00071E04ED364EF71E080E090E097D0C801E4
:100700006EE171E045D364EF71E080E090E08ED05F
:10071000C80168E371E03CD364EF71E080E090E0F1
:1007200085D0C8016FE371E033D364EF71E080E0FE
:1007300090E07CD01F910F9108950F931F9308ECC8
:1007400011E0C80140E056E960E070E091D110DFAF
:10075000B7DFC80166E571E01BD31F910F910895C3
:100760009DD0EBDF0CDFFECF1F920F920FB60F92E2
:1007700011242F933F934F935F936F937F938F93A6
:100780009F93AF93BF932091AF013091B0014091FF
:10079000B1015091B2017091B301DA01C901029621
:1007A000A11DB11D672F6A5F6D3730F06D57DA01FB
:1007B000C9010396A11DB11D6093B3018093AF01E0
:1007C0009093B001A093B101B093B2018091AB01BD
:1007D0009091AC01A091AD01B091AE010196A11D27
:1007E000B11D8093AB019093AC01A093AD01B09388
:1007F000AE01BF91AF919F918F917F916F915F916A
:100800004F913F912F910F900FBE0F901F90189511
:100810008FB7F8942091AF013091B0014091B101B0
:100820005091B2018FBFB901CA010895EF92FF92B2
:100830000F931F937B018C018FB7F8944091AF0108
:100840005091B0016091B1017091B2018FBF2FB78B
:10085000F8948091AF019091B001A091B101B09155
:10086000B2012FBF841B950BA60BB70BE816F90638
:100870000A071B0760F71F910F91FF90EF900895F3
:10088000019759F0019749F0FC01EE0FFF1F3197D6
:100890008FB7F8943197F1F78FBF0895789483B7A5
:1008A000826083BF83B7816083BF89B7816089BF5E
:1008B0008EB582608EBD8EB581608EBD8FB5816034
:1008C0008FBD85B5846085BD85B5806485BD329A50
:1008D000319A309A379A1AB80895282F30E0C90112
:1008E000885A9F4FFC0194912C5B3F4FF9018491F2
:1008F000882391F0E82FF0E0EE0FFF1FEA5DFF4F35
:10090000A591B491662329F48C91909589238C93B9
:1009100008958C91892B8C930895482F50E0CA013B
:1009200084599F4FFC012491CA01885A9F4FFC01B2
:1009300094914C5B5F4FFA013491332321F12223D0
:1009400081F0233019F48FB58F7704C0243021F45F
:100950008FB58F7D8FBD05C0253019F485B58F7D8E
:1009600085BDE32FF0E0EE0FFF1FE05DFF4FA59187
:10097000B491662329F48C91909589238C930895E2
:100980008C91892B8C930895682F70E0CB0184594A
:100990009F4FFC012491CB01885A9F4FFC01449149
:1009A0006C5B7F4FFB019491992319F420E030E0B8
:1009B00022C0222381F0233019F48FB58F7704C031
:1009C000243021F48FB58F7D8FBD05C0253019F4FB
:1009D00085B58F7D85BD892F90E0880F991F865C36
:1009E0009F4FFC01A591B4918C9120E030E08423CD
:1009F00011F021E030E0C90108951F920F920FB667
:100A00000F9211242F933F934F935F936F937F9394
:100A10008F939F93AF93BF93EF93FF934CB1E0916C
:100A2000C401F091C501CF01019660E170E0AED242
:100A30009C018091C6019091C7012817390739F0B0
:100A4000EC54FE4F40833093C5012093C401FF91C5
:100A5000EF91BF91AF919F918F917F916F915F9136
:100A60004F913F912F910F900FBE0F901F901895AF
:100A70005F926F927F928F929F92AF92BF92CF922E
:100A8000DF92EF92FF920F931F93CF93DF93EC01CE
:100A90003A014B01413281EA580787E0680780E05C
:100AA00078070CF075C060E472E48FE090E0A40178
:100AB0009301A1D22150304040405040CA01B901B9
:100AC00022E030E040E050E096D259016A01A601F0
:100AD0009501209530954095509594E0220F331F55
:100AE000441F551F9A95D1F760E072E18AE790E0C4
:100AF00082D2CA01B9012FEF30E040E050E027D2A6
:100B0000A401930178D2C90181509F4F181619068C
:100B10001CF4522E5A9403C055245394521A60E880
:100B200074E88EE190E0A401930165D22150304039
:100B300040405040CA01B90122E030E040E050E0BE
:100B40005AD2209530954095509583E0220F331F5F
:100B5000441F551F8A95D1F760E072E18AE790E063
:100B60004AD2CA01B9012FEF30E040E050E0EFD1A6
:100B7000A401930140D2C90181509F4F1816190654
:100B80001CF4822F815002C081E0821B8515F0F495
:100B9000E885F98581E090E00A8802C0880F991FF6
:100BA0000A94E2F7808360E874E88EE190E0A401A3
:100BB000930121D22150304040405040CA01B90138
:100BC00022E030E040E050E016D204C0E885F9852C
:100BD00010829501EC81FD813083EE81FF812083BD
:100BE000EA85FB85208141E050E0CA010E8402C005
:100BF000880F991F0A94E2F7282B2083EA85FB854A
:100C00002081CA010F8402C0880F991F0A94E2F75D
:100C1000282B2083EA85FB858081088802C0440F49
:100C2000551F0A94E2F7842B8083DF91CF911F91A7
:100C30000F91FF90EF90DF90CF90BF90AF909F907B
:100C40008F907F906F905F900895FC01A085B18593
:100C500021898C9190E0022E02C0959587950A9487
:100C6000E2F780FFF6CF0484F585E02D60830895D8
:100C700083E891E09093C9018093C80184EB91E0EF
:100C80009093CB018093CA0180E490E09093CD01D2
:100C90008093CC0189E290E09093CF018093CE01C4
:100CA0008BE290E09093D1018093D0018AE290E0B2
:100CB0009093D3018093D2018CE290E09093D50180
:100CC0008093D40184E08093D60183E08093D701A0
:100CD00087E08093D80185E08093D90181E08093FB
:100CE000DA0108950F931F93CF93DF938C01EB01EB
:100CF00009C02196D801ED91FC910190F081E02D81
:100D0000C801099568816623A1F7DF91CF911F91F2
:100D10000F910895EF92FF920F931F93CF93DF935C
:100D20008C017B01EA010CC0D7016D917D01D801D6
:100D3000ED91FC910190F081E02DC801099521977A
:100D4000209791F7DF91CF911F910F91FF90EF9036
:100D50000895DC01ED91FC910280F381E02D09956D
:100D600008950F931F938C01DC01ED91FC9101908C
:100D7000F081E02D6DE00995D801ED91FC91019095
:100D8000F081E02DC8016AE009951F910F91089547
:100D90000F931F938C01DDDFC801E3DF1F910F91DB
:100DA00008952F923F924F925F926F927F928F920F
:100DB0009F92AF92BF92CF92DF92EF92FF920F93EA
:100DC0001F93DF93CF93CDB7DEB7A0970FB6F894FC
:100DD000DEBF0FBECDBF1C016A017B01411551056D
:100DE0006105710549F4DC01ED91FC910190F08100
:100DF000E02D60E3099552C0882499245401422EC5
:100E000055246624772401E010E00C0F1D1F080D07
:100E1000191DC701B601A3019201CBD0F80160836F
:100E20000894811C911CA11CB11CC701B601A3012F
:100E30009201BFD0C901DA016C017D01C114D10456
:100E4000E104F10401F781E0E82EF12CEC0EFD1E27
:100E5000E80CF91C3E010894611C711CD501C40109
:100E60000197A109B1096C01C818D90814C0F6018D
:100E7000EE0DFF1D60816A3010F4605D01C0695C99
:100E8000D101ED91FC910190F081E02DC101099516
:100E90000894E108F1086E147F0449F7A0960FB694
:100EA000F894DEBF0FBECDBFCF91DF911F910F91A0
:100EB000FF90EF90DF90CF90BF90AF909F908F907A
:100EC0007F906F905F904F903F902F900895EF929A
:100ED000FF920F931F93CF93DF93EC017A018B0165
:100EE00077FF0FC0E881F9810190F081E02D6DE27C
:100EF000099510950095F094E094E11CF11C011DFA
:100F0000111DCE01B801A7012AE04BDFDF91CF917F
:100F10001F910F91FF90EF900895AB01662757FD49
:100F20006095762FD4DF0895DC012115310541F459
:100F3000ED91FC910190F081E02D642F09950895C9
:100F40002A30310511F4C3DF08952BDF0895629F25
:100F5000D001739FF001829FE00DF11D649FE00DB1
:100F6000F11D929FF00D839FF00D749FF00D659F12
:100F7000F00D9927729FB00DE11DF91F639FB00D11
:100F8000E11DF91FBD01CF011124089597FB092E22
:100F900007260AD077FD04D049D006D000201AF4E5
:100FA000709561957F4F0895F6F7909581959F4FC5
:100FB0000895A1E21A2EAA1BBB1BFD010DC0AA1F9A
:100FC000BB1FEE1FFF1FA217B307E407F50720F0B2
:100FD000A21BB30BE40BF50B661F771F881F991F2D
:100FE0001A9469F760957095809590959B01AC0176
:100FF000BD01CF01089597FB092E05260ED057FDA0
:1010000004D0D7DF0AD0001C38F4509540953095B5
:1010100021953F4F4F4F5F4F0895F6F7909580957C
:10102000709561957F4F8F4F9F4F0895AA1BBB1BF3
:1010300051E107C0AA1FBB1FA617B70710F0A61BD8
:10104000B70B881F991F5A95A9F780959095BC01F9
:10105000CD010895EE0FFF1F0590F491E02D099446
:04106000F894FFCF32
:101064003A002E0025202000432020004572726F94
:101074007220313A2044485420737461727420639E
:101084006F6E646974696F6E2031206E6F74206DA9
:1010940065742E004572726F7220323A20444854AF
:1010A40020737461727420636F6E646974696F6E07
:1010B4002032206E6F74206D65742E004572726F3D
:1010C4007220333A2044485420636865636B737517
:1010D4006D206572726F722E004572726F723A20C3
:1010E400556E7265636F676E697A656420636F64B9
:1010F4006520656E636F756E74657265642E00415C
:10110400542B52455345540041542B494E495400E5
:1011140041542B434C4153533D30303430004154FF
:101124002B454E534E4946463D303031322C3036F5
:101134002C3037313031350041542B494E51004168
:10114400542B4C494E4B3D373434352C38612C34B8
:1011540064376665610048756D69646974792061F6
:101164006E642074656D7065726174757265002CAF
:101174000100001F1C1F1E1F1E1F1F1E1F1E1F00FD
:0A118400000000250672068A06002E
:00000001FF
