:1000000040C064C063C062C061C060C05FC05EC009
:100010005DC068C15BC04FC259C058C057C056C010
:1000200055C054C053C000000000370034003100F8
:1000300000000000380035003200000000003600EB
:100040003300300004040404040404040202020225
:10005000020203030303030301020408102040808B
:100060000102040810200102040810200000000012
:100070000000000000030405000000000000000074
:10008000960311241FBECFE5D4E0DEBFCDBF10E044
:10009000A0E6B0E0E4EAFBE002C005900D92AC3DC2
:1000A000B107D9F711E0ACEDB0E001C01D92AC3062
:1000B000B107E1F710E0C2E8D0E003C02297FE01EB
:1000C0006BD5C038D107D1F709D16AC599CF2F9226
:1000D0003F924F925F926F927F928F929F92AF92D8
:1000E000BF92CF92DF92EF92FF920F931F93DF9315
:1000F000CF9300D000D0CDB7DEB783E090D17C01A4
:1001000082E08DD13C0181E08AD19C838B8300D039
:1001100000D00027F7FC0095102FF4EB2F2E312C88
:10012000412C512CEDB7FEB721823282438254829A
:10013000C801B7012CE231E040E050E0E7ECEE2EE0
:10014000E1E0FE2E012D112DAA24BB24650158D417
:1001500069837A83882477FC8094982CEDB7FEB766
:100160002182328243825482C401B3012CE231E005
:1001700040E050E045D4662E972E2B813C81B9019A
:10018000882777FD8095982FEDB7FEB721823282C0
:10019000438254822CE231E040E050E031D4162F0B
:1001A000072F0F900F900F900F9029813A81C9016E
:1001B000BC0197FF02C060E070E089EF90E00BD4D3
:1001C00089EF90E060E670E022D3862D992D9C01A6
:1001D00037FF02C020E030E089EF90E0B901FBD3A7
:1001E00089EF90E060E670E012D3812F902F9C01A0
:1001F00037FF02C020E030E089EF90E0B901F2D390
:1002000064EF71E080E090E0C1D00F900F900F900C
:100210000F90CF91DF911F910F91FF90EF90DF90A2
:10022000CF90BF90AF909F908F907F906F905F9096
:100230004F903F902F9008950F931F9309EF10E078
:10024000C80162E670E002D364EF71E080E090E004
:100250009DD0C8016BE670E0F9D264EF71E080E0F8
:1002600090E094D0C80163E770E0F0D264EF71E0F1
:1002700080E090E08BD0C80166E870E0E7D264EFE0
:1002800071E080E090E082D0C80164E970E0DED2E5
:1002900064EF71E080E090E079D0C8016EEA70E030
:1002A000D5D268E873E180E090E070D01F910F91A3
:1002B00008950F931F9309EF10E0C80140E056E93D
:1002C00060E070E033D1C80165EB70E0BFD283E13C
:1002D00061E0BAD0B1DF1F910F91089581D0E9DFBD
:1002E000F6DEFECF1F920F920FB60F9211242F93BE
:1002F0003F934F935F936F937F938F939F93AF93AE
:10030000BF932091E0003091E1004091E2005091D4
:10031000E3007091E400DA01C9010296A11DB11D4C
:10032000672F6A5F6D3730F06D57DA01C9010396A8
:10033000A11DB11D6093E4008093E0009093E10063
:10034000A093E200B093E3008091DC009091DD0087
:10035000A091DE00B091DF000196A11DB11D809338
:10036000DC009093DD00A093DE00B093DF00BF912E
:10037000AF919F918F917F916F915F914F913F913D
:100380002F910F900FBE0F901F901895EF92FF9234
:100390000F931F937B018C018FB7F8944091E0007D
:1003A0005091E1006091E2007091E3008FBF2FB7A0
:1003B000F8948091E0009091E100A091E200B0916A
:1003C000E3002FBF841B950BA60BB70BE816F906AD
:1003D0000A071B0760F71F910F91FF90EF90089598
:1003E000789483B7826083BF83B7816083BF89B706
:1003F000816089BF8EB582608EBD8EB581608EBDF5
:100400008FB581608FBD85B5846085BD85B58064FD
:1004100085BD329A319A309A379A1AB808958F70FA
:100420009091D0009295990F990F907C982B97B945
:10043000369A3699FECF24B145B1942F80E030E052
:10044000282B392BC9010895482F50E0CA0184593F
:100450009F4FFC012491CA01885A9F4FFC0194913F
:100460004C5B5F4FFA013491332321F1222381F059
:10047000233019F48FB58F7704C0243021F48FB561
:100480008F7D8FBD05C0253019F485B58F7D85BD65
:10049000E32FF0E0EE0FFF1FE05DFF4FA591B49159
:1004A000662329F48C91909589238C9308958C91DF
:1004B000892B8C9308951F920F920FB60F921124DF
:1004C0002F933F934F935F936F937F938F939F935C
:1004D000AF93BF93EF93FF934CB1E091F500F09190
:1004E000F600CF01019660E170E0F0D29C018091AE
:1004F000F7009091F8002817390739F0EB51FF4FBA
:1005000040833093F6002093F500FF91EF91BF9167
:10051000AF919F918F917F916F915F914F913F919B
:100520002F910F900FBE0F901F9018955F926F92B2
:100530007F928F929F92AF92BF92CF92DF92EF9273
:10054000FF920F931F93CF93DF93EC013A014B017E
:10055000413281EA580787E0680780E078070CF0AD
:1005600075C060E472E48FE090E0A4019301E3D2EF
:100570002150304040405040CA01B90122E030E0F3
:1005800040E050E0D8D259016A01A60195012095BA
:1005900030954095509594E0220F331F441F551F0E
:1005A0009A95D1F760E072E18AE790E0C4D2CA017F
:1005B000B9012FEF30E040E050E069D2A40193018F
:1005C000BAD2C90181509F4F181619061CF4522E39
:1005D0005A9403C055245394521A60E874E88EE18B
:1005E00090E0A4019301A7D22150304040405040F8
:1005F000CA01B90122E030E040E050E09CD22095F1
:1006000030954095509583E0220F331F441F551FAE
:100610008A95D1F760E072E18AE790E08CD2CA0156
:10062000B9012FEF30E040E050E031D2A401930156
:1006300082D2C90181509F4F181619061CF4822FCF
:10064000815002C081E0821B8515F0F4E885F985B0
:1006500081E090E00A8802C0880F991F0A94E2F7AF
:10066000808360E874E88EE190E0A401930163D296
:100670002150304040405040CA01B90122E030E0F2
:1006800040E050E058D204C0E885F9851082950119
:10069000EC81FD813083EE81FF812083EA85FB853B
:1006A000208141E050E0CA010E8402C0880F991FEA
:1006B0000A94E2F7282B2083EA85FB852081CA0172
:1006C0000F8402C0880F991F0A94E2F7282B208319
:1006D000EA85FB858081088802C0440F551F0A9473
:1006E000E2F7842B8083DF91CF911F910F91FF90D0
:1006F000EF90DF90CF90BF90AF909F908F907F90C2
:100700006F905F900895FC01A085B18521898C913F
:1007100090E0022E02C0959587950A94E2F780FF3B
:10072000F6CF0484F585E02D6083089585ED90E093
:100730009093FA008093F90085EE90E09093FC008E
:100740008093FB0080E490E09093FE008093FD0096
:1007500089E290E0909300018093FF008BE290E0AB
:1007600090930201809301018AE290E0909304014A
:10077000809303018CE290E0909306018093050141
:1007800084E08093070183E08093080187E08093F1
:10079000090185E080930A0181E080930B010895AF
:1007A0000F931F93CF93DF938C01EB0109C0219628
:1007B000D801ED91FC910190F081E02DC8010995DF
:1007C00068816623A1F7DF91CF911F910F91089562
:1007D000EF92FF920F931F93CF93DF938C017B01D6
:1007E000EA010CC0D7016D917D01D801ED91FC911A
:1007F0000190F081E02DC80109952197209791F78C
:10080000DF91CF911F910F91FF90EF900895DC0140
:10081000ED91FC910280F381E02D099508950F93ED
:100820001F938C01DC01ED91FC910190F081E02D92
:100830006DE00995D801ED91FC910190F081E02DDA
:10084000C8016AE009951F910F9108950F931F93B6
:100850008C01DDDFC801E3DF1F910F9108952F9216
:100860003F924F925F926F927F928F929F92AF9240
:10087000BF92CF92DF92EF92FF920F931F93DF937D
:10088000CF93CDB7DEB7A0970FB6F894DEBF0FBEFB
:10089000CDBF1C016A017B01411551056105710540
:1008A00049F4DC01ED91FC910190F081E02D60E3D1
:1008B000099552C0882499245401422E5524662457
:1008C000772401E010E00C0F1D1F080D191DC70152
:1008D000B601A30192010DD1F80160830894811C37
:1008E000911CA11CB11CC701B601A301920101D149
:1008F000C901DA016C017D01C114D104E104F104E4
:1009000001F781E0E82EF12CEC0EFD1EE80CF91C3D
:100910003E010894611C711CD501C4010197A10915
:10092000B1096C01C818D90814C0F601EE0DFF1DFD
:1009300060816A3010F4605D01C0695CD101ED91A5
:10094000FC910190F081E02DC10109950894E10826
:10095000F1086E147F0449F7A0960FB6F894DEBF35
:100960000FBECDBFCF91DF911F910F91FF90EF9000
:10097000DF90CF90BF90AF909F908F907F906F90BF
:100980005F904F903F902F900895EF92FF920F93BA
:100990001F93CF93DF93EC017A018B0177FF0FC098
:1009A000E881F9810190F081E02D6DE209951095C3
:1009B0000095F094E094E11CF11C011D111DCE0185
:1009C000B801A7012AE04BDFDF91CF911F910F9172
:1009D000FF90EF900895AB01662757FD6095762F45
:1009E000D4DF08950F931F938C01AB01662757FD49
:1009F0006095762FCADFC80112DF1F910F9108950D
:100A00002F923F924F925F926F927F928F929F921E
:100A1000AF92BF92CF92DF92EF92FF920F931F930C
:100A2000DF93CF93CDB7DEB73B014C0119012A010B
:100A30006D897E898F89988D6A197B098C099D093A
:100A4000621A730A840A950AA401930120D0E2185D
:100A5000F30804091509A80197016DD02A0D3B1D63
:100A60004C1D5D1DB901CA01CF91DF911F910F91FE
:100A7000FF90EF90DF90CF90BF90AF909F908F90BE
:100A80007F906F905F904F903F902F900895629F5E
:100A9000D001739FF001829FE00DF11D649FE00D76
:100AA000F11D929FF00D839FF00D749FF00D659FD7
:100AB000F00D9927729FB00DE11DF91F639FB00DD6
:100AC000E11DF91FBD01CF011124089597FB092EE7
:100AD00007260AD077FD04D049D006D000201AF4AA
:100AE000709561957F4F0895F6F7909581959F4F8A
:100AF0000895A1E21A2EAA1BBB1BFD010DC0AA1F5F
:100B0000BB1FEE1FFF1FA217B307E407F50720F076
:100B1000A21BB30BE40BF50B661F771F881F991FF1
:100B20001A9469F760957095809590959B01AC013A
:100B3000BD01CF01089597FB092E05260ED057FD64
:100B400004D0D7DF0AD0001C38F45095409530957A
:100B500021953F4F4F4F5F4F0895F6F79095809541
:100B6000709561957F4F8F4F9F4F0895AA1BBB1BB8
:100B700051E107C0AA1FBB1FA617B70710F0A61B9D
:100B8000B70B881F991F5A95A9F780959095BC01BE
:100B9000CD010895EE0FFF1F0590F491E02D09940B
:040BA000F894FFCFF7
:100BA4003A0041542B52455345540041542B494E6D
:100BB40049540041542B4E414D453D224143432D60
:100BC40042543032220041542B434C4153533D3064
:100BD4003034300041542B454E534E4946463D3047
:100BE4003031322C30362C303731303135004154ED
:100BF4002B494E51002D2D2D2D2D2D2D3E202053D2
:100C0400746172742053656E64696E672041540088
:0C0C140001000000008303D003E803008F
:00000001FF
