:100000000C94A9000C94C6000C94C6000C949901A1
:100010000C94C3010C94ED010C94C6000C94C60022
:100020000C94C6000C94C6000C94C6000C94C60038
:100030000C94C6000C94C6000C94C6000C94C60028
:100040000C94BB040C94C6000C94C6000C94C6001F
:100050000C94C6000C94C6000C94C6000C94C60008
:100060000C94C6000C94C60000C2010001000500FB
:100070000500030000E1000001000F000F000D006B
:1000800000960000020019001A001700127A000002
:100090000700200021001D00807000000B002300DD
:1000A00023002000004B000014003700370034000C
:1000B000403800001E004B004B0048008025000027
:1000C0003200720072007000C01200006E00E90081
:1000D000E900E60060090000E500D801D801D5017B
:1000E000B0040000D301B403B403B1032C01000039
:1000F0006707DD0EDD0EDA0E000000002400270089
:100100002A0000000000250028002B00000000004D
:100110002300260029000404040404040404020249
:100120000202020203030303030301020408102076
:100130004080010204081020010204081020000081
:100140000007000201000003040600000000000098
:10015000000011241FBECFEFD8E0DEBFCDBF11E0FD
:10016000A0E0B1E0E2ECFCE002C005900D92A23C00
:10017000B107D9F712E0A2ECB1E001C01D92A9319C
:10018000B107E1F70E94B6040C945F060C940000DE
:100190000F931F93182F092F64E271E00E945406F9
:1001A00068EE73E080E090E00E940F05812F902FB1
:1001B0006DE271E00E94540668EE73E080E090E02A
:1001C0000E940F05812F902F65E371E00E94540675
:1001D00068EE73E080E090E00E940F05812F902F81
:1001E0006CE371E00E94540668EE73E080E090E0FA
:1001F0000E940F05812F902F66E571E00E94540642
:1002000068EE73E080E090E00E940F051F910F916F
:100210000895EF92FF920F931F93F82EE92E162F59
:10022000042F20E00E94ED03812F60E00E949105E1
:10023000802F61E00E9491058F2D9E2D40E056E9B0
:1002400060E070E00E94170268EE73E080E090E0EA
:100250000E940F051F910F91FF90EF9008950F934B
:100260001F93CF93DF93FC01718976957170A48100
:10027000B5819381772329F08C91892309F454C0A7
:1002800004C08C91892309F04FC08185928520E0BC
:1002900001972FEF8F3F9207D9F7C385D485A481AB
:1002A000B581138160E031E040E050E000E0CE0134
:1002B000202F01972FEF8F3F9207D9F78C91812341
:1002C00011F0632B03C0832F80956823330F4F5F9A
:1002D0005F4F4830510559F78585968520E0019795
:1002E0002FEF8F3F9207D9F771116095809104022B
:1002F0002091050290E001968F73907030E0821794
:10030000930779F0E0910402F0E0EC53FE4F608334
:100310008091040290E001968F73907080930402A4
:1003200003C081898160818BDF91CF911F910F91F3
:1003300008951F920F920FB60F9211242F933F939F
:100340004F935F936F937F938F939F93AF93BF93DD
:10035000EF93FF938091C2019091C301009711F038
:100360000E942F01FF91EF91BF91AF919F918F91CB
:100370007F916F915F914F913F912F910F900FBEA1
:100380000F901F9018951F920F920FB60F92112485
:100390002F933F934F935F936F937F938F939F938D
:1003A000AF93BF93EF93FF938091C2019091C301EC
:1003B000009711F00E942F01FF91EF91BF91AF9133
:1003C0009F918F917F916F915F914F913F912F916D
:1003D0000F900FBE0F901F9018951F920F920FB69F
:1003E0000F9211242F933F934F935F936F937F93BB
:1003F0008F939F93AF93BF93EF93FF938091C2012D
:100400009091C301009711F00E942F01FF91EF918D
:10041000BF91AF919F918F917F916F915F914F911C
:100420003F912F910F900FBE0F901F901895CF9274
:10043000DF92EF92FF920F931F93CF93DF93EC0124
:100440007A018B01188A1F861E861D861C861B86D4
:100450001A86198620E030E06901CC0CDD1CC20E42
:10046000D31EB601660F771F660F771FAB01485981
:100470005F4FFA0185919591A591B4918E159F05D5
:10048000A007B107E9F4FB01E459FF4F859194916E
:100490009A878987FB01E259FF4F859194919C8748
:1004A0008B87FB01E059FF4F859194919E878D8743
:1004B000FB01EE58FF4F85919491988B8F8706C072
:1004C0002F5F3F4F2C30310509F0C6CF8D859E85BB
:1004D000892B09F449C04A81463108F03DC090910A
:1004E0006800483010F484E005C04E3010F082E01F
:1004F00001C081E0892B80936800483028F4EDE644
:10050000F0E0ADE6B0E00BC04E3028F0ECE6F0E0F5
:10051000ACE6B0E004C0EBE6F0E0ABE6B0E0508162
:10052000483040F481E090E002C0880F991F4A955E
:10053000E2F710C0242F30E04E3018F4285030403D
:1005400002C02E50304081E090E002C0880F991F19
:100550002A95E2F7852B8C938F85988920E0019767
:100560002FEF8F3F9207D9F78091C2019091C3017D
:100570008C179D0781F089898E7F898B9FB7F894AE
:10058000109204028091040280930502D093C3016B
:10059000C093C2019FBFDF91CF911F910F91FF9038
:1005A000EF90DF90CF9008950F931F93DC011F967B
:1005B0008D919C915097892B09F4B6C08091C2010E
:1005C0009091C3018A179B07A1F051968C91519786
:1005D0008E7F51968C9351979FB7F8941092040296
:1005E0008091040280930502B093C301A093C201DD
:1005F0009FBF0FB7F89451968C9151971796ED9134
:10060000FC91189716962C91169781FF88C08081CF
:10061000822B80831F968D919C915097049620E0A9
:1006200001972FEF8F3F9207D9F751968C915197F1
:1006300081FF35C031E040E050E070E010E0832FF2
:1006400090E0862397231796ED91FC9118971696C4
:100650002C911697892B29F08081209528232083BF
:1006600003C08081822B80831F968D919C9150972F
:10067000212F01972FEF8F3F9207D9F7330F4F5F4D
:100680005F4F48305105D9F61796ED91FC911897B8
:10069000908116968C9116978095892333C031E00E
:1006A00040E050E070E010E0832F90E08623972335
:1006B0001796ED91FC91189716962C911697892B09
:1006C00021F08081822B808304C0808120952823A3
:1006D00020831F968D919C915097212F01972FEF8A
:1006E0008F3F9207D9F7330F4F5F5F4F4830510567
:1006F000D9F61796ED91FC911897808116969C91EA
:100700001697892B80830FBF1F968D919C915097D0
:1007100020E001972FEF8F3F9207D9F705C0808126
:1007200020952823208376CF1F910F9108951F9342
:10073000CF93DF93EC01162F862F60E00E94910586
:10074000898981FD04C0812F61E00E94B1051A836F
:10075000212F30E0C901865D9E4FFC0184918B837F
:100760002A5E3E4FF9016491E62FF0E0EE0FFF1F85
:10077000E45FFE4F859194919D838C83DF91CF91AF
:100780001F910895FF920F931F938C01F62E862FD1
:1007900061E00E9491058F2D61E00E94B1058F2DCF
:1007A00090E0FC01E65DFE4FE491D8011696EC93D3
:1007B00016978A5E9E4FFC016491E62FF0E0EE0FE3
:1007C000FF1FEE5FFE4F8591949118969C938E9338
:1007D00017971F910F91FF900895FF920F931F930A
:1007E0008C01F62E8CEB91E0F801918380831286C8
:1007F00011861486138616861586108A17868189B7
:100800002170220F8C7F822B818BC801642F0E9464
:10081000C203C8016F2D0E9497031F910F91FF9093
:100820000895EF92FF920F931F93DF93CF93CDB76D
:10083000DEB7A4970FB6F894DEBF0FBECDBF809190
:10084000B50161E00E94910582E060E00E9491059F
:100850007E010894E11CF11CC70161E040E020E04A
:100860000E94ED038E010D5E1F4FC80161E070E034
:1008700040E050E00E940901C70140E056E960E015
:1008800070E00E941702C8010E94C80081E0E82EB3
:10089000F12C83E00E947305825C91402CF4F0926D
:1008A0000D02E0920C0204C010920D0210920C0294
:1008B00083E00E947305875292402CF0F0920B0265
:1008C000E0920A0204C010920B0210920A0282E027
:1008D0000E947305825C91402CF4F0920702E09232
:1008E000060204C0109207021092060282E00E94E3
:1008F0007305875292402CF0F0920902E0920802B0
:1009000004C0109209021092080200910602109190
:10091000070201301105C9F480910E0290910F0277
:10092000892B99F46091B3017091B401882777FD08
:100930008095982F0E940F058091B50161E00E947B
:10094000B10510930F0200930E028091080290915E
:100950000902892B09F49DCF10920F0210920E020A
:100960008091B50160E00E94B10593CF0E943905E6
:100970000E941104FFCF1F920F920FB60F92112405
:100980002F933F934F935F936F937F938F939F9397
:10099000AF93BF932091140230911502409116023B
:1009A0005091170270911802DA01C9010296A11D37
:1009B000B11D672F6A5F6D3730F06D57DA01C901DD
:1009C0000396A11DB11D60931802809314029093A9
:1009D0001502A0931602B093170280911002909115
:1009E0001102A0911202B09113020196A11DB11D36
:1009F0008093100290931102A0931202B0931302FD
:100A0000BF91AF919F918F917F916F915F914F9126
:100A10003F912F910F900FBE0F901F901895EF925E
:100A2000FF920F931F937B018C018FB7F894409135
:100A300014025091150260911602709117028FBF37
:100A40002FB7F8948091140290911502A09116028C
:100A5000B09117022FBF841B950BA60BB70BE8169E
:100A6000F9060A071B0760F71F910F91FF90EF909F
:100A70000895789484B5826084BD84B5816084BD16
:100A800085B5826085BD85B5816085BDEEE6F0E007
:100A9000808181608083E1E8F0E0808182608083F2
:100AA000808181608083E0E8F0E0808181608083E4
:100AB000E1EBF0E0808184608083E0EBF0E0808116
:100AC00081608083EAE7F0E08081846080838081B8
:100AD0008260808380818160808380818068808360
:100AE0001092C10008958F709091B7019295990F5F
:100AF000990F907C982B90937C0080917A00806471
:100B000080937A0080917A0086FDFCCF2091780056
:100B100040917900942F80E030E0282B392BC901D7
:100B20000895282F30E0C901865D9E4FFC01949105
:100B30002A5E3E4FF9018491882391F0E82FF0E07E
:100B4000EE0FFF1FE850FF4FA591B491662329F4E3
:100B50008C91909589238C9308958C91892B8C93FB
:100B60000895482F50E0CA01825C9E4FFC012491F9
:100B7000CA01865D9E4FFC0194914A5E5E4FFA0168
:100B800034913323D1F1222331F1233021F48091A8
:100B900080008F7705C0243031F4809180008F7DF4
:100BA0008093800018C0213019F484B58F7704C079
:100BB000223021F484B58F7D84BD0DC0263021F410
:100BC0008091B0008F7705C0273029F48091B00064
:100BD0008F7D8093B000E32FF0E0EE0FFF1FEE5FFC
:100BE000FE4FA591B491662329F48C9190958923A9
:100BF0008C9308958C91892B8C9308950F931F9358
:100C0000CF93DF938C01EB0109C02196D801ED91C0
:100C1000FC910190F081E02DC8010995688166235F
:100C2000A1F7DF91CF911F910F910895EF92FF925D
:100C30000F931F93CF93DF938C017B01EA010CC0CC
:100C4000D7016D917D01D801ED91FC910190F0816A
:100C5000E02DC80109952197209791F7DF91CF9159
:100C60001F910F91FF90EF900895DC01ED91FC91A1
:100C70000280F381E02D099508950F931F938C0155
:100C8000DC01ED91FC910190F081E02D6DE0099582
:100C9000D801ED91FC910190F081E02DC8016AE04E
:100CA00009951F910F9108950F931F938C010E9436
:100CB0003506C8010E943D061F910F910895F894D2
:020CC000FFCF64
:100CC20041542A535752455345540041542B4346ED
:100CD200554E3D300041544454303634393938325F
:100CE2003137360041542B52455345540041542B61
:100CF200494E49540041542B494E510041542B5006
:100D02004149523D32332C2044372C203743303571
:100D120037332C33300041542B4C494E4B3D323348
:100D22002C2044372C203743303537330041542BA5
:100D3200435351002B4353513A202C004F4B004157
:100D4200540041542B434243002B4342433A200078
:100D520041542B434D47463D310041542B434D47AF
:100D6200533D0022004154442A39392A2A312A2388
:100D7200002000D0070D000100000000D402FE0593
:020D8200160653
:00000001FF
