:100000000C94A9000C94C6000C94C6000C945F02DA
:100010000C9489020C94B3020C94C6000C94C60094
:100020000C94C6000C94C6000C94C6000C94C60038
:100030000C94C6000C94C6000C94C6000C94C60028
:100040000C9497050C94C6000C94C6000C94C60042
:100050000C94C6000C94C6000C94C6000C94C60008
:100060000C94C6000C94C60000C2010001000500FB
:100070000500030000E1000001000F000F000D006B
:1000800000960000020019001A001700127A000002
:100090000700200021001D00807000000B002300DD
:1000A00023002000004B000014003700370034000C
:1000B000403800001E004B004B0048008025000027
:1000C0003200720072007000C01200006E00E90081
:1000D000E900E60060090000E500D801D801D5017B
:1000E000B0040000D301B403B403B1032C01000039
:1000F0006707DD0EDD0EDA0E000000002400270089
:100100002A0000000000250028002B00000000004D
:100110002300260029000404040404040404020249
:100120000202020203030303030301020408102076
:100130004080010204081020010204081020000081
:100140000007000201000003040600000000000098
:10015000000011241FBECFEFD8E0DEBFCDBF11E0FD
:10016000A0E0B1E0E6E6F0E102C005900D92AA3B06
:10017000B107D9F712E0AAEBB1E001C01D92A1319D
:10018000B107E1F70E9492050C9431080C9400002D
:100190000F931F93182F092F64E271E00E9430071C
:1001A00064EF71E080E090E00E94EB05812F902FDA
:1001B00067E271E00E94300764EF71E080E090E058
:1001C0000E94EB05812F902F6FE271E00E943007B3
:1001D00064EF71E080E090E00E94EB0564EF71E075
:1001E00080E090E00E94EB0564EF71E080E090E039
:1001F0000E94EB0564EF71E080E090E00E94EB0567
:1002000064EF71E080E090E00E94EB0564EF71E044
:1002100080E090E00E94EB051F910F910895AF924E
:10022000BF92CF92DF92EF92FF920F931F93182FFE
:10023000092F6B015A016FE571E00E94300764EFEE
:1002400071E080E090E00E94EB05812F902F69E63D
:1002500071E00E94110782E7E82E81E0F82E812FDD
:10026000902FB7010E941107812F902F64E771E052
:100270000E941107812F902FB7010E941107812F33
:10028000902F0E94190764EF71E080E090E00E94D7
:10029000EB05812F902FB6010E941107812F902F1F
:1002A00060E871E00E941107812F902FB5010E9434
:1002B0001107812F902F4AE150E060E070E020E0CC
:1002C00030E00E94FA0764EF71E080E090E00E9465
:1002D000EB051F910F91FF90EF90DF90CF90BF90B3
:1002E000AF900895AF92BF92CF92DF92EF92FF92BC
:1002F0000F931F93182F092F6B015A016FE571E0BF
:100300000E94300764EF71E080E090E00E94EB050E
:10031000812F902F69E671E00E94110792E7E92E84
:1003200091E0F92E812F902FB7010E941107812FA4
:10033000902FB6010E941107812F902FB7010E94C4
:100340001107812F902F0E94190764EF71E080E060
:1003500090E00E94EB05812F902FB5010E9430079D
:1003600064EF71E080E090E00E94EB05812F902F18
:100370004AE150E060E070E020E030E00E94FA07DF
:1003800064EF71E080E090E00E94EB051F910F9117
:10039000FF90EF90DF90CF90BF90AF900895EF92D5
:1003A000FF920F931F93F82EE92E162F042F20E0B3
:1003B0000E94B304812F60E00E946D06802F61E0EF
:1003C0000E946D068F2D9E2D40E056E960E070E0A2
:1003D0000E94DD0264EF71E080E090E00E94EB0596
:1003E0001F910F91FF90EF9008950F931F93CF935C
:1003F000DF93FC01718976957170A481B581938139
:10040000772329F08C91892309F454C004C08C917E
:10041000892309F04FC08185928520E001972FEF55
:100420008F3F9207D9F7C385D485A481B581138105
:1004300060E031E040E050E000E0CE01202F019785
:100440002FEF8F3F9207D9F78C91812311F0632B07
:1004500003C0832F80956823330F4F5F5F4F483071
:10046000510559F78585968520E001972FEF8F3F3D
:100470009207D9F7711160958091FC012091FD01DF
:1004800090E001968F73907030E08217930779F0B7
:10049000E091FC01F0E0E454FE4F60838091FC01A8
:1004A00090E001968F7390708093FC0103C0818966
:1004B0008160818BDF91CF911F910F9108951F92E1
:1004C0000F920FB60F9211242F933F934F935F9388
:1004D0006F937F938F939F93AF93BF93EF93FF930C
:1004E0008091BA019091BB01009711F00E94F50133
:1004F000FF91EF91BF91AF919F918F917F916F91FC
:100500005F914F913F912F910F900FBE0F901F90D1
:1005100018951F920F920FB60F9211242F933F93AD
:100520004F935F936F937F938F939F93AF93BF93FB
:10053000EF93FF938091BA019091BB01009711F066
:100540000E94F501FF91EF91BF91AF919F918F9123
:100550007F916F915F914F913F912F910F900FBEBF
:100560000F901F9018951F920F920FB60F921124A3
:100570002F933F934F935F936F937F938F939F93AB
:10058000AF93BF93EF93FF938091BA019091BB011A
:10059000009711F00E94F501FF91EF91BF91AF918B
:1005A0009F918F917F916F915F914F913F912F918B
:1005B0000F900FBE0F901F901895CF92DF92EF9281
:1005C000FF920F931F93CF93DF93EC017A018B017E
:1005D000188A1F861E861D861C861B861A8619860B
:1005E00020E030E06901CC0CDD1CC20ED31EB60148
:1005F000660F771F660F771FAB0148595F4FFA01EF
:1006000085919591A591B4918E159F05A007B1078D
:10061000E9F4FB01E459FF4F859194919A8789870A
:10062000FB01E259FF4F859194919C878B87FB01D9
:10063000E059FF4F859194919E878D87FB01EE587D
:10064000FF4F85919491988B8F8706C02F5F3F4F06
:100650002C30310509F0C6CF8D859E85892B09F494
:1006600049C04A81463108F03DC090916800483049
:1006700010F484E005C04E3010F082E001C081E04B
:10068000892B80936800483028F4EDE6F0E0ADE671
:10069000B0E00BC04E3028F0ECE6F0E0ACE6B0E0A5
:1006A00004C0EBE6F0E0ABE6B0E05081483040F447
:1006B00081E090E002C0880F991F4A95E2F710C0D0
:1006C000242F30E04E3018F42850304002C02E5015
:1006D000304081E090E002C0880F991F2A95E2F730
:1006E000852B8C938F85988920E001972FEF8F3F82
:1006F0009207D9F78091BA019091BB018C179D07A1
:1007000081F089898E7F898B9FB7F8941092FC01C4
:100710008091FC018093FD01D093BB01C093BA018D
:100720009FBFDF91CF911F910F91FF90EF90DF90CE
:10073000CF9008950F931F93DC011F968D919C918C
:100740005097892B09F4B6C08091BA019091BB01F2
:100750008A179B07A1F051968C9151978E7F5196E5
:100760008C9351979FB7F8941092FC018091FC01F3
:100770008093FD01B093BB01A093BA019FBF0FB757
:10078000F89451968C9151971796ED91FC9118978A
:1007900016962C91169781FF88C08081822B8083CA
:1007A0001F968D919C915097049620E001972FEF12
:1007B0008F3F9207D9F751968C91519781FF35C0A1
:1007C00031E040E050E070E010E0832F90E08623BD
:1007D00097231796ED91FC91189716962C911697E2
:1007E000892B29F0808120952823208303C08081D4
:1007F000822B80831F968D919C915097212F01977A
:100800002FEF8F3F9207D9F7330F4F5F5F4F48307D
:100810005105D9F61796ED91FC911897908116968F
:100820008C9116978095892333C031E040E050E0E9
:1008300070E010E0832F90E0862397231796ED91C8
:10084000FC91189716962C911697892B21F0808190
:10085000822B808304C080812095282320831F96CB
:100860008D919C915097212F01972FEF8F3F9207E9
:10087000D9F7330F4F5F5F4F48305105D9F61796C0
:10088000ED91FC911897808116969C911697892B73
:1008900080830FBF1F968D919C91509720E0019708
:1008A0002FEF8F3F9207D9F705C08081209528232D
:1008B000208376CF1F910F9108951F93CF93DF93DD
:1008C000EC01162F862F60E00E946D06898981FD5C
:1008D00004C0812F61E00E948D061A83212F30E031
:1008E000C901865D9E4FFC0184918B832A5E3E4F39
:1008F000F9016491E62FF0E0EE0FFF1FE45FFE4F79
:10090000859194919D838C83DF91CF911F91089560
:10091000FF920F931F938C01F62E862F61E00E94A9
:100920006D068F2D61E00E948D068F2D90E0FC01F9
:10093000E65DFE4FE491D8011696EC9316978A5E19
:100940009E4FFC016491E62FF0E0EE0FFF1FEE5F7B
:10095000FE4F8591949118969C938E9317971F91B3
:100960000F91FF900895FF920F931F938C01F62E25
:1009700084EB91E0F80191838083128611861486BE
:10098000138616861586108A178681892170220F94
:100990008C7F822B818BC801642F0E948804C80140
:1009A0006F2D0E945D041F910F91FF900895DF92BB
:1009B000EF92FF920F931F93DF93CF93CDB7DEB7E4
:1009C00062970FB6F894DEBF0FBECDBF8091AD0128
:1009D00061E00E946D0682E060E00E946D068E017B
:1009E0000F5F1F4FC80160E070E041E050E00E94DF
:1009F000CF01C8010E94C80081E0E82EF12CD02E62
:100A0000012F83E00E944F06825C91402CF4F0920B
:100A10000502E092040204C0109205021092040242
:100A200083E00E944F06875292402CF0F09203021E
:100A3000E092020204C0109203021092020282E0CD
:100A40000E944F06825C91402CF4F092FF01E092EC
:100A5000FE0104C01092FF011092FE0182E00E948C
:100A60004F06875292402CF0F0920102E092000271
:100A700004C010920102109200028091FE01909138
:100A8000FF01019709F03DC0809106029091070295
:100A9000892BB9F56091AB017091AC01882777FD86
:100AA0008095982F0E94EB05809104029091050299
:100AB000019731F08091020290910302019741F475
:100AC0008D2D902F62E871E04DE851E00E94720197
:100AD0008D2D902F62E871E04FE851E00E94720185
:100AE0008D2D902F61E971E047EA51E00E940F01DE
:100AF0008091AD0161E00E948D06F0920702E092C4
:100B000006028091000290910102892B09F479CFAD
:100B100010920702109206028091AD0160E00E94DF
:100B20008D066FCF0E9415060E94D704FFCF1F923B
:100B30000F920FB60F9211242F933F934F935F9311
:100B40006F937F938F939F93AF93BF9320910C02EA
:100B500030910D0240910E0250910F0270911002DF
:100B6000DA01C9010296A11DB11D672F6A5F6D37B9
:100B700030F06D57DA01C9010396A11DB11D6093D4
:100B8000100280930C0290930D02A0930E02B0937A
:100B90000F028091080290910902A0910A02B0917F
:100BA0000B020196A11DB11D8093080290930902CA
:100BB000A0930A02B0930B02BF91AF919F918F91C6
:100BC0007F916F915F914F913F912F910F900FBE49
:100BD0000F901F901895EF92FF920F931F937B0138
:100BE0008C018FB7F89440910C0250910D026091E6
:100BF0000E0270910F028FBF2FB7F89480910C02F4
:100C000090910D02A0910E02B0910F022FBF841B94
:100C1000950BA60BB70BE816F9060A071B0760F73A
:100C20001F910F91FF90EF900895789484B58260A2
:100C300084BD84B5816084BD85B5826085BD85B580
:100C4000816085BDEEE6F0E0808181608083E1E82F
:100C5000F0E0808182608083808181608083E0E831
:100C6000F0E0808181608083E1EBF0E0808184604E
:100C70008083E0EBF0E0808181608083EAE7F0E050
:100C800080818460808380818260808380818160B4
:100C900080838081806880831092C10008958F7066
:100CA0009091AF019295990F990F907C982B90930A
:100CB0007C0080917A00806480937A0080917A0031
:100CC00086FDFCCF2091780040917900942F80E040
:100CD00030E0282B392BC9010895282F30E0C901B5
:100CE000865D9E4FFC0194912A5E3E4FF9018491EE
:100CF000882391F0E82FF0E0EE0FFF1FE850FF4F40
:100D0000A591B491662329F48C91909589238C93B5
:100D100008958C91892B8C930895482F50E0CA0137
:100D2000825C9E4FFC012491CA01865D9E4FFC01AE
:100D300094914A5E5E4FFA0134913323D1F122231C
:100D400031F1233021F4809180008F7705C0243069
:100D500031F4809180008F7D8093800018C0213015
:100D600019F484B58F7704C0223021F484B58F7DC7
:100D700084BD0DC0263021F48091B0008F7705C06E
:100D8000273029F48091B0008F7D8093B000E32F4D
:100D9000F0E0EE0FFF1FEE5FFE4FA591B4916623CA
:100DA00029F48C91909589238C9308958C91892BAB
:100DB0008C9308950F931F93CF93DF938C01EB01D6
:100DC00009C02196D801ED91FC910190F081E02DB0
:100DD000C801099568816623A1F7DF91CF911F9122
:100DE0000F910895EF92FF920F931F93CF93DF938C
:100DF0008C017B01EA010CC0D7016D917D01D80106
:100E0000ED91FC910190F081E02DC80109952197A9
:100E1000209791F7DF91CF911F910F91FF90EF9065
:100E20000895DC01ED91FC910280F381E02D09959C
:100E300008950F931F938C01DC01ED91FC910190BB
:100E4000F081E02D6DE00995D801ED91FC910190C4
:100E5000F081E02DC8016AE009951F910F91089576
:100E60000F931F938C010E941107C8010E9419075C
:100E70001F910F9108952F923F924F925F926F9220
:100E80007F928F929F92AF92BF92CF92DF92EF921A
:100E9000FF920F931F93DF93CF93CDB7DEB7A09749
:100EA0000FB6F894DEBF0FBECDBF1C016A017B01F7
:100EB000411551056105710549F4DC01ED91FC9185
:100EC0000190F081E02D60E3099554C088249924B5
:100ED0005401422E55246624772401E010E00C0FC3
:100EE0001D1F080D191DC701B601A30192010E9423
:100EF0000F08F80160830894811C911CA11CB11C8F
:100F0000C701B601A30192010E940F08C901DA01CD
:100F10006C017D01C114D104E104F104F1F681E01A
:100F2000E82EF12CEC0EFD1EE80CF91C3E01089495
:100F3000611C711CD501C4010197A109B1096C01A3
:100F4000C818D90814C0F601EE0DFF1D60816A3083
:100F500010F4605D01C0695CD101ED91FC910190DC
:100F6000F081E02DC10109950894E108F1086E14A3
:100F70007F0449F7A0960FB6F894DEBF0FBECDBF31
:100F8000CF91DF911F910F91FF90EF90DF90CF9065
:100F9000BF90AF909F908F907F906F905F904F9099
:100FA0003F902F900895EF92FF920F931F93CF934E
:100FB000DF93EC017A018B0177FF0FC0E881F981A3
:100FC0000190F081E02D6DE2099510950095F09467
:100FD000E094E11CF11C011D111DCE01B801A70117
:100FE0002AE00E943B07DF91CF911F910F91FF9064
:100FF000EF900895DC012115310541F4ED91FC914C
:101000000190F081E02D642F099508952A30310573
:1010100019F40E94D30708950E943B070895A1E2A6
:101020001A2EAA1BBB1BFD010DC0AA1FBB1FEE1F62
:10103000FF1FA217B307E407F50720F0A21BB30BAD
:10104000E40BF50B661F771F881F991F1A9469F729
:1010500060957095809590959B01AC01BD01CF0185
:061060000895F894FFCF93
:1010660041542A535752455345540041542B434645
:10107600554E3D30004154445430363439393832B7
:101086003137360041540041542B494E49540041F2
:10109600542B494E510041542B524553455400415F
:1010A600542B435351002B4353513A202C004F4BA2
:1010B6000041542B434243002B4342433A20004114
:1010C600542B434D47463D310041542B434D475326
:1010D6003D0022004154442A39392A2A312A230064
:1010E600200030363439393832313736004C004832
:1010F600006A61636B2E636F70406B706E706C611B
:101106006E65742E6E6C006B6F6500D0070D000166
:0A111600000000009A03DA06F2065A
:00000001FF
